:020000040801F1
:100000000000012035040108B5030108BB03010805
:10001000C1030108C7030108CD0301080000000067
:10002000000000000000000000000000D3030108F1
:10003000E103010800000000EF030108FD030108CF
:100040008504010885040108850401088504010868
:100050008504010885040108850401088504010858
:100060008504010885040108850401088504010848
:100070008504010885040108850401088504010838
:100080008504010885040108850401088504010828
:100090008504010885040108850401088504010818
:1000A0008504010885040108850401088504010808
:1000B00085040108850401088504010885040108F8
:1000C00085040108850401088504010885040108E8
:1000D00085040108850401088504010885040108D8
:1000E00085040108850401088504010885040108C8
:1000F00085040108850401088504010885040108B8
:1001000085040108000000000000000085040108CB
:100110008504010885040108850401088504010897
:100120008504010885040108850401088504010887
:10013000850401088504010800000000000000009B
:1001400085040108850401088504010800000000F9
:10015000000000000000000000000000000000009F
:100160008504010885040108850401088504010847
:100170008504010885040108850401088504010837
:10018000850401088504010800000000000000004B
:0401900085040108D9
:1001940010B5054C237833B9044B13B10448AFF3BD
:1001A40000800123237010BD0C000020000000001B
:1001B400AC1F010808B5034B1BB103490348AFF357
:1001C400008008BD0000000010000020AC1F0108E2
:1001D40080B500AF00F056F900F00CF800F058F8C4
:1001E40020214FF0904000F05FFC4FF47A7000F053
:1001F400AFF9F5E780B590B000AF07F118032822F6
:100204000021184601F0C8FE3B1D00221A605A6006
:100214009A60DA601A610223BB6101237B621023B6
:10022400BB6202233B634FF400437B634FF4E01350
:10023400BB630023FB6307F11803184600F04EFC70
:100244000346002B14BF01230023DBB2002B01D093
:1002540000F084F80F237B600223BB600023FB6063
:100264004FF480633B6100237B613B1D02211846F0
:1002740001F088FC0346002B14BF01230023DBB2EA
:10028400002B01D000F06AF800BF4037BD4680BDA6
:1002940080B58AB000AF07F1140300221A605A60D7
:1002A4009A60DA601A612B4B5B692A4A43F4002393
:1002B4005361284B5B6903F400233B613B69254B85
:1002C4005B69244A43F480035361224B5B6903F462
:1002D4008003FB60FB681F4B5B691E4A43F40033D9
:1002E40053611C4B5B6903F40033BB60BB68194B5F
:1002F4005B69184A43F480235361164B5B6903F42A
:1003040080237B607B68002220214FF0904000F026
:10031400B3FB4FF400537B614FF40413BB61002320
:10032400FB6107F1140319460B4800F01BFA202364
:100334007B610123BB610023FB6100233B6207F166
:10034400140319464FF0904000F00CFA00BF283710
:10035400BD4680BD001002400008004880B400AFD4
:1003640072B600BFFEE7000080B582B000AF0F4B4D
:100374009B690E4A43F0010393610C4B9B6903F0A4
:1003840001037B607B68094BDB69084A43F08053B7
:10039400D361064BDB6903F080533B603B68072065
:1003A40000F0ACF900BF0837BD4680BD0010024024
:1003B40080B400AFFEE780B400AFFEE780B400AFC6
:1003C400FEE780B400AFFEE780B400AFFEE780B480
:1003D40000AF00BFBD465DF8047B704780B400AF3A
:1003E40000BFBD465DF8047B704780B400AF00BF1A
:1003F400BD465DF8047B704780B500AF00F088F817
:1004040000BF80BD80B400AF074BD3F88830064AE4
:1004140043F47003C2F88830034B044A9A6000BF67
:10042400BD465DF8047B704700ED00E00000010864
:10043400DFF834D00D480E490E4A002302E0D458A8
:10044400C4500433C4188C42F9D30B4A0B4C002318
:1004540001E013600432A242FBD3FFF7D3FF01F0A3
:1004640077FDFFF7B5FEFEE7000001200000002045
:100474000C000020FC1F01080C0000202C000020B0
:10048400FEE7000080B500AF084B1B68074A43F045
:1004940010031360032000F031F9002000F008F885
:1004A400FFF762FF0023184680BD00BF0020024012
:1004B40080B582B000AF7860124B1A68124B1B787B
:1004C40019464FF47A73B3FBF1F3B2FBF3F3184616
:1004D40000F03BF90346002B01D001230EE07B68BA
:1004E4000F2B0AD8002279684FF0FF3000F011F981
:1004F400064A7B681360002300E00123184608378E
:10050400BD4680BD0000002008000020040000203B
:1005140080B400AF064B1B781A46064B1B68134485
:10052400044A136000BFBD465DF8047B704700BFFA
:10053400080000202800002080B400AF034B1B6893
:100544001846BD465DF8047B704700BF28000020B4
:1005540080B584B000AF7860FFF7EEFFB8607B68C9
:10056400FB60FB68B3F1FF3F05D00A4B1B781A46CA
:10057400FB681344FB6000BFFFF7DEFF0246BB6865
:10058400D31AFA689A42F7D800BF00BF1037BD46A5
:1005940080BD00BF0800002080B485B000AF786043
:1005A4007B6803F00703FB600C4BDB68BB60BA6835
:1005B4004FF6FF031340BB60FB681A02BB6813438A
:1005C40043F0BF6343F40033BB60044ABB68D360A9
:1005D40000BF1437BD465DF8047B704700ED00E0B2
:1005E40080B400AF044BDB681B0A03F00703184612
:1005F400BD465DF8047B704700ED00E080B483B035
:1006040000AF03463960FB7197F90730002B0ADB12
:100614003B68DAB20C4997F907301201D2B20B44A5
:1006240083F800230AE03B68DAB20849FB7903F057
:100634000F03043B1201D2B20B441A7600BF0C37ED
:10064400BD465DF8047B704700E100E000ED00E08A
:1006540080B489B000AFF860B9607A60FB6803F0D9
:100664000703FB61FB69C3F10703042B28BF0423C1
:10067400BB61FB690433062B02D9FB69033B00E031
:1006840000237B614FF0FF32BB6902FA03F3DA43C4
:10069400BB681A407B699A404FF0FF317B6901FACD
:1006A40003F3D9437B680B40134318462437BD46F4
:1006B4005DF8047B7047000080B582B000AF7860BD
:1006C4007B68013BB3F1807F01D301230FE00A4A29
:1006D4007B68013B53600F214FF0FF30FFF78EFF23
:1006E400054B00229A60044B07221A600023184627
:1006F4000837BD4680BD00BF10E000E080B582B081
:1007040000AF78607868FFF747FF00BF0837BD4641
:1007140080BD80B586B000AF0346B9607A60FB73D4
:1007240000237B61FFF75CFF78617A68B9687869B8
:10073400FFF78EFF024697F90F3011461846FFF770
:100744005DFF00BF1837BD4680BD80B582B000AFE5
:1007540078607868FFF7B0FF034618460837BD464F
:1007640080BD000080B487B000AF7860396000239A
:100774007B6160E13B681A6801217B6901FA03F33C
:100784001340FB60FB68002B00F052813B685B6800
:1007940003F00303012B05D03B685B6803F00303FC
:1007A400022B30D17B689B683B617B695B00032231
:1007B40002FA03F3DB433A6913403B613B68DA68AE
:1007C4007B695B0002FA03F33A6913433B617B687C
:1007D4003A699A607B685B683B6101227B6902FA33
:1007E40003F3DB433A6913403B613B685B681B09D5
:1007F40003F001027B6902FA03F33A6913433B6194
:100804007B683A695A603B685B6803F00303032B17
:1008140017D07B68DB683B617B695B00032202FACB
:1008240003F3DB433A6913403B613B689A687B6995
:100834005B0002FA03F33A6913433B617B683A694C
:10084400DA603B685B6803F00303022B23D17B6906
:10085400DA087B68083253F822303B617B6903F085
:1008640007039B000F2202FA03F3DB433A691340A8
:100874003B613B681A697B6903F007039B0002FA3A
:1008840003F33A6913433B617B69DA087B680832F6
:10089400396943F822107B681B683B617B695B0004
:1008A400032202FA03F3DB433A6913403B613B68DA
:1008B4005B6803F003027B695B0002FA03F33A69A5
:1008C40013433B617B683A691A603B685B6803F4D5
:1008D4004033002B00F0AC805E4B9B695D4A43F0D3
:1008E400010393615B4B9B6903F00103BB60BB682D
:1008F400594A7B699B08023352F823303B617B6978
:1009040003F003039B000F2202FA03F3DB433A696B
:1009140013403B617B68B3F1904F25D07B684F4A0D
:1009240093421FD07B684E4A934219D07B684D4A4C
:10093400934213D07B684C4A93420DD07B684B4A58
:10094400934207D07B684A4A934201D106230CE0C4
:1009540007230AE0052308E0042306E0032304E058
:10096400022302E0012300E000237A6902F003027B
:10097400920093403A6913433B6137497B699B0872
:1009840002333A6941F823203A4B1B683B61FB6808
:10099400DB433A6913403B613B685B6803F4803393
:1009A400002B03D03A69FB6813433B61314A3B692E
:1009B4001360304B5B683B61FB68DB433A6913406F
:1009C4003B613B685B6803F40033002B03D03A6956
:1009D400FB6813433B61274A3B695360254B9B6883
:1009E4003B61FB68DB433A6913403B613B685B68EE
:1009F40003F48013002B03D03A69FB6813433B6173
:100A04001C4A3B6993601B4BDB683B61FB68DB431F
:100A14003A6913403B613B685B6803F40013002BA5
:100A240003D03A69FB6813433B61124A3B69D360C4
:100A34007B6901337B613B681A687B6922FA03F3A3
:100A4400002B7FF497AE00BF00BF1C37BD465DF896
:100A5400047B70470010024000000140000400487D
:100A640000080048000C004800100048001400482A
:100A7400001800480004014080B483B000AF7860DF
:100A84000B467B8013467B707B78002B03D07A88DF
:100A94007B689A6102E07A887B689A6200BF0C37AF
:100AA400BD465DF8047B704780B485B000AF7860C4
:100AB4000B467B807B685B69FB607A88FB6813402C
:100AC4001A04FB68D9437B880B401A437B689A61FC
:100AD40000BF1437BD465DF8047B704780B5ADF5A3
:100AE400027D00AF07F50273A3F50173186007F5E3
:100AF4000273A3F501731B68002B02D1012301F0DB
:100B04003AB807F50273A3F501731B681B6803F079
:100B14000103002B00F06F81B54B5B6803F00C03FD
:100B2400042B0CD0B24B5B6803F00C03082B5CD194
:100B3400AF4B5B6803F4C033B3F5803F55D14FF43A
:100B44000033C7F8F431D7F8F43193FAA3F3C7F8B4
:100B5400F031D7F8F031B3FA83F3DBB25B09DBB2DF
:100B640043F00103DBB2012B02D1A14B1B6815E05A
:100B74004FF40033C7F8EC31D7F8EC3193FAA3F310
:100B8400C7F8E8314FF40033C7F8E431D7F8E4315B
:100B940093FAA3F3C7F8E031954B5B6A4FF4003244
:100BA400C7F8DC21D7F8DC2192FAA2F2C7F8D821E1
:100BB400D7F8D821B2FA82F2D2B242F02002D2B2ED
:100BC40002F01F02012101FA02F21340002B00F08F
:100BD400118107F50273A3F501731B685B68002B91
:100BE40040F00881012300F0C6BF07F50273A3F5A6
:100BF40001731B685B68B3F5803F06D17C4B1B68AF
:100C04007B4A43F48033136036E007F50273A3F59F
:100C140001731B685B68002B0CD1754B1B68744A0D
:100C240023F480331360724B1B68714A23F48023CE
:100C3400136021E007F50273A3F501731B685B6879
:100C4400B3F5A02F0CD16A4B1B68694A43F4802387
:100C54001360674B1B68664A43F4803313600BE0F0
:100C6400634B1B68624A23F480331360604B1B6838
:100C74005F4A23F48023136007F50273A3F501731D
:100C84001B685B68002B59D0FFF756FCC7F80002BD
:100C94000AE0FFF751FC0246D7F80032D31A642B5E
:100CA40002D9032300F067BF4FF40033C7F8D431EF
:100CB400D7F8D43193FAA3F3C7F8D031D7F8D031A9
:100CC400B3FA83F3DBB25B09DBB243F00103DBB2BB
:100CD400012B02D1464B1B6815E04FF40033C7F8D3
:100CE400CC31D7F8CC3193FAA3F3C7F8C8314FF419
:100CF4000033C7F8C431D7F8C43193FAA3F3C7F863
:100D0400C0313B4B5B6A4FF40032C7F8BC21D7F8C3
:100D1400BC2192FAA2F2C7F8B821D7F8B821B2FAE6
:100D240082F2D2B242F02002D2B202F01F020121BA
:100D340001FA02F21340002BABD05CE0FFF7FCFB9E
:100D4400C7F800020AE0FFF7F7FB0246D7F80032C3
:100D5400D31A642B02D9032300F00DBF4FF40033E0
:100D6400C7F8B431D7F8B43193FAA3F3C7F8B03164
:100D7400D7F8B031B3FA83F3DBB25B09DBB243F0EB
:100D84000103DBB2012B02D1194B1B6815E04FF4B0
:100D94000033C7F8AC31D7F8AC3193FAA3F3C7F8F2
:100DA400A8314FF40033C7F8A431D7F8A43193FA2B
:100DB400A3F3C7F8A0310E4B5B6A4FF40032C7F8B7
:100DC4009C21D7F89C2192FAA2F2C7F89821D7F86F
:100DD4009821B2FA82F2D2B242F02002D2B202F0E8
:100DE4001F02012101FA02F21340002BABD102E0F1
:100DF4000010024000BF07F50273A3F501731B68DE
:100E04001B6803F00203002B00F07F81A74B5B6893
:100E140003F00C03002B0CD0A44B5B6803F00C0311
:100E2400082B73D1A14B5B6803F4C033B3F5004FB7
:100E34006CD10223C7F89431D7F8943193FAA3F311
:100E4400C7F89031D7F89031B3FA83F3DBB25B097A
:100E5400DBB243F00103DBB2012B02D1934B1B68DD
:100E640013E00223C7F88C31D7F88C3193FAA3F33B
:100E7400C7F888310223C7F88431D7F8843193FA4C
:100E8400A3F3C7F88031894B5B6A0222C7F87C213F
:100E9400D7F87C2192FAA2F2C7F87821D7F8782102
:100EA400B2FA82F2D2B242F02002D2B202F01F02AF
:100EB400012101FA02F21340002B0AD007F5027354
:100EC400A3F501731B68DB68012B02D0012300F03A
:100ED40052BE764B1B6823F0F80207F50273A3F5A4
:100EE40001731B681B69F821C7F87411D7F87411D2
:100EF40091FAA1F1C7F87011D7F87011B1FA81F124
:100F0400C9B28B40694913430B60FEE007F50273D5
:100F1400A3F501731B68DB68002B00F088800123B4
:100F2400C7F86C31D7F86C3193FAA3F3C7F868317A
:100F3400D7F86831B3FA83F3DBB203F1845303F5D2
:100F440084139B001A4601231360FFF7F5FAC7F8D0
:100F540000020AE0FFF7F0FA0246D7F80032D31A8B
:100F6400022B02D9032300F006BE0223C7F8643122
:100F7400D7F8643193FAA3F3C7F86031D7F8603136
:100F8400B3FA83F3DBB25B09DBB243F00103DBB2F8
:100F9400012B02D1454B1B6813E00223C7F85C31D7
:100FA400D7F85C3193FAA3F3C7F858310223C7F892
:100FB4005431D7F8543193FAA3F3C7F850313B4B6B
:100FC4005B6A0222C7F84C21D7F84C2192FAA2F2AC
:100FD400C7F84821D7F84821B2FA82F2D2B242F0D7
:100FE4002002D2B202F01F02012101FA02F21340E0
:100FF400002BAFD02D4B1B6823F0F80207F50273CA
:10100400A3F501731B681B69F821C7F84411D7F8CD
:10101400441191FAA1F1C7F84011D7F84011B1FA7F
:1010240081F1C9B28B40214913430B606DE0012368
:10103400C7F83C31D7F83C3193FAA3F3C7F83831F9
:10104400D7F83831B3FA83F3DBB203F1845303F5F1
:1010540084139B001A4600231360FFF76DFAC7F848
:1010640000020AE0FFF768FA0246D7F80032D31A02
:10107400022B02D9032300F07EBD0223C7F83431CA
:10108400D7F8343193FAA3F3C7F83031D7F83031B5
:10109400B3FA83F3DBB25B09DBB243F00103DBB2E7
:1010A400012B05D1014B1B6816E000BF0010024064
:1010B4000223C7F82C31D7F82C3193FAA3F3C7F8DD
:1010C40028310223C7F82431D7F8243193FAA3F343
:1010D400C7F82031BF4B5B6A0222C7F81C21D7F83E
:1010E4001C2192FAA2F2C7F81821D7F81821B2FAF3
:1010F40082F2D2B242F02002D2B202F01F020121E7
:1011040001FA02F21340002BACD107F50273A3F5E8
:1011140001731B681B6803F00803002B00F01381A4
:1011240007F50273A3F501731B685B69002B7CD080
:101134000123C7F81431D7F8143193FAA3F3C7F88D
:101144001031D7F81031B3FA83F3DBB21A46A24B4D
:1011540013449B001A4601231360FFF7EDF9C7F807
:1011640000020AE0FFF7E8F90246D7F80032D31A82
:10117400022B02D9032300F0FEBC0223C7F80C3172
:10118400D7F80C3193FAA3F207F50273A3F5807331
:101194001A6007F50273A3F5827302221A6007F539
:1011A4000273A3F582731B6893FAA3F207F5027323
:1011B400A3F584731A6007F50273A3F586730222FC
:1011C4001A6007F50273A3F586731B6893FAA3F2FA
:1011D40007F50273A3F588731A607E4B5A6A07F504
:1011E4000273A3F58A730221196007F50273A3F54C
:1011F4008A731B6893FAA3F107F50273A3F58C7342
:10120400196007F50273A3F58C731B68B3FA83F3B3
:10121400DBB243F06003DBB203F01F03012101FAE8
:1012240003F31340002B9DD08DE007F50273A3F563
:101234008E7301221A6007F50273A3F58E731B687F
:1012440093FAA3F207F50273A3F590731A6007F5F6
:101254000273A3F590731B68B3FA83F3DBB21A46E7
:101264005D4B13449B001A4600231360FFF764F997
:10127400C7F800020AE0FFF75FF90246D7F8003228
:10128400D31A022B02D9032300F075BC07F50273AD
:10129400A3F5927302221A6007F50273A3F5927301
:1012A4001B6893FAA3F207F50273A3F594731A600B
:1012B40007F50273A3F5967302221A6007F5027309
:1012C400A3F596731B6893FAA3F207F50273A3F5CB
:1012D40098731A6007F50273A3F59A7302221A60D1
:1012E40007F50273A3F59A731B6893FAA3F207F543
:1012F4000273A3F59C731A60364B5A6A07F502739E
:10130400A3F59E730221196007F50273A3F59E737A
:101314001B6893FAA3F107F50273A3F5A073196090
:1013240007F50273A3F5A0731B68B3FA83F3DBB26A
:1013340043F06003DBB203F01F03012101FA03F35E
:101344001340002B97D107F50273A3F501731B68B3
:101354001B6803F00403002B00F0A581002387F829
:1013640007321C4BDB6903F08053002B16D1194B59
:10137400DB69184A43F08053D361164BDB6903F0F1
:10138400805207F50273A3F5FE731A6007F5027322
:10139400A3F5FE731B68012387F807320F4B1B6804
:1013A40003F48073002B21D10C4B1B680B4A43F4CC
:1013B40080731360FFF7C0F8C7F8000210E0FFF76E
:1013C400BBF80246D7F80032D31A642B08D903239A
:1013D400D1E300BF00100240208190100070004053
:1013E4008D4B1B6803F48073002BE8D007F5027360
:1013F400A3F501731B689B68012B06D1874B1B6AFD
:10140400864A43F00103136235E007F50273A3F53E
:1014140001731B689B68002B0CD1804B1B6A7F4AAD
:1014240023F0010313627D4B1B6A7C4A23F00403FF
:10143400136220E007F50273A3F501731B689B6830
:10144400052B0CD1754B1B6A744A43F004031362D9
:10145400724B1B6A714A43F0010313620BE06F4B3A
:101464001B6A6E4A23F0010313626C4B1B6A6B4ABE
:1014740023F00403136207F50273A3F501731B68D9
:101484009B68002B00F08180FFF756F8C7F8000234
:101494000BE0FFF751F80246D7F80032D31A41F2B5
:1014A4008832934201D9032365E307F50273A3F558
:1014B400A27302221A6007F50273A3F5A2731B68D4
:1014C40093FAA3F207F50273A3F5A4731A6007F560
:1014D4000273A3F5A67302221A6007F50273A3F53B
:1014E400A6731B6893FAA3F207F50273A3F5A87316
:1014F4001A6007F50273A3F5A8731B68B3FA83F3A4
:10150400DBB25B09DBB243F00203DBB2022B02D194
:10151400424B1B6A13E007F50273A3F5AA73022278
:101524001A6007F50273A3F5AA731B6893FAA3F272
:1015340007F50273A3F5AC731A60384B5B6A07F5C1
:101544000272A2F5AE720221116007F50272A2F5D1
:10155400AE72126892FAA2F107F50272A2F5B072A5
:10156400116007F50272A2F5B0721268B2FA82F243
:10157400D2B242F04002D2B202F01F02012101FABB
:1015840002F21340002B84D083E0FEF7D5FFC7F8A6
:1015940000020BE0FEF7D0FF0246D7F80032D31A60
:1015A40041F28832934201D90323E4E207F502733E
:1015B400A3F5B27302221A6007F50273A3F5B2739E
:1015C4001B6893FAA3F207F50273A3F5B4731A60C8
:1015D40007F50273A3F5B67302221A6007F50273C6
:1015E400A3F5B6731B6893FAA3F207F50273A3F588
:1015F400B8731A6007F50273A3F5B8731B68B3FADE
:1016040083F3DBB25B09DBB243F00203DBB2022BF0
:1016140006D1024B1B6A17E0007000400010024024
:1016240007F50273A3F5BA7302221A6007F5027371
:10163400A3F5BA731B6893FAA3F207F50273A3F533
:10164400BC731A60B34B5B6A07F50272A2F5BE72F3
:101654000221116007F50272A2F5BE72126892FAB5
:10166400A2F107F50272A2F5C072116007F50272C9
:10167400A2F5C0721268B2FA82F2D2B242F040020B
:10168400D2B202F01F02012101FA02F21340002B30
:1016940080D197F80732012B05D19E4BDB699D4A17
:1016A40023F08053D36107F50273A3F501731B681C
:1016B4009B69002B00F05E82964B5B6803F00C0381
:1016C400082B00F01F8207F50273A3F501731B6852
:1016D4009B69022B40F0708107F50273A3F5C27376
:1016E4004FF080721A6007F50273A3F5C2731B688A
:1016F40093FAA3F207F50273A3F5C4731A6007F50E
:101704000273A3F5C4731B68B3FA83F3DBB203F16A
:10171400845303F584139B001A4600231360FEF7D9
:101724000BFFC7F8000209E0FEF706FF0246D7F8F0
:101734000032D31A022B01D903231CE207F50273EA
:10174400A3F5C6734FF000721A6007F50273A3F590
:10175400C6731B6893FAA3F207F50273A3F5C87363
:101764001A6007F50273A3F5C8731B68B3FA83F311
:10177400DBB25B09DBB243F00103DBB2012B02D124
:10178400644B1B6827E007F50273A3F5CA734FF097
:1017940000721A6007F50273A3F5CA731B6893FA03
:1017A400A3F207F50273A3F5CC731A6007F502736D
:1017B400A3F5CE734FF000721A6007F50273A3F518
:1017C400CE731B6893FAA3F207F50273A3F5D073E3
:1017D4001A60504B5B6A07F50272A2F5D2724FF0A1
:1017E4000071116007F50272A2F5D272126892FAC2
:1017F400A2F107F50272A2F5D472116007F5027224
:10180400A2F5D4721268B2FA82F2D2B242F0200285
:10181400D2B202F01F02012101FA02F21340002B9E
:1018240082D13C4BDB6A23F00F0207F50273A3F568
:1018340001731B685B6A37491343CB62354B5B68A2
:1018440023F4761207F50273A3F501731B68196A72
:1018540007F50273A3F501731B68DB690B432D497C
:1018640013434B6007F50273A3F5D6734FF08072F0
:101874001A6007F50273A3F5D6731B6893FAA3F2F3
:1018840007F50273A3F5D8731A6007F50273A3F57D
:10189400D8731B68B3FA83F3DBB203F1845303F503
:1018A40084139B001A4601231360FEF745FEC7F814
:1018B400000209E0FEF740FE0246D7F80032D31AD0
:1018C400022B01D9032356E107F50273A3F5DA735A
:1018D4004FF000721A6007F50273A3F5DA731B6800
:1018E40093FAA3F207F50273A3F5DC731A6007F504
:1018F4000273A3F5DC731B68B3FA83F3DBB25B09F1
:10190400DBB243F00103DBB2012B05D1014B1B68B1
:101914002AE000BF0010024007F50273A3F5DE734E
:101924004FF000721A6007F50273A3F5DE731B68AB
:1019340093FAA3F207F50273A3F5E0731A6007F5AF
:101944000273A3F5E2734FF000721A6007F5027395
:10195400A3F5E2731B6893FAA3F207F50273A3F5E8
:10196400E4731A60864B5B6A07F50272A2F5E672AD
:101974004FF00071116007F50272A2F5E672126869
:1019840092FAA2F107F50272A2F5E872116007F566
:101994000272A2F5E8721268B2FA82F2D2B242F08E
:1019A4002002D2B202F01F02012101FA02F2134016
:1019B400002B3FF47FAFDDE007F50273A3F5EA7374
:1019C4004FF080721A6007F50273A3F5EA731B687F
:1019D40093FAA3F207F50273A3F5EC731A6007F503
:1019E4000273A3F5EC731B68B3FA83F3DBB203F160
:1019F400845303F584139B001A4600231360FEF7F7
:101A04009BFDC7F8000209E0FEF796FD0246D7F8F1
:101A14000032D31A022B01D90323ACE007F5027379
:101A2400A3F5EE734FF000721A6007F50273A3F585
:101A3400EE731B6893FAA3F207F50273A3F5F07330
:101A44001A6007F50273A3F5F0731B68B3FA83F306
:101A5400DBB25B09DBB243F00103DBB2012B02D141
:101A6400474B1B6827E007F50273A3F5F2734FF0A9
:101A740000721A6007F50273A3F5F2731B6893FAF8
:101A8400A3F207F50273A3F5F4731A6007F5027362
:101A9400A3F5F6734FF000721A6007F50273A3F50D
:101AA400F6731B6893FAA3F207F50273A3F5F873B0
:101AB4001A60334B5B6A07F50272A2F5FA724FF0B3
:101AC4000071116007F50272A2F5FA72126892FAB7
:101AD400A2F107F50272A2F5FC72116007F5027219
:101AE400A2F5FC721268B2FA82F2D2B242F020027B
:101AF400D2B202F01F02012101FA02F21340002BBC
:101B040082D137E007F50273A3F501731B689B6963
:101B1400012B01D101232EE0194B5B68C7F8FC317E
:101B2400174BDB6AC7F8F831D7F8FC3103F4C0323D
:101B340007F50273A3F501731B68DB699A4217D199
:101B4400D7F8FC3103F4701207F50273A3F501739F
:101B54001B681B6A9A420BD1D7F8F83103F00F02C5
:101B640007F50273A3F501731B685B6A9A4201D0FF
:101B7400012300E00023184607F50277BD4680BD27
:101B84000010024080B59EB000AF78603960002339
:101B94007B677B68002B01D1012362E1904B1B68BA
:101BA40003F007033A689A4210D98D4B1B6823F05F
:101BB40007028B493B6813430B60894B1B6803F096
:101BC40007033A689A4201D001234AE17B681B6803
:101BD40003F00203002B08D0824B5B6823F0F00271
:101BE4007B689B687F4913434B607B681B6803F0E9
:101BF4000103002B00F0DC807B685B68012B3CD187
:101C04004FF400333B673B6F93FAA3F3FB66FB6E21
:101C1400B3FA83F3DBB25B09DBB243F00103DBB25B
:101C2400012B02D16F4B1B680FE04FF40033BB66EE
:101C3400BB6E93FAA3F37B664FF400333B663B6EB3
:101C440093FAA3F3FB65674B5B6A4FF40032BA6502
:101C5400BA6D92FAA2F27A657A6DB2FA82F2D2B2CF
:101C640042F02002D2B202F01F02012101FA02F274
:101C74001340002B7BD10123F3E07B685B68022BCC
:101C84003CD14FF000733B653B6D93FAA3F3FB64C7
:101C9400FB6CB3FA83F3DBB25B09DBB243F0010301
:101CA400DBB2012B02D14F4B1B680FE04FF00073E6
:101CB400BB64BB6C93FAA3F37B644FF000733B6487
:101CC4003B6C93FAA3F3FB63464B5B6A4FF00072E1
:101CD400BA63BA6B92FAA2F27A637A6BB2FA82F2BC
:101CE400D2B242F02002D2B202F01F02012101FA64
:101CF40002F21340002B3AD10123B2E002233B63EA
:101D04003B6B93FAA3F3FB62FB6AB3FA83F3DBB294
:101D14005B09DBB243F00103DBB2012B02D1314B8F
:101D24001B680DE00223BB62BB6A93FAA3F37B62D8
:101D340002233B623B6A93FAA3F3FB61294B5B6A80
:101D44000222BA61BA6992FAA2F27A617A69B2FAA3
:101D540082F2D2B242F02002D2B202F01F0201217A
:101D640001FA02F21340002B01D1012379E01D4B4B
:101D74005B6823F003027B685B681A4913434B607A
:101D8400FEF7DAFB78670AE0FEF7D6FB02467B6FC4
:101D9400D31A41F28832934201D9032361E0114BF3
:101DA4005B6803F00C027B685B689B009A42EBD192
:101DB4000B4B1B6803F007033A689A4214D2084B92
:101DC4001B6823F0070206493B6813430B60044B6E
:101DD4001B6803F007033A689A4205D0012340E0E8
:101DE40000200240001002407B681B6803F00403DB
:101DF400002B08D01D4B5B6823F4E0627B68DB6832
:101E04001A4913434B607B681B6803F00803002BDB
:101E140009D0164B5B6823F460527B681B69DB00B6
:101E2400124913434B6000F029F801460F4B5B68DD
:101E340003F0F003F0223A613A6992FAA2F2FA60EE
:101E4400FA68B2FA82F2D2B2D340094AD35C21FAD8
:101E540003F3084A1360084B1B681846FEF728FB77
:101E6400002318467837BD4680BD00BF00100240ED
:101E7400C41F0108000000200400002080B48BB0BF
:101E840000AF0023FB610023BB6100237B620023BE
:101E94007B6100233B622A4B5B68FB61FB6903F0B7
:101EA4000C03042B02D0082B03D03FE0254B3B62EC
:101EB4003FE0FB6903F470134FF47012BA60BA6820
:101EC40092FAA2F27A607A68B2FA82F2D2B2D3407B
:101ED4001D4AD35C7B611A4BDB6A03F00F030F22AC
:101EE4003A613A6992FAA2F2FA60FA68B2FA82F2B4
:101EF400D2B2D340154AD35CBB61FB6903F480338F
:101F0400002B08D00F4ABB69B2FBF3F27B6902FBDA
:101F140003F37B6207E00B4ABB69B2FBF3F27B6914
:101F240002FB03F37B627B6A3B6202E0054B3B628C
:101F340000BF3B6A18462C37BD465DF8047B7047EA
:101F44000010024000127A00D41F0108E41F0108A7
:101F540070B50D4D0D4C641BA4100026A64209D18A
:101F64000B4D0C4C00F020F8641BA4100026A64274
:101F740005D170BD55F8043B98470136EEE755F896
:101F8400043B98470136F2E7F41F0108F41F0108E7
:101F9400F41F0108F81F010802440346934200D1CC
:101FA400704703F8011BF9E7F8B500BFF8BC08BC9B
:101FB4009E467047F8B500BFF8BC08BC9E46704703
:101FC40000000000000000000102030406070809E5
:101FD40002030405060708090A0B0C0D0E0F101066
:101FE4000102030405060708090A0B0C0D0E0F1065
:041FF400B901010826
:041FF8009501010846
:0C1FFC0000127A0010000000010000003C
:0400000508010435B5
:00000001FF
