:020000040800F2
:10300000003000206D790008ED760008EF760008AA
:10301000F1760008F3760008F5760008000000005D
:10302000000000000000000000000000F77600082B
:10303000F976000800000000FB760008FD76000825
:10304000BD790008BD790008BD790008BD79000888
:10305000BD790008BD790008BD790008BD79000878
:10306000BD790008BD790008BD7900080D7700081A
:1030700019770008BD790008BD790008BD790008FE
:10308000BD790008BD79000825770008BD790008E2
:10309000BD790008BD790008BD790008BD79000838
:1030A000BD790008BD790008BD790008BD79000828
:1030B000BD790008BD79000800000000BD79000856
:1030C000BD7900080000000000000000BD79000884
:1030D00000000000417700084D770008BD79000826
:1030E000BD790008BD790008000000000000000064
:1030F00000000000000000000000000000000000D0
:1031000000000000000000000000000000000000BF
:103110000000000000000000BD790008BD79000833
:10312000000000000000000000000000000000009F
:10313000000000000000000000000000000000008F
:10314000BD790008BD790008000000000000000003
:10315000000000000000000000000000000000006F
:10316000000000000000000000000000000000005F
:10317000000000000000000000000000000000004F
:0831800000000000BD79000809
:1031880010B5054C237833B9044B13B10448AFF399
:1031980000800123237010BD2800002000000000DB
:1031A800347A000808B5034B1BB103490348AFF351
:1031B800008008BD000000002C000020347A0008C0
:1031C80038B50E4A0E4B054618784FF47A73B3FBA0
:1031D800F0F31068B0FBF3F000F0E2FD044658B9D4
:1031E8000F2D09D8024629464FF0FF3000F098FD10
:1031F800044B20461D6038BD0120FCE7200000205C
:103208000000002004000020074A08B5136843F0B6
:1032180010031360032000F071FD0220FFF7D0FFB8
:1032280004F048FA002008BD00200240034A044B7D
:1032380011681B780B441360704700BF44000020DE
:1032480000000020014B1868704700BF44000020B0
:1032580038B50446FFF7F6FF631C1CBF054B1B7807
:10326800054618BFE418FFF7EDFF431BA342FAD346
:1032780038BD00BF0000002070477047704738B560
:1032880003680446986800F00300012801D0002074
:1032980038BD1A68D107FAD59A6802F00D02012ADA
:1032A8001FD19A6842F002029A6003221A60FFF75F
:1032B800C9FF054623689B68DB07E8D5FFF7C2FF0F
:1032C800401B0228F6D923689B68DA07F2D5236CDD
:1032D80043F010032364636C43F00103636401202B
:1032E800D6E7236C43F010032364636C43F00103B7
:1032F8006364CDE738B503689A6802F00302012ACF
:10330800044604D11A68D10701D5002038BD996850
:10331800104A114209D0236C43F010032364636CF4
:1033280043F0010363640120F0E79A6842F0010268
:103338009A60FFF787FF054623681B68DB07E4D41C
:10334800FFF780FF401B0228F6D923681B68DA07BD
:10335800F2D4E0E73F000080406A036C43F040038A
:103368000364436C43F004034364FFF787BF406A78
:10337800FFF782BF436A1A6C12F0500F18D11A6C0B
:1033880042F400721A641A68D26812F4406F0CD1C1
:103398005A7E52B91A6C22F480721A641A6CD204DA
:1033A8005EBF1A6C42F001021A64184603F0F8BEB8
:1033B8009B6B1B6B1847000073B5002301930446F1
:1033C800002800F0E280026CD50600F1CB80036C87
:1033D800002B00F09180002023689A68D20002D563
:1033E8009B689B000AD5236C23F0120343F010035B
:1033F8002364636C43F0010363640120236CDE06DD
:1034080000F1BD80002840F0BA802368996811F067
:10341800040140F0B480226C22F4817242F002026E
:1034280022649D685A4AB3F1A04F05F0030518BFFE
:103438004FF0A042012D02D11D68ED070ED495680A
:1034480005F00305012D02D11268D20706D4514DAB
:103458006668AA6822F440323243AA60626B657ECD
:10346800012AD4E9026242EA060218BF4FF48051E9
:1034780042EA45320A4394F82010012907D1002D69
:1034880072D1616A013942EA414242F48032A16A4A
:1034980001291EBFE56A29430A43996811F00C0FF8
:1034A8000CD1D96821F4804121F00201D96094F847
:1034B8003010257E490041EA85310A43DD683649E6
:1034C80029400A43DA602269012A05BF196BE269BB
:1034D8001A6B02F1FF3206BF21F00F010A4322F0F6
:1034E8000F021A6300236364236C23F0030343F081
:1034F8000103236402B070BDC0E91233436480F84D
:103508003C3002F021FA23689B68D8003FF563AF8E
:103518002046FFF7B4FE226CD1063FF55DAF0028C8
:103528007FF45AAF236C226823F4885323F00203F4
:1035380043F002032364936823F040539360936835
:1035480043F080539360154B154A1B68B3FBF2F3A5
:103558000A2253430193019B002B3FF43CAF019B8C
:10356800013BF7E7184649E7216C21F0220141F0B9
:1035780020012164616C41F00101616487E7236CDB
:1035880023F0120343F0100323640120B2E700BFC5
:10359800000100500003005007C0F0FF2000002089
:1035A80040420F0013460268926812F004022DE9A7
:1035B800F34104460F4673D190F83C1001296FD0AF
:1035C800DFF8F080012580F83C50D8F8086016F044
:1035D8001F0662D10193FFF78DFE0546002859D1D9
:1035E800206C2168019B20F4706020F0010040F4F9
:1035F80080702064D8F8082012F01F0F226C02D0C7
:10360800B1F1A04F34D122F480122264CA6890012B
:1036180005D5226C22F4405242F480522264226C76
:10362800A06B12F480521CBF626C22F00602626426
:10363800002284F83C201B4A82621B4AC2621B4A51
:1036480002631C220A604A6842F010024A60CA6893
:1036580042F00102CA603A46403100F0E7FB2268B6
:10366800936843F004039360284602B0BDE8F081F4
:1036780042F4801222640E4A9142D0D14FF0A04207
:10368800D268920141BF206C20F4405040F4805031
:103698002064C4E784F83C60E6E780F83C20E3E770
:1036A8000225E1E77D33000877330008613300081D
:1036B8000001005000030050704770477047704782
:1036C80003681A68520710B5044602D55A685007AD
:1036D80005D41A6811073FD55A6812073CD5226CE1
:1036E800D0065EBF226C42F400722264924A91684E
:1036F800C9060DD0916801F01F01052908D092680C
:1037080002F01F02092A03D0B3F1A04F40F0F18064
:10371800DA68D96802F4005201F440610A4315D10D
:103728001A68120712D59A68500700F1E6805A689D
:1037380022F00C025A60236C23F480732364236CF8
:10374800D90403D4236C43F001032364204603F017
:1037580027FD23680C221A6023681A68920602D58E
:103768005A68900605D41A68510657D55A68520601
:1037780054D5226C42F4005222646F4A9168C806FC
:103788000DD0916801F01F01052908D0926802F058
:103798001F02092A03D0B3F1A04F40F0B780DA68BE
:1037A800D96C11F0C00F33D1910106D5D96802F454
:1037B800005201F440610A432AD11A68500627D5FD
:1037C8005D4A9168C9060DD0916801F01F0106296C
:1037D80008D0926802F01F02072A03D0B3F1A04F65
:1037E80040F09880DA68920212D49A68100700F1C3
:1037F80095805A6822F060025A60236C23F4805343
:103808002364236CD90503D4236C43F00103236498
:103818002046FFF751FF236860221A6023681A6860
:1038280012060CD55B681B0609D5236C43F480335C
:1038380023642046FFF721FD236880221A6023684D
:103848001A68D0050DD55B68D9050AD5236C43F4F1
:10385800003323642046FFF731FF23684FF480725A
:103868001A6023681A6892050DD55B6898050AD511
:10387800236C43F4802323642046FFF720FF23684A
:103888004FF400721A6023681A68D1061BD55A686B
:10389800D20618D5626B012A07D0274A9168C80654
:1038A80045D1DB6813F0010F0AD0236C43F4806321
:1038B8002364636C43F0020363642046FFF7DEFC75
:1038C800236810221A6023681A68510510D55A68AF
:1038D80052050DD5226C42F480422264626C42F09B
:1038E800080262644FF480621A602046FFF7E5FE22
:1038F80010BD4FF0A042D2680BE7236C43F01003D1
:103908002364636C43F0010363641FE74FF0A04234
:10391800D26845E74FF0A042D26864E7236C43F0D1
:1039280010032364636C43F00103636470E79368D6
:1039380013F4404FB8E700BF000300502DE9F341EE
:103948000023019390F83C30CE68012B00F0618190
:103958000368012280F83C209C68670700F15381C6
:103968004D680A680624042D05FB04F431D81D6B44
:103978001F27A74025EA070502FA04F42C431C6315
:103988009C6814F00C0F5CD1092AD1F808C002EB2E
:1039980042044FF0070541D99F691E3CA54027EA1C
:1039A80005050CFA04F42C439C61DC68C4F3C10CD3
:1039B8004C694FEA4C0C04FA0CFC0C6904F1FF3E0C
:1039C8004FEA8268BEF1030F6CD8DFE80EF0304A88
:1039D8005560092D0AD85D6B1E3C1F27A74025EAB4
:1039E800070502FA04F42C435C63C9E70E2D4FF077
:1039F8001F0509D89F6B3C3CA54027EA050502FA3C
:103A080004F425439D63BBE7DF6B5A3CA54027EAD6
:103A1800050502FA04F42C43DC63B1E75F69A540AD
:103A280027EA05050CFA04F425435D61BDE71C6E21
:103A3800794D254045EA080444EA0C0444F0004462
:103A48001C669C6804F00304012C4FD11C68E50730
:103A58004CD50023002280F83C20184602B0BDE86F
:103A6800F0815C6E6C4F274047EA080444EA0C0476
:103A780044F000445C66E4E79C6E674D254045EAE7
:103A8800080444EA0C0444F000449C66D9E7DD6E5F
:103A9800614C2C4044EA080444EA0C0444F0004415
:103AA800DC66CEE71C6E04F0F844A04502BF1C6E2D
:103AB80024F000441C665C6E04F0F844A04502BF84
:103AC8005C6E24F000445C669C6E04F0F844A045EB
:103AD80002BF9C6E24F000449C66DC6E04F0F8443F
:103AE800A045AED1DC6E24F00044D9E70124012EB4
:103AF80004FA02F43BD0D3F8B01021EA0404C3F866
:103B0800B040102A56D14549896811F4000FA0D158
:103B18009C684349B3F1A04F04F0030418BF4FF069
:103B2800A041012C02D11C68E40766D48C6804F01B
:103B38000304012C02D10968C9075ED4102A48D1B0
:103B4800B3F1A04F85D1354A936843F400039360DD
:103B5800344B354A1B68B3FBF2F30A2253430193F3
:103B6800019B002B3FF475AF019B013BF7E7D3F8AE
:103B7800B050092A44EA0504C3F8B0408D680CD94E
:103B880002EB42019C691B3907268E4024EA060491
:103B980005FA01F121439961B3E701325C6902EB4F
:103BA80042020721914024EA010405FA02F1214367
:103BB80059614EE7112A04D11849896811F0807FAC
:103BC800A5E7122A7FF445AF1449896811F4800FDC
:103BD8009DE7112A09D1B3F1A04F7FF43AAF0F4AFC
:103BE800936843F08073936033E7122A7FF431AF10
:103BF8000A4A936843F48003F5E7036C43F0200313
:103C08000364012326E7036C43F02003036413468F
:103C180020E7022321E700BF00F0FF8300030050E4
:103C2800000100502000002040420F00F0B5046859
:103C380090F83C202F4BB4F1A04F18BF4FF0A04391
:103C4800012A55D001220D6880F83C20A26852074D
:103C580048D49A68570745D4274EB26822F4604280
:103C68003DB34F683A4390F8307042EA4732B26049
:103C7800A26802F00302012A08D12268D60705D5F6
:103C88000023002280F83C201846F0BD9A6802F014
:103C98000302012A02D11B68DC07F1D4164A89689D
:103CA800936823F471630D4323F00F031D4395605C
:103CB800E6E7B260A26802F00302012A02D1226894
:103CC800D207DDD49A6802F00302012A02D11B68E8
:103CD800DB07D5D4084A936823F4716323F00F03F4
:103CE8009360CDE7036C43F0200303640123C8E726
:103CF8000223C9E700010050000300500749CA68C1
:103D080022F4E0620302120403F4E063120C13438A
:103D180043F0BF6343F40033CB60704700ED00E02D
:103D2800164B30B5DC68C4F30224C4F10705231D23
:103D3800042D28BF0425062B4FF0FF338CBF033C0E
:103D4800002403FA05F521EA0501A34022EA03024B
:103D5800A140002841EA0203ACBF00F16040084AD4
:103D68004FEA0313B8BF00F00F00DBB2AABF00F59B
:103D78006140135480F8003330BD00BF00ED00E00F
:103D880014ED00E0002808DB4209012300F01F00C1
:103D980003FA00F0014B43F82200704700E100E00D
:103DA8000138B0F1807F0BD24FF0E023054A58610B
:103DB800F02182F823100020072298611A617047C9
:103DC8000120704700ED00E008B503F0DDFA08BDFA
:103DD80010B520B3D0E901342343C46801682343F4
:103DE80004690A6823434469234384692343C469F3
:103DF80022F47F5222F03002234313430B60094B15
:103E080014220B44B3FBF2F39B000364064BC36319
:103E18004FF48072002383630284184610BD01208A
:103E2800FCE700BFF8FFFDBF00000240F0B590F8C6
:103E38002040012C34D090F821500124A54280F86C
:103E480020404FF000064FF0020427D180F82140AF
:103E580004688663266826F001062660D0E90F67A5
:103E6800BD40756063604368102BC36A0BBFA260D6
:103E7800A160E160E2604BB1236843F00E03236068
:103E8800236843F0010323600020F0BD236843F05A
:103E98000A032360236823F00403F0E780F8206016
:103EA8000220F2E790F82130022B06D00423836326
:103EB800002380F820300120704703681A6822F038
:103EC8000E021A601A6822F001021A60D0E90F2166
:103ED80001238B4053604FF48073038400207047A4
:103EE80010B590F82120022A03D004228263012011
:103EF80010BD0268436B116821F00E011160116852
:103F080021F001011160D0E90F140122A2404A609A
:103F18004FF48072028413B198470020E8E71846EE
:103F2800E6E7C16B026C036870B40E681D68042470
:103F3800944034420ED015F0040F0BD01A68920644
:103F48005EBF1A6822F004021A60C36A4C6063B349
:103F580070BC184702249440344212D015F0020F66
:103F68000FD01A68950606D41A6822F00A021A6059
:103F7800012380F8213000234C6080F82030836AC8
:103F8800E5E70824944034420FD02C070DD51C686F
:103F980024F00E041C60012303FA02F24A608363D2
:103FA8004FF480730384036BD1E770BC7047000043
:103FB8000B4AD36813F0100305D00A49CB6943F0C4
:103FC8000203CB611023D268520706D50549CA6996
:103FD80042F00102CA6143F00403014AD36070470A
:103FE8000020024048000020064B186910F08000AD
:103FF80007D0054A5A6002F188325A601869C0F33E
:10400800C01070470020024023016745034A136926
:1040180043F0800313610020704700BF0020024076
:1040280070B50546FFF70EF90F4C0646E368D90749
:104038000FD4E3689A0644BF2023E360E368DB06F5
:1040480003D4E06810F0040007D0FFF7B1FF0120A7
:1040580003E0681CEAD00DB9032070BDFFF7F2F841
:10406800801BA842E2D9F7E7002002402DE9F84F6B
:10407800DFF890901E4699F81830012B04460F4639
:1040880090463DD001234CF2503089F81830FFF7A4
:10409800C7FF80BB012C03D0022C0CBF02240424D0
:1040A8000025DFF864A0AB462801C0F12002A0F18A
:1040B800200306FA02F228FA00F0C9F81CB01043EF
:1040C80026FA03F31843DAF8103080B243F00103FC
:1040D800CAF8103027F815004CF25030FFF7A0FF4F
:1040E800DAF8103023F00103CAF8103018B9013596
:1040F800EBB29C42D8D8002389F81830BDE8F88F75
:104108000220FBE74800002000200240064B002266
:10411800DA61064B1A6942F004021A611A6942F020
:1041280040021A61704700BF48000020002002408A
:10413800064B0022DA61064B1A6942F002021A6144
:1041480058611A6942F040021A617047480000201D
:10415800002002402DE9F041DFF8908098F81830EF
:10416800012B05460F463DD0012488F81840036806
:10417800A3424CF2503014D1FFF752FF28B101206E
:10418800002388F81830BDE8F0814CF25030FFF772
:10419800BDFFFFF745FF144A136923F004031361B9
:1041A800EEE7FFF73DFF0028E9D14FF0FF333B6012
:1041B80020466E680C4CD5E9013203EBC223B342AA
:1041C800DED93046FFF7B4FF4CF25030FFF728FF36
:1041D800236923F00203236108B13E60D0E706F5A6
:1041E8000066E8E70220CEE70020024048000020F1
:1041F8002DE9F74FDFF87091594C00230A6832FA1D
:1042080003F502D103B0BDE8F08F012505FA03F8E4
:1042180018EA020200F09C804E68032706F00305A6
:104228004FEA430E07FA0EFC6F1E012F6FEA0C0CC3
:1042380034D8876807EA0C0ACF6807FA0EF747EA06
:104248000A078760476827EA0808C6F300179F40EF
:1042580047EA08074760C76807EA0C088F6807FA43
:104268000EF747EA0807022DC76019D14FEAD308AD
:1042780000EB880803F0070AD8F820704FEA8A0A8A
:104288004FF00F0B0BFA0AFB27EA0B0B0F6907FA23
:104298000AF747EA0B07C8F8207001E0032DDAD1C6
:1042A800076805FA0EF507EA0C072F4316F4403F96
:1042B80007604DD0D9F8185045F00105C9F81850D5
:1042C800D9F8185023F0030707F1804705F00105D6
:1042D80007F58037019503F0030C019DBD684FEA8F
:1042E8008C0C4FF00F0E0EFA0CFEB0F1904F25EA31
:1042F8000E0E2FD01B4DA8422ED005F58065A84282
:104308002CD005F58065A8420CBF0325052505FAC4
:104318000CF545EA0E05BD602568D74316F4803FC5
:104328000CBF3D4015432560656816F4003F0CBF7F
:104338003D4015436560A56816F4801F0CBF3D40DD
:104348001543A560E568B60254BF3D401543E560D6
:10435800013353E70025DAE70125D8E70225D6E738
:104368000004014000040048001002400AB18161C5
:1043780070478162704700002DE9F7430546002821
:1043880035D00368DA0711D42B689B0700F18880C1
:104398002B681C0700F1F8802B68580700F146814C
:1043A800E869002840F0D48100204BE09D4C636808
:1043B80003F00C03042B07D0636803F00C03082BED
:1043C80017D16368DF0314D54FF4003393FAA3F2CF
:1043D800216893FAA3F3B3FA83F303F01F030122CE
:1043E80002FA03F30B42CFD06B68002BCCD101202B
:1043F80028E06A68B2F5803F27D1236843F4803308
:104408002360E36AA96823F00F030B43E36262B3F6
:10441800FEF718FF4FF4003706464FF0010897FAE9
:10442800A7F3226897FAA7F3B3FA83F303F01F03FD
:1044380008FA03F31342A7D1FEF704FF831B642B8A
:10444800EDD9032003B0BDE8F083236832B923F423
:1044580080332360236823F48023D1E7B2F5A02FAB
:10446800F5D143F480232360C7E7FEF7EBFE4FF452
:10447800003706464FF0010897FAA7F3226897FA23
:10448800A7F3B3FA83F303F01F0308FA03F3134205
:104498003FF47AAFFEF7D6FE831B642BECD9D0E746
:1044A800604C636813F00C0F07D0636803F00C03CB
:1044B800082B21D16368DE031ED4022393FAA3F2EA
:1044C800216893FAA3F3B3FA83F303F01F030122DD
:1044D80002FA03F30B4202D02B69934287D1216879
:1044E800F82393FAA3F3B3FA83F26B69934021F0AC
:1044F800F802134323604BE72A6901260AB396FAA8
:10450800A6F3B3FA83F303F1845303F584139B00F2
:104518004FF002081E60FEF795FE074698FAA8F3CA
:10452800226898FAA8F3B3FA83F303F01F0306FA94
:1045380003F31342D3D1FEF785FEC31B022BEDD93B
:104548007FE796FAA6F3B3FA83F303F1845303F5EE
:1045580084139B004FF002081A60FEF773FE0746AB
:1045680098FAA8F3226898FAA8F3B3FA83F303F049
:104578001F0306FA03F313423FF40AAFFEF762FE85
:10458800C31B022BECD95CE7AA69264E26490124F5
:104598001AB394FAA4F3B3FA83F30B449B000227EB
:1045A8001C60FEF74FFE804697FAA7F397FAA7F329
:1045B80097FAA7F3726A97FAA7F3B3FA83F303F0AB
:1045C8001F0304FA03F313427FF4E6AEFEF73AFE44
:1045D800A0EB0803022BE7D933E794FAA4F3B3FA64
:1045E80083F30B449B0002271A60FEF72BFE8046DC
:1045F80097FAA7F397FAA7F397FAA7F3726A97FAC5
:10460800A7F3B3FA83F303F01F0304FA03F3134287
:104618003FF4C2AEFEF716FEA0EB0803022BE7D963
:104628000FE700BF0010024020819010914CE36911
:10463800D90033D4E36943F08053E361E36903F0BD
:1046480080530193019B01268B4F3B68DA0527D5E0
:10465800EB68012B35D1236A43F001032362FEF78F
:10466800F1FD022780464FF0010997FAA7F397FA60
:10467800A7F3002B64D0226A97FAA7F3B3FA83F35F
:1046880003F01F0309FA03F3134250D0002E3FF43E
:1046980087AEE36923F08053E36181E60026D3E720
:1046A8003B6843F480733B60FEF7CCFD80463B6873
:1046B800DB05CDD4FEF7C6FDA0EB08006428F6D9CB
:1046C800BFE633BB236A23F001032362236A23F086
:1046D80004032362FEF7B6FD022780464FF0010966
:1046E80097FAA7F397FAA7F373B3226A97FAA7F38F
:1046F800B3FA83F303F01F0309FA03F31342C5D097
:10470800FEF7A0FD41F28833A0EB08009842E7D9F4
:1047180097E6052B236A03D143F0040323629AE743
:1047280023F001032362236A23F0040396E7FEF7CC
:1047380089FD41F28833A0EB0800984295D980E6BC
:1047480097FAA7F3626A97E797FAA7F3626ACDE741
:10475800484C636803F00C03082B7AD002284FF00A
:10476800807351D193FAA3F3B3FA83F303F184531B
:1047780003F584139B0000221A60FEF763FD4FF0D7
:1047880000780746012698FAA8F3226898FAA8F351
:10479800B3FA83F303F01F0306FA03F313422DD190
:1047A800D5E9081362680B4322F47412134363605B
:1047B8004FF0807393FAA3F3B3FA83F303F18453AE
:1047C80003F584139B0001271E60FEF73BFD4FF0A5
:1047D8000076054696FAA6F3226896FAA6F3B3FA87
:1047E80083F303F01F0307FA03F313427FF4DCADEE
:1047F800FEF728FD401B0228ECD922E6FEF722FD31
:10480800C31B022BBFD91CE693FAA3F3B3FA83F3B5
:1048180003F1845303F584139B0000221A60FEF70A
:1048280011FD4FF000760546012796FAA6F3226897
:1048380096FAA6F3B3FA83F303F01F0307FA03F318
:1048480013423FF4B1ADFEF7FDFC401B0228ECD942
:10485800F7E501283FF4F6AD63682A6A03F480316E
:1048680091427FF4C4AD6A6A03F4701393423FF433
:104878009BADBCE5001002400070004010B5134C21
:10488800616801F00C03082B1ED14FF4701393FAE2
:10489800A3F301F47012B3FA83F322FA03F30C4A78
:1048A800D05CE36A0F2292FAA2F2B2FA82F203F023
:1048B8000F03D340074AD25CCB034ABF064B074BD2
:1048C800B3FBF2F3584310BD0348FCE70010024065
:1048D8005A7A00086A7A000800127A0000093D0036
:1048E8002DE9F0410D46044610B90120BDE8F081DC
:1048F8004C4A136803F007038B422ED322689107B2
:1049080036D4D2073CD4474A136803F00703AB42B6
:1049180074D82268444D12F0040F7BD1130706D5D2
:104928006B68226923F4605343EAC2036B60FFF7A4
:10493800A5FF6B68F02292FAA2F2B2FA82F203F0B3
:10494800F003D340394AD35CD840394B1860394B0F
:104958001868FEF735FC0020C8E7136823F0070342
:104968000B431360136803F007038B42BDD1C5E7FF
:104978002D49A0684B6823F0F00303434B60C0E760
:104988006268294E012A26D14FF4003393FAA3F125
:10499800316893FAA3F3B3FA83F303F01F0302FA1F
:1049A80003F30B42A1D0736823F003031A43726028
:1049B800FEF748FC41F2883807467368626803F0DE
:1049C8000C03B3EB820F9ED0FEF73CFCC01B4045A6
:1049D800F3D903208AE7022A0CBF4FF000730223A1
:1049E80093FAA3F1306893FAA3F3B3FA83F303F0CD
:1049F8001F03012101FA03F30342D3E7136823F0ED
:104A080007032B431360136803F00703AB427FF4DB
:104A18006CAF7EE76B68E16823F4E0630B436B607F
:104A28007CE700BF00200240001002407E7A0008A8
:104A38002000002004000020084B4FF4E0625B686F
:104A480092FAA2F2B2FA82F203F4E063D340044A83
:104A5800D35C044A1068D840704700BF0010024079
:104A68008E7A000820000020084B4FF460525B68E3
:104A780092FAA2F2B2FA82F203F46053D340044AE3
:104A8800D35C044A1068D840704700BF0010024049
:104A98008E7A00082000002003682DE9F743DC0324
:104AA800054620D5504CE369D80046D4E36943F065
:104AB8008053E361E36903F080530193019B01266E
:104AC8004A4F3B68D9053AD5236A13F440734AD153
:104AD800236A6A6823F44073134323621EB1E369AF
:104AE80023F08053E3612B68D80706D53E49A868B0
:104AF8000A6B22F0030202430A63990606D53A4973
:104B0800E8680A6B22F0100202430A631A0606D507
:104B180035492869CA6A22F4F8720243CA6213F452
:104B280080531FBF304A6969136B23F480731DBF1C
:104B38000B4313630020184612E00026C0E73B68C9
:104B480043F480733B60FEF77DFB80463B68DA05E3
:104B5800BAD4FEF777FBA0EB08006428F6D9032047
:104B680003B0BDE8F0836A6802F440729A42AFD09D
:104B7800216A4FF4803321F4407093FAA3F2DFF8EE
:104B880070C0B2FA82F2624492000127176093FA69
:104B9800A3F3B3FA83F363449B0000221A60CB07A4
:104BA800206295D5FEF74EFB4FF00208814698FA31
:104BB800A8F398FAA8F39BB1226A98FAA8F3B3FA73
:104BC80083F303F01F0307FA03F3134280D1FEF7C0
:104BD80039FB41F28833A0EB09009842E7D9BEE7D8
:104BE80098FAA8F3626AE8E70010024000700040F3
:104BF80000819010214A0368904210B505D0B0F1A9
:104C0800804F02D01E4CA0420CD14C6823F0700398
:104C1800904243EA040310D0B0F1804F0DD0184AF7
:104C280090420AD0174A904207D002F5806290421B
:104C380003D002F58062904203D1CA6823F440731E
:104C480013434A6923F08003134303608B68C362EC
:104C58000B688362094B98420BD003F5A053984226
:104C680007D003F58063984203D003F58063984228
:104C780001D10B6903630123436110BD002C01407E
:104C8800000400400040014010B5044650B390F8BD
:104C98003D3003F0FF021BB980F83C2002F09EFD76
:104CA8000223206884F83D30211DFFF7A3FF01236C
:104CB80084F84830002084F83E3084F83F3084F887
:104CC800403084F8413084F8423084F8433084F826
:104CD800443084F8453084F8463084F8473084F806
:104CE8003D3010BD0120FCE710B58468114324F461
:104CF8007F4441EA03232343836010BD70B590F8D5
:104D08003C30012B04464FF0020300F08F80012253
:104D180080F83D3080F83C200068454B85682B4082
:104D280083600B68602B52D033D8402B67D016D8DD
:104D3800202B0DD00AD833F0100109D0012384F8B4
:104D48003D30002384F83C30104670BD302BF5D13F
:104D5800826822F07002134343F0070317E0502BD8
:104D6800ECD14A68CE68016A056A25F0010505623A
:104D7800836921F00A0123F0F00343EA06130A438A
:104D880083610262836823F0700343F057038360F2
:104D980011E0B3F5805F0ED0B3F5005F0DD0702B36
:104DA800CCD1CB68D1E90121FFF79EFF2268936837
:104DB80043F0770393600022C0E7CB68D1E9012173
:104DC800FFF792FF2268936843F48043F2E74D6847
:104DD800CE68016A21F0100101628269036A22F437
:104DE800704223F0A00343EA051342EA06328261C7
:104DF8000362836823F0700343F06703C7E74A68D8
:104E0800CE68016A056A25F001050562836921F00B
:104E18000A0123F0F00343EA06130A43836102629E
:104E2800836823F0700343F04703B0E71A468BE723
:104E38008800FEFF70B590F83C30012B4FF002035C
:104E480027D080F83D30144D03685A689C68AB42FF
:104E580002BF4E6822F4700232430E6822F07002DC
:104E68003243AB425A6009D0B3F1804F06D00B4AA7
:104E7800934203D002F59E32934204D1896824F00C
:104E880080020A439A60012380F83D30002380F8AD
:104E98003C30184670BD00BF002C014000040040A3
:104EA800026852E8003F23F4907342E80031026838
:104EB8000029F5D102F1080353E8003F23F001036C
:104EC80002F1080C4CE800310029F3D1036E012BE4
:104ED80007D152E8003F23F0100342E800310029CF
:104EE800F7D12023C367002303664366704702682F
:104EF80052E8003F23F0800342E8003102680029AD
:104F0800F5D152E8003F43F0400342E80031002960
:104F1800F7D17047826F212A034611D1B0F8522089
:104F280092B20AB9FFF7E3BFC26C016812F8010B2D
:104F38000885DA64B3F85220013A92B2A3F85220F5
:104F48007047826F212A034613D1B0F8522092B2DB
:104F58000AB9FFF7CCBFDA6C006832F8021BC1F35C
:104F680008010185DA64B3F85220013A92B2A3F835
:104F780052207047836F202B2CD149B342B390F84D
:104F88007430012B26D00023A0F85220C0F88030BE
:104F9800212383678368C164B3F5805FA0F850203C
:104FA80014D101690C4B0D4A002908BF13468366CA
:104FB800002380F87430016851E8002F42F0800225
:104FC80041E80023002BF6D118467047024BEEE764
:104FD80001207047022070471D4F00084B4F000802
:104FE800704708B5406A0023A0F85A30A0F852303C
:104FF800FFF7F6FF08BD70470368DA69196870B5EE
:1050080040F60F0632429D6804460BD1960640F1E1
:1050180088808E0640F18580436E002B7BD0BDE8EA
:1050280070401847954E05F001000E40064378D0B1
:10503800D50709D5CE0507D501251D62D4F88050BE
:1050480045F00105C4F88050950708D538B1022508
:105058001D62D4F8805045F00405C4F88050560706
:1050680008D538B104251D62D4F8805045F00205F2
:10507800C4F8805015070BD501F02005284307D048
:1050880008201862D4F8800040F00800C4F88000B6
:1050980016050AD54D0108D54FF400601862D4F8FA
:1050A800803043F02003C4F88030D4F88030002BDF
:1050B80031D0900605D58A0603D5636E0BB120461C
:1050C80098472368D4F880509B6805F0280503F0BA
:1050D80040031D4320461FD0FFF7E2FE2268936875
:1050E8005B0615D502F1080353E8003F23F040039F
:1050F80002F1080040E800310029F3D1206F38B1EF
:105108005F4B4363FEF7ECFE28B1206F436B86E7E5
:105118002046FFF765FF70BDFFF762FFC4F88050B7
:10512800F9E7206E01287ED1D6067CD5C8067AD547
:1051380010221A629A68520646D5216F0A68526888
:1051480092B2002AE7D0B4F858009042E3D9A4F804
:105158005A208A69202A2DD053E8002F22F4807221
:1051680043E800210029F7D103F1080252E8002F93
:1051780022F0010203F1080040E800210029F3D1E0
:1051880003F1080252E8002F22F0400203F1080060
:1051980040E800210029F3D12022E267216653E884
:1051A800002F22F0100243E800210029F7D1206FD8
:1051B800FEF778FEB4F85A30B4F85810C91A89B214
:1051C8002046FFF718FFA6E7B4F85A108AB2B4F8D9
:1051D8005A1089B200299ED0B4F85810891A89B299
:1051E800002998D053E8002F22F4907243E8002059
:1051F8000028F7D103F1080252E8002F22F001023B
:1052080003F1080545E800200028F3D12022E267D1
:105218006066206653E8002F22F0100243E8002061
:105228000028F7D1CCE7D60209D5680207D54FF494
:10523800801220461A62BDE8704000F0E6BA1606F1
:1052480007D50D0605D5A36E002B3FF464AF2046A5
:10525800E5E650067FF55FAF4A067FF55CAF53E899
:10526800002F22F0400243E800210029F7D1202333
:10527800A367A166204600F0BBFF4CE720010004AD
:10528800EB4F0008C26F222A08B5036844D19B8CF3
:10529800B0F85C10426D0B401370436D01334365E9
:1052A800B0F85A30013B9BB2A0F85A30B0F85A30E7
:1052B8009BB26BBB026852E8003F23F4907342E84C
:1052C800003103680029F5D103F1080252E8002FE4
:1052D80022F0010203F1080C4CE800210029F3D167
:1052E8002022C267026E4166012A12D1016653E884
:1052F800002F22F0100243E800210029F7D1DA69D3
:10530800B0F85810D20644BF10221A62FFF773FE95
:1053180008BD01F047FCFBE79A6942F008029A6170
:10532800F6E7C26F222A08B5036841D1998CB0F814
:105338005C201140426D22F8021B4265B0F85A20E9
:10534800013A92B2A0F85A20B0F85A2092B25ABB49
:1053580053E8002F22F4907243E800210029F7D186
:1053680003F1080252E8002F22F0010203F1080CB1
:105378004CE800210029F3D12022C267026E416661
:10538800012A12D1016653E8002F22F0100243E8E7
:1053980000210029F7D1DA69B0F85810D20644BFC5
:1053A80010221A62FFF727FE08BD01F0FBFBFBE79E
:1053B8009A6942F008029A61F6E7000038B5044697
:1053C800C0692169A26823680A4361691D680A43A4
:1053D8004149024329400A431A605A68E168256A2C
:1053E80022F440520A435A609968A26921F4306154
:1053F8002A430A439A60394A934214D1384B1B6BAB
:1054080003F00303013B022B14D8364AB0F5004FD2
:10541800D35C37D1082B5CD8DFE803F00F171D5B8E
:105428001A5B5B5B1E00304A934203D002F5806230
:1054380093424ED1B0F5004F3ED1FFF7FDFA58B96F
:1054480000200023C4E9193338BDFFF70DFBF6E748
:10545800FFF714FAF3E725486268530803EB4000A6
:10546800B0FBF2F083B2A3F110014FF6EF72914254
:105478002FD820F00F00226880B2C3F342031843EC
:10548800D060DDE7082B24D8DFE803F0161B2123C2
:105498001E23232305004FF40040626800EB5203EB
:1054A800B3FBF2F39BB2A3F110014FF6EF729142F6
:1054B8000FD82268D360C3E7FFF7BEFA0028BFD031
:1054C800EBE7FFF7D1FAF9E7FFF7D8F9F6E707486E
:1054D800E3E70120B5E700BFF369FFEF00380140BB
:1054E800001002407A7A00080044004000127A0056
:1054F800436ADA0710B506D50168846A4A6822F457
:10550800003222434A609C0706D50168C46A4A688B
:1055180022F4803222434A60590706D50168046B99
:105528004A6822F4802222434A601A0706D5016895
:10553800446B4A6822F4004222434A60DC0606D5DE
:105548000168846B8A6822F4805222438A60990633
:1055580006D50168C46B8A6822F4005222438A6027
:105568005A060FD50168046C4A6822F48012224357
:10557800B4F5801F4A6005D14A68446C22F4C00221
:1055880022434A601B0606D50268816C536823F4DF
:1055980000230B43536010BD2DE9F041DDF818805E
:1055A80004460E4615461F462268D36936EA0303A9
:1055B8000CBF01230023AB4201D0002025E0B8F145
:1055C800FF3FF2D0FDF73EFEC01B4045206802D8E1
:1055D800B8F1000F1BD150E8003F23F4D07340E826
:1055E8000032002AF7D100F1080353E8003F23F006
:1055F800010300F1080141E80032002AF3D1202319
:10560800A367E36784F874200320BDE8F08103688A
:105618005A07C9D5C3691B05C6D54FF40063036291
:1056280050E8003F23F4D07340E80032002AF7D155
:1056380000F1080353E8003F23F0010300F10801DB
:1056480041E80032002AF3D12023A367E367C4F8B6
:105658008030D7E730B50446002585B0C0F88050C3
:10566800FDF7F0FD226812681107034615D4226879
:105678001268520709D56FF07E4200924FF48001FC
:1056880000222046FFF788FFA0B920230020A36747
:1056980084F87400E36720660DE06FF07E420092A4
:1056A80003902A464FF400112046FFF775FF039B2D
:1056B8000028DCD0032005B030BD10B5044640B347
:1056C800836F1BB980F8743002F0E4F82268242351
:1056D800A367136823F0010313602046FFF76EFEEB
:1056E800012816D0636A13B12046FFF701FF23682B
:1056F8005A6822F490425A609A6822F02A029A6004
:105708001A6842F0010220461A60BDE81040FFF70F
:10571800A1BF012010BD0000836810B5B3F5805FFC
:10572800A0F85820A0F85A204FF0000241654266C0
:1057380030D1036963BB40F2FF13A0F85C3000234B
:10574800C0F880302223C367026802F1080353E8D7
:10575800003F43F00103083242E8003102680029A3
:10576800F2D18368B3F5805F25D10469134B1449DE
:10577800002C08BF0B464366002380F8743052E8BB
:10578800003F43F4907342E800300028F7D110BD81
:10579800FF23D2E723B90369002BF9D07F23CCE795
:1057A800B3F1805F04D10369002BF7D03F23C4E72E
:1057B800A0F85C20C3E7014BDDE700BF8D5200086D
:1057C8002B530008C36F202B30B41CD1C1B1BAB120
:1057D80090F87430012B16D0012380F874300468D7
:1057E8000023036663681B0207D554E8003F43F0B3
:1057F800806344E80035002DF7D130BCFFF78CBF3B
:10580800012030BC70470220FBE7704710B5002428
:105818008AB01822214604A8CDE90144039402F075
:10582800FDF821480123836280F8303003610823A2
:10583800022243614FF48073C26103834FF0A04298
:10584800C0E90024C0E9024480F82040C4624463EF
:10585800FDF7B2FD08B101F0CFFE1348019401A98C
:10586800FEF7E4F908B101F0C7FE0B210123CDE9E9
:105878000413042200230C4804A9CDE90623CDE92A
:105888000833FEF75BF808B101F0B6FE0C220223DC
:10589800054804A9CDE90423FEF750F808B101F042
:1058A800ABFE0AB010BD00BF6C00002030B587B059
:1058B80018220021684602F0B1F821480322C2618B
:1058C800204A0023C0E90023082242614FF4807275
:1058D80001240283C0E9023380F82030C362846265
:1058E80080F8304004614363FDF766FD08B101F0BC
:1058F80083FE00230225042211486946CDE900549D
:10590800CDE90223CDE90433FEF718F808B101F018
:1059180073FE0E230A486946CDE90035FEF70EF8F6
:1059280008B101F069FE0F22032305486946CDE955
:105938000023FEF703F808B101F05EFE07B030BDA2
:10594800BC00002000010050F0B514228BB00546C1
:1059580000210DEB020002F061F82B68B3F1A04FB3
:1059680042D1454A13680133012B1360434B08D1D8
:105978005A6942F080525A615A6902F08052009284
:10598800009A5A693E4C3F4842F480225A615B694A
:1059980003F480230193019B05A90323CDE9053373
:1059A800FEF726FC4FF48072374980200023C4E9B3
:1059B80003024FF480662022C4E90013C4E905629B
:1059C800A360E3612046FEF703FA08B101F014FE74
:1059D8000022AC63122065621146FEF7A1F912207D
:1059E800FEF7D0F90BB0F0BD284A9342FAD1224A0B
:1059F80013680133012B1360204B08D15A6942F018
:105A080080525A615A6902F080520292029A5A6987
:105A180042F400325A615A6902F400320392039A3E
:105A28005A6942F480225A615B6903F48023032493
:105A38000493202705A94FF090400026CDE905746E
:105A4800049BFEF7D5FB4FF440430E48079605A983
:105A5800CDE90534FEF7CCFB0D4C0E4BA660C4E92E
:105A6800003680224FF48073C4E903234FF4806327
:105A7800C4E90537E661A5E7680000200010024088
:105A88000C010020000400480800024000010050FA
:105A9800500100201C0002400E4B07B55A6942F025
:105AA80001025A615B69002203F001031146019368
:105AB8000B20019BFEF734F90B20FEF763F9002257
:105AC80011460C20FEF72CF90C2003B05DF804EB0E
:105AD800FEF758B900100240F0B514228BB00DEB58
:105AE8000200002101F09AFF424B434D5A69434E90
:105AF80042F400225A615A6902F400220192019A82
:105B08005A6942F480025A615A6902F48002029288
:105B1800029A5A6942F400325A615A6902F4003210
:105B28000392039A5A6942F480225A615B6903F42A
:105B380080230493284600224FF40051049BFEF76B
:105B480015FC284601224FF48041FEF70FFC012284
:105B580011464FF09040FEF709FC002241F6C211B1
:105B68004FF09040FEF702FC0022304643F270618D
:105B7800FEF7FCFB002401274FF4C04305A9284683
:105B8800CDE90537CDE90744FEF732FB4FF4004372
:105B980005A92846CDE905340794FEF729FB41F607
:105BA800C31305A94FF09040CDE90537CDE9074467
:105BB800FEF71EFB48F2100305A94FF09040CDE90F
:105BC80005340794FEF714FB40F6040305A9304694
:105BD800CDE905340794FEF70BFB43F2706305A982
:105BE8003046CDE90537CDE90744FEF701FB0BB098
:105BF800F0BD00BF00100240000800480004004843
:105C0800034B5A7902F0FF000AB100225A7170471B
:105C18009401002010B5044C013004EBC00461600D
:105C2800FDF710FBA06010BD9401002010B50446DC
:105C3800FDF708FB074B013403EBC404A368616854
:105C480083428ABFDA43C31A13188B4234BF002039
:105C5800012010BD9401002070B50D4A92F82D5016
:105C680092F82E3000212B44A2F82E3102F12F0495
:105C78000846CEB2B54206D914F8010B03449BB2CC
:105C880001310120F5E708B1A2F82E3170BD00BF3F
:105C98009401002081EA10210902082341F221021F
:105CA80011F4004F03F1FF334FEA410118BF51408F
:105CB80013F0FF0389B2F3D181EA002080B2704764
:105CC80090F8382030B5531C3224B3FBF4F504FBAC
:105CD800153390F83740A3421EBF1218517180F84F
:105CE800383030BDF0B590F8294090F82850631B43
:105CF80048BF28330B44262B24DC631C2826B3FB1F
:105D0800F6FC06FB1C339D42CFB218BF07554FF077
:105D1800280618BF80F829300024A14212DD90F827
:105D280029707B1CB3FBF6FC06FB1C339D421CBF91
:105D380012F804C000F807C004F1010418BF80F885
:105D48002930EAE7F0BD38B590F8371090F83850A8
:105D5800A942044617D04FF0904238BF6D1A537DC0
:105D680028BFC1F1320543F01003053153750144D2
:105D7800AAB20068FFF7FEF894F877302B4484F84D
:105D8800773000B9E56338BDF8B590F87730044648
:105D980013B1002380F87730206894F83850B0F8B1
:105DA8005070002332229F4294F837100ADDA9422E
:105DB80021D00131B1FBF2F602FB161184F837103D
:105DC8000133F0E7A94216D04FF0904238BF6D1A60
:105DD800537D28BFC1F1320543F0100305315375D7
:105DE8002144AAB2FFF7C6F894F877302B4484F818
:105DF800773000B9E56394F8771059B994F83720EB
:105E080094F838309A4201BF4FF09042537D61F3C5
:105E180004135375F8BDFF234375837570470288D3
:105E280002F5803230B5D2024FF6FF7540F2FE74AB
:105E3800836899B2895A89B2A94203D00233A3422E
:105E48008360F5DD30BDF8B50446FFF7E4FF208830
:105E5800002300F58030A360C0024FF6FF760127CB
:105E680040F2FE75A1688BB21A5A92B2B24203D1BF
:105E78002046FFF7D4FFF8BD13B20231002BA16012
:105E880017DD130A15D0013B9BB2072B11D807FA6F
:105E980003FE2344D2B293F80DC094451FBF94F873
:105EA80015C05A734CEA0E026275637D23EA0E032D
:105EB8006375A942D6DDDBE72DE9F043002585B0FF
:105EC8000446012740F2FE782E46637D07FA05F95D
:105ED80013EA090F2BD0A268424535DC238803F565
:105EE800803392B2DB029B5A4FF6FF729BB2934209
:105EF80023D1FEF779F86B1CDAB2631921885B7B32
:105F0800208943EA022301F580311AB200EBC1214E
:105F180043F3C0330120FEF7A9F8FEF777F82046CF
:105F2800FFF77DFF637D23EA090984F815900135A1
:105F3800082DCAD105B0BDE8F083A6602046FFF75A
:105F48006EFFA3684345D4DDFEF74EF82388039718
:105F580003F58033DB02694601A8CDE901630096A9
:105F6800FEF7F8F8FEF752F8A6602046FFF753FF51
:105F78000025DCE730B597B0202200210DA801F0FC
:105F88004DFD1422002101A801F048FD182200212E
:105F98000DEB020001F042FD01221023CDE9102390
:105FA80002254FF460130CA815930C951395FEF772
:105FB800E3F90F230024CDE9013529464FF4806326
:105FC80001A8CDE903430594FEF78AFC41F2810359
:105FD800069306A84FF4C073CDE90A340894FEF777
:105FE8005BFD17B030BD0000064A10B51388064C9B
:105FF800E0540648C15401339BB2632B88BF002389
:10600800138010BD340B0020D00A0020360B00206E
:106018000A4B00229A70C3E903221A71C3E90522C8
:106028005A71C3E907229A71C3E90922DA711A7011
:106038005A7083F84D2883F84C2870479401002043
:106048000E4B93F84D1893F84C28914213D093F8BF
:106058004D08421CD2B283F84D284FF4827202FBDD
:10606800003093F84D28062A00F50D7004D100225F
:1060780083F84D2870470020704700BF9401002026
:1060880070B5144E4FF48041FFF7C2FF304600222E
:10609800FEF76CF940F2DC50FDF7DAF801224FF414
:1060A80080413046FEF762F96625FFF7C9FF0446CE
:1060B8006420FDF7CDF8013D05D0002CF5D0A3787C
:1060C8003E2BF2D170BD002CDCD0A3783E2BD9D169
:1060D800F8E700BF0008004870B5414C414DE2792F
:1060E8002B7862B1062B6FD03F4B227AD86A1946BB
:1060F80001F8312F0122FEF73DFF062312E0062B9F
:1061080011D8DFE803F00411232F4E576100364BF6
:1061180094F82C20D86A194601F8312F0122FEF78D
:1061280029FF01232B7070BD012211464FF09040CA
:10613800FEF71CF92C4B94F82D20D86A194601F863
:10614800312F0122FEF716FF0223EBE7264B94F8C6
:106158002E20D86A194601F8312F0122FEF70AFFCE
:106168000323DFE7214E94F82D1033781E4A994215
:10617800D06A02F1310108D1B4F82E3182F83130F9
:106188000122FEF7F7FE0523CCE75D1C234435709A
:1061980093F82F3082F83130BDE870400122FEF7C5
:1061A800E9BE114BB4F82E21D86A194601F8312FEF
:1061B8000122E6E70C48B4F82E3101461B0A01F823
:1061C800313FC06A012296E7E27900232AB9012209
:1061D800A271064A2B701370A5E7E371F9E700BFB7
:1061E80094010020E6090020AC0B0020E5090020FE
:1061F80010B5044607480368A34201D1FFF7C4FD60
:10620800054BDB6AA34203D1BDE81040FFF764BF2A
:1062180010BD00BFF4090020AC0B002070B5044687
:106228000020FFF703FD714E08B100233370357865
:1062380020462946FFF7D8FE4DB1012D3FD0AB1EB1
:10624800042B57D8DFE803F04258839AA500152C91
:10625800674B09D012D8032C04D8012C1CD8002273
:106268005A7009E0062CFAD11A7802F0FF018AB1B7
:1062780001229A70DC7000221A700CE03F2CEED1DB
:106288005A7802F0FF01C2B10A212846FFF7C2FC82
:10629800012310E0597070BD93F84C2883F8304101
:1062A8004FF4827101FB0233284683F834420A21F5
:1062B800FFF7B0FC02233370EDE71970EBE74C4BA6
:1062C80000225C7232701D715A70E4E7494B1C70F1
:1062D800474B93F84C2883F831414FF4827101FB06
:1062E8000233002083F83542434B0A211C80FFF714
:1062F80091FC03253570CEE73E2C404B404D05D030
:10630800262C03D004F0F302522A1CD101221A7061
:10631800374B93F84C284FF4827101FB023303F595
:106328000D732B602B689C70334B188804441C80B9
:10633800344B00200A211870FFF76CFC2B685B783F
:10634800D3B90525D6E700221A702F4BE9E72D4D62
:106358002B4B2A781B681344511CDC70264B297080
:1063680018880A21044400201C80FFF753FC214BA5
:106378002A781B789A42E4D00425BBE7204B1B6897
:10638800A4B2A3F802410A210020FFF743FC062526
:10639800B0E71B4B1A68164BB2F8020180B240EA0C
:1063A80004240121A2F802411348D971B2F802214C
:1063B800008892B2904217D1104A127832B95971B6
:1063C80006221A72FFF788FE002593E793F84C28F7
:1063D8000132D2B283F84C2893F84C28062A04BF1D
:1063E800002283F84C28EBE71522EAE7E4090020AD
:1063F80094010020EE090020F0090020EC0900209B
:10640800E8090020ED090020C4020020F8B53E4C40
:106418002378032B22D8DFE803F0021249533B4BC1
:10642800002201214FF090409A711A71FDF79EFFEA
:10643800C8210220FFF7EEFB012323700EE0344D44
:10644800324E2B781BB10123737000232B7002206E
:10645800FFF7ECFB0746D8B9337913B94FF0FF3093
:106468000EE0737A13F0060F0BD001224FF0904024
:106478001146FDF77BFF27706FF00C0001232B708E
:10648800F8BD02232370FFF727FE4FF0FF30F5E732
:1064980001224FF090401146FDF768FF002323705A
:1064A800737001232B706FF00A00E9E7174B9B7993
:1064B800002BD3D028210120FFF7ACFB0323BCE736
:1064C800134E124D33781BB101232B700023337008
:1064D8000120FFF7ABFB034670B9AA78002ABDD0AC
:1064E800A870EA782370062A4FF001030CBF002039
:1064F8006FF009003370C3E7002323702B7001236A
:1065080033706FF00B00BBE7E7090020940100200F
:1065180008000020F22A70B514461E463BD8224DCA
:10652800022385F82C300134502385F82F0005F11B
:10653800300085F82E3085F82D4001F061FAFFF71C
:106548008BFBFFF763FF431C0446FAD0B0B94FF446
:106558007A610320FFF75EFBFFF752FB20B90320A7
:10656800FFF764FB0028F7D00320FFF75FFBA8B90B
:1065780095F83231532B03D195F83341204670BD3D
:10658800512B0ED1002EF9D0D5F833313360074B9B
:106598001B793371F2E76FF00504EFE76FF003043E
:1065A800ECE76FF00104E9E794010020C70200203E
:1065B80038B51C4D022385F82C30082385F82E3079
:1065C80085F82F00531C05F1300085F82D3001F0B7
:1065D80017FAFFF741FBFFF719FF431C0446FAD0EF
:1065E800B0B94FF47A610320FFF714FBFFF708FBFB
:1065F80020B90320FFF71AFB0028F7D00320FFF784
:1066080015FB60B995F832310B2B03D195F833415E
:10661800204638BD092B18BF6FF00104F8E76FF06A
:106628000304F5E79401002010B50446FFF728FDA0
:106638006420FCF70DFE094901220020FFF7B8FF8E
:106648000A20FCF705FE04F14F010E220120FFF796
:10665800AFFFBDE810400A20FCF7FABD7D7A0008BC
:1066680007B556238DF8051004488DF8043001AAA3
:106678000221FFF737FB03B05DF804FBAC0B0020E9
:10668800B0F851204EF2E0139A420FD1084B90F81F
:106698004E2093F87410914208D190F84D2093F849
:1066A80075309A4202D10348FFF7DABF704700BF3E
:1066B800F4090020AC0B002007B553238DF8051012
:1066C8008DF8062004488DF8043001AA0321FFF74D
:1066D80009FB03B05DF804FBAC0B00202DE9F74F74
:1066E800B0F851204EF2E0139A42804640F0B9804B
:1066F800644B90F84F1093F8744090F84D2090F840
:106708004E50A14240F0B080A54240F0AA8093F8D4
:106718007530934240F0A5805B4B197A5B7A0F1E67
:1067280018BF01270BB147F00407584901924B7B6A
:1067380000934B7F0E7991F80CB091F825A091F851
:10674800249007EE903A0B7F07EE103A91F8353017
:1067580006EE903A91F8343000205A2106EE103AAD
:10676800FFF798FA019A1146FFF794FA2946FFF7BE
:1067780091FA2146FFF78EFAC321FFF78BFA0C2115
:10678800FFF788FA0121FFF785FA3946FFF782FA01
:106798003146FFF77FFA3146FFF77CFA009B19462E
:1067A800FFF778FA5946FFF775FA5146FFF772FA7C
:1067B8004946FFF76FFA17EE901AFFF76BFA17EED4
:1067C800101AFFF767FA16EE901AFFF763FA16EE3B
:1067D800101AFFF75FFA5A2105464046FFF770FA8C
:1067E800284A92F87510FFF76BFA2146FFF768FA06
:1067F800FFF766FAC321FFF763FA0C21FFF760FA87
:10680800C5F30721FFF75CFAE9B2FFF759FA01214E
:10681800FFF756FA3946FFF753FA3146FFF750FAB1
:10682800FFF74EFA009B1946FFF74AFA5946FFF759
:1068380047FA5146FFF744FA4946FFF741FA17EE7F
:10684800901AFFF73DFA17EE101AFFF739FA16EE0D
:10685800901AFFF735FA16EE101AFFF731FAFFF71C
:1068680072FA03B0BDE8F08FA542FAD193F87530FB
:106878009342F6D106482A4603B0BDE8F04FFFF729
:106888001BBF00BFF40900209C0B00206C0A0020ED
:10689800AC0B002007B555238DF805108DF80620A0
:1068A80004488DF8043001AA0321FFF71BFA03B04E
:1068B8005DF804FBAC0B002030B4B0F851204EF268
:1068C800E0139A422BD1174B90F84F1090F84D4097
:1068D80090F84E5090F8532093F87400814214D1E8
:1068E8008D421CD193F87510A14218D183F87420F9
:1068F8000D4B0D48597B91421FBF5A735A7D42F088
:1069080001025A7530BCFFF7D7BA854207D193F810
:106918007530A34203D130BC0448FFF7BBBF30BC7D
:10692800704700BFF4090020B80A0020AC0B002013
:1069380007B554238DF805108DF8062004488DF806
:10694800043001AA0321FFF7CDF903B05DF804FB79
:10695800AC0B002030B4B0F851204EF2E0139A424C
:106968002CD1204B90F84F1090F84D4090F84E5095
:1069780090F8532093F87400814228D18D421DD19C
:1069880093F87530A34219D1174B02F00400C2F3F3
:10699800800402F001021A724FF0904182B10A7D20
:1069A80042F040020A7532221E21C3E900125C72CD
:1069B8000E4B5A7D40B142F010025A7530BC7047F8
:1069C8000A7D42F08002EDE742F02002F5E78542B9
:1069D800F4D193F87530A342F0D130BC0448FFF7E6
:1069E800A7BF00BFF40900209C0B0020000400484A
:1069F800AC0B002007B557238DF8051004488DF817
:106A0800043001AA0221FFF76DF903B05DF804FB19
:106A1800AC0B0020B0F84F204EF2E0139A420BD195
:106A2800064B90F84D2093F874309A4204D190F8B0
:106A38004E100348FFF7DEBF704700BFF40900207F
:106A4800AC0B0020554A10B5136804465448C1548D
:106A58000133632BC8BF002313600023226C2C2A48
:106A680000F29A80DFE802F0171C2024283C4044FA
:106A780098984E52565A98989898989862666A6E5E
:106A880098989898989874787C98989898989898DE
:106A980082868A8E9200A52931D10123236410BDF4
:106AA80084F84D100223F9E784F84E100323F5E724
:106AB80084F84F100423F1E7C32901D10523EDE73A
:106AC800C42901D10A23E9E7C52901D11423E5E73F
:106AD800C62901D11E23E1E7C7295DD12823DDE7B7
:106AE80084F850100623D9E784F851100723D5E716
:106AF80084F852102046FFF7F1FD00232364142385
:106B08006364CCE784F850100B23C7E784F851106E
:106B18000C23C3E784F852100D23BFE70E2384F833
:106B2800531023642046FFF715FFE6E784F850105A
:106B38001523B3E784F851101623AFE784F85210F1
:106B48001723ABE784F853102046FFF7B5FED4E7C8
:106B580084F850101F23A1E784F8511020239DE7E3
:106B680084F852102046FFF78BFDC6E784F85010D2
:106B7800292393E784F851102A238FE784F85210C9
:106B88002B238BE784F853102C2387E7FF29B4D1F4
:106B98002046FFF73FFFB0E723645FE7800C002043
:106BA8001C0C002038B51C4C2368834205461DD1B7
:106BB8004FF090435B7DDB0604D494F84A102046DE
:106BC800FFF740FF94F8773003BB94F8371094F838
:106BD8003820914205D14FF090414A7D63F3041269
:106BE8004A750E4920680122FEF7ECFD0C4CE36A59
:106BF800AB420FD194F83000FFF710FBE06A04F1C4
:106C080030010122BDE83840FEF7DCBD013B84F8C5
:106C18007730E6E738BD00BFF40900203E0A0020BF
:106C2800AC0B00202DE9FF41294B93F874404B78B9
:106C3800A3424AD1274B1A7A5B7A003A18BF01223D
:106C48000BB142F00402244BDFF894808DF8052044
:106C580093F90D208DF80820012093F9252091F84B
:106C680002E08DF80A20197993F91D2088F80900A7
:106C78004FF02308B3F90CC0B3F92470B3F91C60C2
:106C8800B3F934508DF8008093F935308DF804004D
:106C98004FF0C3088DF806108DF807108DF80C20FA
:106CA8000E488DF801806A4610218DF802E08DF8B3
:106CB80003408DF809C08DF80B708DF80D608DF8C4
:106CC8000E308DF80F50FFF70DF804B0BDE8F081D5
:106CD800F40900209C0B00206C0A0020AC0B00205B
:106CE8000C0C002010B5144B93F874204B789A4282
:106CF8001AD18B78114A03F00400C3F3800403F01F
:106D0800010313724FF090417BB10B7D43F04003B8
:106D18000B7532231E21C2E90013094B54725A7DA8
:106D280038B142F010025A7510BD0B7D43F0800354
:106D3800EEE742F02002F6E7F40900209C0B002061
:106D4800000400480A4B4A7893F8740090420ED128
:106D58008A7883F87420074B0648597B91421FBFF5
:106D68005A735A7D42F001025A75FFF7A5B8704769
:106D7800F4090020B80A0020094B5B7A7BB9094B5B
:106D88004A7883F87420084B0748597B91421FBF03
:106D98005A735A7D42F001025A75FFF78DB8704751
:106DA8000C0C0020F4090020B80A00200B4B5B7A79
:106DB80007B583B90A4A0B48CC2382F874304A785D
:106DC8008DF8062024218DF8041001AA03218DF8DE
:106DD8000530FEF787FF03B05DF804FB0C0C0020BC
:106DE800F4090020AC0B00202DE9F74F5A4A8B78A4
:106DF80092F874509D4240F0AC804B780093CB7869
:106E080091F804B091F805A091F8069091F80780E0
:106E18004C7B8F7BCE7B07EE903A0B7A07EE103ACD
:106E28004B7A06EE903A8B7A06EE103ACB7A05EE5C
:106E3800903A0B7B00205A2105EE103AFEF72AFF04
:106E4800454A92F87510FEF725FF2946FEF722FFFE
:106E580017EE901AFEF71EFF009B01931946FEF7E6
:106E680019FF0C21FEF716FF5946FEF713FF51468E
:106E7800FEF710FF4946FEF70DFF4146FEF70AFFF1
:106E880017EE101AFEF706FF16EE901AFEF702FF2D
:106E980016EE101AFEF7FEFE15EE901AFEF7FAFE31
:106EA80015EE101AFEF7F6FE2146FEF7F3FE3946F8
:106EB800FEF7F0FE3146FEF7EDFE274A0090104639
:106EC8005A21FEF7FDFE90F87510FEF7F9FE2946E7
:106ED800FEF7F6FE17EE901AFEF7F2FE019B194632
:106EE800FEF7EEFE0C21FEF7EBFE009BC3F3072135
:106EF800FEF7E6FE9DF80010FEF7E2FE5946FEF7A3
:106F0800DFFE5146FEF7DCFE4946FEF7D9FE414654
:106F1800FEF7D6FE17EE101AFEF7D2FE16EE901AFE
:106F2800FEF7CEFE16EE101AFEF7CAFE15EE901A00
:106F3800FEF7C6FE15EE101AFEF7C2FE2146FEF752
:106F4800BFFE3946FEF7BCFE3146FEF7B9FEFEF736
:106F5800FAFE03B0BDE8F08FF409002038B50F48F9
:106F68004C788D785A21FEF7ABFE90F87510FEF735
:106F7800A7FE2946FEF7A4FE2146FEF7A1FEC6217C
:106F8800FEF79EFE0021FEF79BFEE021FEF798FE2D
:106F9800E121FEF795FEFEF7D6FE38BDF409002084
:106FA8002DE9F0410446FFF74BF8206420B103783F
:106FB800032B31D10023236494F8283094F8295006
:106FC8009D4258D0E91AE25C48BF28318A424DDC1C
:106FD8000133282604F14400B3FBF6F16FF0430CAB
:106FE80006FB113384F828300146ACEB040C0CEB9B
:106FF80000039A4241DD94F828309D421BBFE75CAC
:1070080001330027B3FBF6FE1CBF06FB1E3384F8D2
:10701800283000F8017BEAE7C379572B00F1070114
:10702800CAD8522B07D8232B0DD0242BC4D12046E5
:10703800FFF794FFC0E7543B2046032B07D8DFE84F
:1070480003F0090C0F122046FFF7CEFEB4E7FFF756
:10705800E9FDB1E7FFF746FEAEE7FFF773FEABE7E2
:10706800FFF7A4FEA8E7FFF787FEA5E7002384F84B
:10707800283084F82930BDE8F081BDE8F0410023CC
:107088004420FFF747BA000008B50649064803221E
:10709800FCF788FABDE80840044905480222FCF7D5
:1070A80081BA00BFAE0A0020BC000020A40A00205C
:1070B8006C0000202649036970B5B1F90040C4810D
:1070C8001C44002C23460E884D88B1F90210C18457
:1070D800B8BF04F2FF7343F3CF22C3F3CF238282F6
:1070E800A41AF21A12B204611A4C002AB8BF9A1BE9
:1070F800A369B8BF12B21A44002A1346B8BF02F1F6
:107108003F0343F38F13D21AA261826A83830A442E
:10711800002A1346B8BF02F2FF7343F3CF21521A75
:107128008262C3F3CF22AB1A1BB2002BB8BF531B2A
:10713800226B8185B8BF1BB21344002B1A46B8BF17
:1071480003F13F0242F38F129B1A8286236370BDBC
:10715800A40A00206C0A00201049B1F90020B1F9F6
:107168000230898881808168C2800A44002A1146D9
:10717800B8BF02F2FF1141F34F21521A8260026A2E
:10718800C3831344002B1A46B8BF03F2FF1242F31D
:107198004F229B1A8181036282847047AE0A0020C5
:1071A800064B984202D10648FFF7D6BF054B9842D6
:1071B80002D10348FFF77EBF704700BFBC00002024
:1071C8006C0A00206C0000204FF090420B484FF4EE
:1071D8007A734360137D43F080031375084B597D20
:1071E80041F020015975117D6FF3861111755A7D93
:1071F8006FF304125A751E23036070479C0B00201E
:1072080000040048154B322270B55A604FF0904583
:107218000026134B0672DE712B7D124C43F080035F
:107228002B754672637D43F0200363751E23C0E906
:1072380000322B7D43F080032B75637D43F02003E0
:1072480063756420FCF704F82B7D66F3C7132B7570
:10725800637D66F34513637570BD00BF9C0B00200A
:107268000C0C002000040048114B93F87430FF2BDD
:1072780010D0104BDB79012B0DD1027A52B94FF0A7
:1072880090420372137D43F0400313751E2232238C
:10729800C0E900237047022BFCD1437A002BF9D1B7
:1072A800054A01234372537D43F010035375EDE7FC
:1072B800F40900200C0C0020000400484368002B4F
:1072C8003FDC2E4BB3F91C20B2F5967F04DCB3F9F2
:1072D8003430B3F5967F1FDD4289B2F5167F4FF043
:1072E800000316D9264A27494372D3714A7D42F0D2
:1072F80020024A754FF090420372137D43F08003D9
:10730800137532231E22C0E9002301230022828143
:1073180008E001324281F9E78289C82A4FF0000368
:107328000DD943814FF0904283F00103117D63F33F
:1073380041010368117573B1013B03607047013265
:10734800E5E7013B42F210729342C8BF4FF47A73EB
:1073580043600023E6E7117D63F3C71111750949FE
:10736800487D63F345104875107D63F386101075EA
:107378004A7D63F304124A75704700BF6C0A002007
:107388000C0C002000040048114B12481A880132E6
:1073980092B2B2F57A7F1A8081BF01221A71002257
:1073A8001A809A780132D2B2642A9A7081BF012277
:1073B8005A7100229A70DA780132D2B20A2ADA7047
:1073C80081BF01229A710022DA70FFF777BF00BFF0
:1073D8000C0C00209C0B00200F4B1B89CBB990F99B
:1073E8000830002B12DC0D4BB3F90C20B2F5FA7FF4
:1073F80005DD0123C3710A4B00229A877047B3F950
:107408002430B3F5487FF6DD0223F3E7013B03722E
:1074180070470F23FBE700BF9C0B00206C0A00207D
:10742800AC0B002038B50B4D427B95F874309A426E
:107438001CBF4373437D04461CBF43F001034375DF
:10744800FEF701FD637B85F874302046FEF734FDB6
:10745800002038BDF409002080B5FBF7D5FEFEF703
:1074680089FD72B6FEF738FB574C584DFEF714FBF2
:1074780000F0C8F900F0EAF9FEF7C8F9FEF716FAC5
:1074880000F074F9012211464FF09040FCF76EFFAE
:107498004FF4804120460122FCF768FF4FF09043EB
:1074A8004B485A7D6FF300025A755A7D42F0080224
:1074B8005A7593F8142442F0100283F81424627D5C
:1074C8006FF34512627593F81424424C42F020027F
:1074D80083F8142493F814246FF3861283F8142481
:1074E800FFF772FE21463C4841F84A0B0122FEF79D
:1074F80069F93A48E862012205F13001FEF762F9BC
:10750800374B4F3503F10C0253F8041B45F8041BA5
:107518009342F9D11B882B80324D334B1F22C5E98A
:1075280000234FF0FF33C5F80D30C5F81130284659
:10753800FEF771FC2846FFF775FF62B624482B4D0D
:107548002B4EFFF75FFE2148FFF76EF82948FFF73B
:107558009BFD2B790BB100232B716B7953B1002361
:1075680028466B71FFF738FF3369B3F5FA6F3CBFF4
:1075780001333361AB79002BEBD015480027AF718D
:10758800FFF772FE1148FFF70BFD4FF09042537D55
:10759800C3F30011DB0615D52379142B89BF537D5E
:1075A800013367F30413537598BF2371236C002BC1
:1075B800CFD0636C002BCCDD013B6364002BC8D1BA
:1075C8002364C6E72171F1E700080048AC0B0020EE
:1075D8009C0B0020F4090020D00C0020540D002042
:1075E8004C7A0008B80A002000F800080C0C0020AB
:1075F8000C0000206C0A002070470000234A244930
:10760800002330B5C2E90F3313715364A2F8483030
:1076180082F84C30516782F8373082F83830136777
:107628001C4A052111704FF47A104FF4FA614FF497
:1076380048354FF4C8749062106191829185C2E90F
:107648000254C2E90633C2E90854536013639386AF
:10765800114A12491385C2E911339387A2F84C30B5
:1076680082F84E300E4AC2E90033938153810D4AA5
:10767800C2E900130F2111810B49D1600B4A0C4953
:1076880093603F20C2E90001137330BDF409002064
:10769800000101006C0A0020AC0B0020030000056B
:1076A8009C0B00200C0C0020010A0721B80A0020BE
:1076B80000F801080A4B9A6942F001029A619A6936
:1076C80082B002F001020092009ADA6942F0805218
:1076D800DA61DB6903F080530193019B02B07047C4
:1076E800001002407047FEE7FEE7FEE7FEE770473E
:1076F8007047704708B5FCF767FBBDE80840FBF723
:1077080095BD00000148FCF70CBC00BF0C0100202F
:107718000148FCF706BC00BF5001002008B504482A
:10772800FBF7CEFFBDE808400248FBF7C9BF00BF22
:107738006C000020BC0000200148FDF75DBC00BFC4
:10774800D00C00200148FDF757BC00BF540D0020A5
:10775800044BD3F8882042F47002C3F88820024A08
:107768009A60704700ED00E00030000800B5102274
:1077780089B00DEB0200002100F050F91548164AB7
:107788000023C0E900234FF6FF72CDE90133C0E9B9
:107798000323C0E9053303938360FDF775FA08B145
:1077A800FFF72AFF4FF480530A48049304A9FDF712
:1077B800A5FA08B1FFF720FF00230648039301A9A3
:1077C800CDE90133FDF736FB08B1FFF715FF09B026
:1077D8005DF804FB840C0020002C01400268084B73
:1077E8009A4282B00AD103F564439A6942F400626E
:1077F8009A619B6903F400630193019B02B070478F
:10780800002C01400F48104A08B54FF41643C0E950
:10781800002300230C22C0E90233C0E90523C0E994
:1078280007330361302343624FF4805C4FF4005305
:10783800C0E90EC3FDF741FF18B1BDE80840FFF7E6
:10784800DBBE08BDD00C0020003801400F48104AAC
:1078580008B54FF46143C0E9002300230C22C0E9B6
:107868000233C0E90523C0E90733036130234362CB
:107878004FF4805C4FF40053C0E90EC3FDF71DFFC1
:1078880018B1BDE80840FFF7B7BE08BD540D002089
:107898000044004010B514228AB0044600210DEBC4
:1078A800020000F0BBF823682B4A93422AD12B4BE5
:1078B8009A6942F480429A619A6902F4804201927C
:1078C800019A5A6942F400325A615B6903F4003341
:1078D8000293029B4FF4C0600223CDE9050305A97A
:1078E80007234FF090400324CDE90843FCF780FCC0
:1078F800252000220121FCF713FA2520FCF742FA83
:107908000AB010BD164A9342FAD1144BDA6942F410
:107918000032DA61DA6902F400320392039A5A6992
:1079280042F400325A615B6903F4003304930C2279
:10793800049B0223CDE9052303210723CDE908137E
:107948004FF0904005A9FCF753FC262000220121A6
:10795800FCF7E6F92620D1E7003801400010024084
:1079680000440040DFF834D00D480E490E4A002389
:1079780002E0D458C4500433C4188C42F9D30B4ADB
:107988000B4C002301E013600432A242FBD3FFF743
:10799800DFFE00F011F8FFF75FFDFEE70030002082
:1079A8000000002024000020A47A000828000020FD
:1079B800D80D0020FEE7000070B50D4D0D4C641B7E
:1079C800A4100026A64209D10B4D0C4C00F02EF84D
:1079D800641BA4100026A64205D170BD55F8043BCF
:1079E80098470136EEE755F8043B98470136F2E729
:1079F800987A0008987A0008987A0008A07A00080F
:107A08000A44914200F1FF3300D1704710B511F8D4
:107A1800014B03F8014F9142F9D110BD02440346CE
:107A2800934200D1704703F8011BF9E7F8B500BF8E
:107A3800F8BC08BC9E467047F8B500BFF8BC08BC47
:047A48009E4670479F
:107A4C0001C908018E700E15000002359B58020307
:107A5C000405060708090A0B0C0D0E0F1010010285
:107A6C00030405060708090A0B0C0D0E0F10040879
:107A7C0002110000000000000000010203040607D0
:0C7A8C00080900000000010203040000D3
:087A9800AD310008057600087D
:047AA0008931000820
:107AA40001000000100000000100000000001500AB
:107AB40016001700180019001A001B00000000002F
:047AC40000127A0032
:040000050800796D09
:00000001FF
