:020000040801F1
:1000000000000120D9070108D9060108DF06010810
:10001000E5060108EB060108F106010800000000F2
:10002000000000000000000000000000F7060108CA
:100030000507010800000000130701082107010857
:1000400029080108290801082908010829080108C8
:1000500029080108290801082908010829080108B8
:1000600029080108290801082908010829080108A8
:100070002908010829080108290801082908010898
:100080002908010829080108290801082908010888
:100090002908010829080108290801082908010878
:1000A0002908010829080108290801082908010868
:1000B0002908010829080108290801082908010858
:1000C0002908010829080108290801082908010848
:1000D000290801082D070108290801082908010835
:1000E0002908010829080108290801082908010828
:1000F0002908010829080108290801082908010818
:10010000290801080000000000000000290801087B
:1001100029080108290801082908010829080108F7
:1001200029080108290801082908010829080108E7
:10013000290801082908010800000000000000004B
:100140002908010829080108290801080000000001
:10015000000000000000000000000000000000009F
:1001600029080108290801082908010829080108A7
:100170002908010829080108290801082908010897
:1001800029080108290801080000000000000000FB
:040190002908010831
:1001A00010B5054C237833B9044B13B10448AFF3B1
:1001B00000800123237010BD7000002000000000AB
:1001C0005848010808B5034B1BB103490348AFF376
:1001D000008008BD0000000074000020584801089D
:1001E00001F0FF01102A2BDB10F0070F08D010F8E8
:1001F000013B013A8B422DD010F0070F42B3F6D1EC
:10020000F0B441EA012141EA014122F007047FF004
:1002100000070023F0E80256083C85EA010586EA5B
:10022000010685FA47F5A3FA87F586FA47F6A5FA97
:1002300087F68EB9EED1F0BC01F0FF0102F00702A3
:1002400032B110F8013B013A83EA010313B1F8D14E
:100250000020704701387047002D06BF354603382F
:10026000073815F0010F07D1013015F4807F02BF68
:10027000013015F4C03F0130F0BC0138704700BFB9
:1002800080B400AFBFF34F8F00BF064BDB6803F4B1
:10029000E0620449044B1343CB60BFF34F8F00BFB0
:1002A00000BFFDE700ED00E00400FA0580B590B066
:1002B00000AF78600023FB870F4B1B78B02B01D178
:1002C000FFF7DEFF07F10C030C49184603F056FE5A
:1002D0000346FB8700BFFA8F07F10C031946084855
:1002E00002F068FB01220449054802F0D1FB00BF7F
:1002F0004037BD4680BD00BF940100207048010812
:100300008C00002080B500AF00F090FA00F018F8E3
:1003100000F0D6F800F0A4F800F072F801220649C7
:10032000064802F0B5FB20214FF0904000F032FE6D
:10033000962000F0E1FAF6E7940100208C000020FE
:1003400080B5A6B000AF07F170032822002118463F
:1003500003F00CFE07F15C0300221A605A609A60F9
:10036000DA601A613B1D58220021184603F0FEFD99
:1003700002233B670123FB671023C7F88030022369
:10038000C7F888304FF40043C7F88C304FF4E013BF
:10039000C7F890300023C7F8943007F1700318466F
:1003A00000F012FE0346002B01D000F0EFF80F23FF
:1003B000FB6502233B6600237B664FF48063BB66CC
:1003C0000023FB6607F15C030221184601F050FE92
:1003D0000346002B01D000F0D9F803237B600023F3
:1003E000FB6000233B613B1D184602F077F8034693
:1003F000002B01D000F0CAF800BF9837BD4680BD81
:1004000080B500AF144B154A1A60134B4FF41642D7
:100410005A60114B00229A600F4B0022DA600E4B9B
:1004200000221A610C4B0C225A610B4B00229A617C
:10043000094B0022DA61084B00221A62064B0022A7
:100440005A62054802F068FA0346002B01D000F01A
:100450009DF800BF80BD00BF8C0000200038014027
:1004600080B500AF144B154A1A60134B4FF4164277
:100470005A60114B00229A600F4B0022DA600E4B3B
:1004800000221A610C4B0C225A610B4B00229A611C
:10049000094B0022DA61084B00221A62064B002247
:1004A0005A62054802F038FA0346002B01D000F0EA
:1004B0006DF800BF80BD00BF100100200044004067
:1004C00080B58AB000AF07F1140300221A605A60A9
:1004D0009A60DA601A612B4B5B692A4A43F4002365
:1004E0005361284B5B6903F400233B613B69254B57
:1004F0005B69244A43F480035361224B5B6903F434
:100500008003FB60FB681F4B5B691E4A43F40033AA
:1005100053611C4B5B6903F40033BB60BB68194B30
:100520005B69184A43F480235361164B5B6903F4FB
:1005300080237B607B68002220214FF0904000F0F8
:1005400011FD4FF400537B614FF40413BB61002392
:10055000FB6107F1140319460B4800F079FB2023D7
:100560007B610123BB610023FB6100233B6207F138
:10057000140319464FF0904000F06AFB00BF283783
:10058000BD4680BD001002400008004880B400AFA6
:1005900072B600BFFEE7000080B582B000AF0F4B1F
:1005A0009B690E4A43F0010393610C4B9B6903F076
:1005B00001037B607B68094BDB69084A43F0805389
:1005C000D361064BDB6903F080533B603B68072037
:1005D00000F086FA00BF0837BD4680BD001002401B
:1005E00080B58CB000AF786007F11C0300221A6060
:1005F0005A609A60DA601A617B681B68324A9342DB
:1006000030D1324B9B69314A43F4804393612F4B85
:100610009B6903F48043BB61BB692C4B5B692B4A2C
:1006200043F400235361294B5B6903F400237B618E
:100630007B693023FB6102233B6200237B6203233F
:10064000BB620723FB6207F11C031946204800F038
:10065000FFFA00220021252000F04DFA252000F0AD
:1006600066FA2DE07B681B681A4A934228D1174B23
:10067000DB69164A43F40033D361144BDB6903F49E
:1006800000333B613B69114B5B69104A43F4003313
:1006900053610E4B5B6903F40033FB60FB680C2372
:1006A000FB6102233B6200237B620023BB620723C2
:1006B000FB6207F11C0319464FF0904000F0C8FAA6
:1006C00000BF3037BD4680BD0038014000100240F9
:1006D000000800480044004080B400AFFEE780B44A
:1006E00000AFFEE780B400AFFEE780B400AFFEE7E6
:1006F00080B400AFFEE780B400AF00BFBD465DF838
:10070000047B704780B400AF00BFBD465DF8047B3A
:10071000704780B400AF00BFBD465DF8047B7047F2
:1007200080B500AF00F0C8F800BF80BD80B500AF55
:10073000024802F0FBF900BF80BD00BF8C00002022
:1007400080B586B000AF7860144A154BD31A7B6130
:100750007B693B61134B1B68002B02D1114B124A82
:100760001A60104B1A687B6813443A699A4207D2A0
:1007700003F0D2FB03460C221A604FF0FF3309E06E
:10078000084B1B68FB60074B1A687B681344054ADB
:100790001360FB6818461837BD4680BD0000012075
:1007A0000004000098010020B001002080B400AFD8
:1007B000074BD3F88830064A43F47003C2F88830F8
:1007C000034B044A9A6000BFBD465DF8047B704746
:1007D00000ED00E000000108DFF834D00D480E49BC
:1007E0000E4A002302E0D458C4500433C4188C428B
:1007F000F9D30B4A0B4C002301E013600432A242F0
:10080000FBD3FFF7D3FF03F08DFBFFF77BFDFEE784
:10081000000001200000002070000020F0480108C6
:1008200070000020B0010020FEE7000080B500AF9E
:10083000084B1B68074A43F010031360032000F0C5
:100840004FF9002000F008F8FFF7A6FE0023184635
:1008500080BD00BF0020024080B582B000AF78604C
:10086000124B1A68124B1B7819464FF47A73B3FB7C
:10087000F1F3B2FBF3F3184600F067F90346002BDF
:1008800001D001230EE07B680F2B0AD80022796883
:100890004FF0FF3000F02FF9064A7B681360002309
:1008A00000E0012318460837BD4680BD0000002047
:1008B000080000200400002080B400AF064B1B7825
:1008C0001A46064B1B681344044A136000BFBD461A
:1008D0005DF8047B704700BF080000209C010020E9
:1008E00080B400AF034B1B681846BD465DF8047B1F
:1008F000704700BF9C01002080B584B000AF7860D5
:10090000FFF7EEFFB8607B68FB60FB68B3F1FF3F69
:1009100005D00A4B1B781A46FB681344FB6000BFE6
:10092000FFF7DEFF0246BB68D31AFA689A42F7D88F
:1009300000BF00BF1037BD4680BD00BF08000020CB
:1009400080B485B000AF78607B6803F00703FB607C
:100950000C4BDB68BB60BA684FF6FF031340BB600B
:10096000FB681A02BB68134343F0BF6343F40033D0
:10097000BB60044ABB68D36000BF1437BD465DF856
:10098000047B704700ED00E080B400AF044BDB68EF
:100990001B0A03F007031846BD465DF8047B704749
:1009A00000ED00E080B483B000AF0346FB7197F91F
:1009B0000730002B0BDBFB7903F01F02074997F987
:1009C00007305B09012000FA02F241F8232000BF42
:1009D0000C37BD465DF8047B704700BF00E100E0C6
:1009E00080B483B000AF03463960FB7197F90730DC
:1009F000002B0ADB3B68DAB20C4997F90730120189
:100A0000D2B20B4483F800230AE03B68DAB208490B
:100A1000FB7903F00F03043B1201D2B20B441A76A8
:100A200000BF0C37BD465DF8047B704700E100E075
:100A300000ED00E080B489B000AFF860B9607A6082
:100A4000FB6803F00703FB61FB69C3F10703042B99
:100A500028BF0423BB61FB690433062B02D9FB6961
:100A6000033B00E000237B614FF0FF32BB6902FAD9
:100A700003F3DA43BB681A407B699A404FF0FF31B9
:100A80007B6901FA03F3D9437B680B401343184693
:100A90002437BD465DF8047B7047000080B582B006
:100AA00000AF78607B68013BB3F1807F01D3012305
:100AB0000FE00A4A7B68013B53600F214FF0FF3083
:100AC000FFF78EFF054B00229A60044B07221A6045
:100AD000002318460837BD4680BD00BF10E000E087
:100AE00080B582B000AF78607868FFF729FF00BF5B
:100AF0000837BD4680BD80B586B000AF0346B960FB
:100B00007A60FB7300237B61FFF73EFF78617A68B0
:100B1000B9687869FFF78EFF024697F90F301146E2
:100B20001846FFF75DFF00BF1837BD4680BD80B592
:100B300082B000AF0346FB7197F907301846FFF704
:100B400031FF00BF0837BD4680BD80B582B000AF21
:100B500078607868FFF7A2FF034618460837BD465D
:100B600080BD80B483B000AF78607B6893F821309B
:100B7000022B08D07B6804229A637B68002283F8EA
:100B80002020012320E07B681B681A687B681B68B3
:100B900022F00E021A607B681B681A687B681B686B
:100BA00022F001021A607B681A6C7B68DB6B012102
:100BB00001FA02F25A607B68012283F821207B68E7
:100BC000002283F82020002318460C37BD465DF82C
:100BD000047B704780B584B000AF78600023FB735E
:100BE0007B6893F82130022B05D07B6804229A633E
:100BF0000123FB7327E07B681B681A687B681B680E
:100C000022F00E021A607B681B681A687B681B68FA
:100C100022F001021A607B681A6C7B68DB6B012191
:100C200001FA02F25A607B68012283F821207B6876
:100C3000002283F820207B685B6B002B03D07B684D
:100C40005B6B78689847FB7B18461037BD4680BDC4
:100C500080B487B000AF7860396000237B6160E1C9
:100C60003B681A6801217B6901FA03F31340FB60BA
:100C7000FB68002B00F052813B685B6803F00303C4
:100C8000012B05D03B685B6803F00303022B30D1D6
:100C90007B689B683B617B695B00032202FA03F37C
:100CA000DB433A6913403B613B68DA687B695B0070
:100CB00002FA03F33A6913433B617B683A699A602D
:100CC0007B685B683B6101227B6902FA03F3DB43CB
:100CD0003A6913403B613B685B681B0903F0010202
:100CE0007B6902FA03F33A6913433B617B683A6913
:100CF0005A603B685B6803F00303032B17D07B68E3
:100D0000DB683B617B695B00032202FA03F3DB4390
:100D10003A6913403B613B689A687B695B0002FA61
:100D200003F33A6913433B617B683A69DA603B68D5
:100D30005B6803F00303022B23D17B69DA087B682D
:100D4000083253F822303B617B6903F007039B00B4
:100D50000F2202FA03F3DB433A6913403B613B681D
:100D60001A697B6903F007039B0002FA03F33A69EF
:100D700013433B617B69DA087B680832396943F8C1
:100D800022107B681B683B617B695B00032202FACF
:100D900003F3DB433A6913403B613B685B6803F054
:100DA00003027B695B0002FA03F33A6913433B6178
:100DB0007B683A691A603B685B6803F44033002B38
:100DC00000F0AC805E4B9B695D4A43F00103936188
:100DD0005B4B9B6903F00103BB60BB68594A7B69AD
:100DE0009B08023352F823303B617B6903F0030315
:100DF0009B000F2202FA03F3DB433A6913403B6185
:100E00007B68B3F1904F25D07B684F4A93421FD047
:100E10007B684E4A934219D07B684D4A934213D067
:100E20007B684C4A93420DD07B684B4A934207D073
:100E30007B684A4A934201D106230CE007230AE06B
:100E4000052308E0042306E0032304E0022302E074
:100E5000012300E000237A6902F00302920093402C
:100E60003A6913433B6137497B699B0802333A690E
:100E700041F823203A4B1B683B61FB68DB433A692E
:100E800013403B613B685B6803F48033002B03D065
:100E90003A69FB6813433B61314A3B691360304B4D
:100EA0005B683B61FB68DB433A6913403B613B682D
:100EB0005B6803F40033002B03D03A69FB681343EB
:100EC0003B61274A3B695360254B9B683B61FB684C
:100ED000DB433A6913403B613B685B6803F4801372
:100EE000002B03D03A69FB6813433B611C4A3B6902
:100EF00093601B4BDB683B61FB68DB433A69134043
:100F00003B613B685B6803F40013002B03D03A6934
:100F1000FB6813433B61124A3B69D3607B69013331
:100F20007B613B681A687B6922FA03F3002B7FF42C
:100F300097AE00BF00BF1C37BD465DF8047B70470D
:100F40000010024000000140000400480008004872
:100F5000000C004800100048001400480018004829
:100F60000004014080B483B000AF78600B467B8002
:100F700013467B707B78002B03D07A887B689A615C
:100F800002E07A887B689A6200BF0C37BD465DF844
:100F9000047B704780B485B000AF78600B467B80DF
:100FA0007B685B69FB607A88FB6813401A04FB6806
:100FB000D9437B880B401A437B689A6100BF143782
:100FC000BD465DF8047B704780B5ADF5027D00AF8E
:100FD00007F50273A3F50173186007F50273A3F513
:100FE00001731B68002B02D1012301F03AB807F509
:100FF0000273A3F501731B681B6803F00103002B48
:1010000000F06F81B54B5B6803F00C03042B0CD030
:10101000B24B5B6803F00C03082B5CD1AF4B5B68F1
:1010200003F4C033B3F5803F55D14FF40033C7F814
:10103000F431D7F8F43193FAA3F3C7F8F031D7F8C5
:10104000F031B3FA83F3DBB25B09DBB243F00103A7
:10105000DBB2012B02D1A14B1B6815E04FF400332A
:10106000C7F8EC31D7F8EC3193FAA3F3C7F8E831BD
:101070004FF40033C7F8E431D7F8E43193FAA3F31F
:10108000C7F8E031954B5B6A4FF40032C7F8DC21BA
:10109000D7F8DC2192FAA2F2C7F8D821D7F8D821E4
:1010A000B2FA82F2D2B242F02002D2B202F01F02B1
:1010B000012101FA02F21340002B00F0118107F523
:1010C0000273A3F501731B685B68002B40F0088175
:1010D000012300F0C6BF07F50273A3F501731B6877
:1010E0005B68B3F5803F06D17C4B1B687B4A43F4B9
:1010F0008033136036E007F50273A3F501731B68B4
:101100005B68002B0CD1754B1B68744A23F4803349
:101110001360724B1B68714A23F48023136021E033
:1011200007F50273A3F501731B685B68B3F5A02F85
:101130000CD16A4B1B68694A43F480231360674BE8
:101140001B68664A43F4803313600BE0634B1B68F3
:10115000624A23F480331360604B1B685F4A23F4B8
:101160008023136007F50273A3F501731B685B68A6
:10117000002B59D0FFF7B4FBC7F800020AE0FFF7D5
:10118000AFFB0246D7F80032D31A642B02D90323EF
:1011900000F067BF4FF40033C7F8D431D7F8D4312B
:1011A00093FAA3F3C7F8D031D7F8D031B3FA83F369
:1011B000DBB25B09DBB243F00103DBB2012B02D1EE
:1011C000464B1B6815E04FF40033C7F8CC31D7F815
:1011D000CC3193FAA3F3C7F8C8314FF40033C7F802
:1011E000C431D7F8C43193FAA3F3C7F8C0313B4BED
:1011F0005B6A4FF40032C7F8BC21D7F8BC2192FAE1
:10120000A2F2C7F8B821D7F8B821B2FA82F2D2B266
:1012100042F02002D2B202F01F02012101FA02F2D2
:101220001340002BABD05CE0FFF75AFBC7F800027D
:101230000AE0FFF755FB0246D7F80032D31A642BB9
:1012400002D9032300F00DBF4FF40033C7F8B431C7
:10125000D7F8B43193FAA3F3C7F8B031D7F8B03167
:10126000B3FA83F3DBB25B09DBB243F00103DBB219
:10127000012B02D1194B1B6815E04FF40033C7F85E
:10128000AC31D7F8AC3193FAA3F3C7F8A8314FF4D7
:101290000033C7F8A431D7F8A43193FAA3F3C7F801
:1012A000A0310E4B5B6A4FF40032C7F89C21D7F88F
:1012B0009C2192FAA2F2C7F89821D7F89821B2FAA5
:1012C00082F2D2B242F02002D2B202F01F02012119
:1012D00001FA02F21340002BABD102E000100240F1
:1012E00000BF07F50273A3F501731B681B6803F0C9
:1012F0000203002B00F07F81A74B5B6803F00C0317
:10130000002B0CD0A44B5B6803F00C03082B73D1AB
:10131000A14B5B6803F4C033B3F5004F6CD10223DB
:10132000C7F89431D7F8943193FAA3F3C7F8903102
:10133000D7F89031B3FA83F3DBB25B09DBB243F049
:101340000103DBB2012B02D1934B1B6813E0022394
:10135000C7F88C31D7F88C3193FAA3F3C7F88831EA
:101360000223C7F88431D7F8843193FAA3F3C7F87E
:101370008031894B5B6A0222C7F87C21D7F87C2137
:1013800092FAA2F2C7F87821D7F87821B2FA82F25D
:10139000D2B242F02002D2B202F01F02012101FAC1
:1013A00002F21340002B0AD007F50273A3F5017374
:1013B0001B68DB68012B02D0012300F052BE764B84
:1013C0001B6823F0F80207F50273A3F501731B688D
:1013D0001B69F821C7F87411D7F8741191FAA1F1BB
:1013E000C7F87011D7F87011B1FA81F1C9B28B400A
:1013F000694913430B60FEE007F50273A3F501731F
:101400001B68DB68002B00F088800123C7F86C3173
:10141000D7F86C3193FAA3F3C7F86831D7F868317D
:10142000B3FA83F3DBB203F1845303F584139B0017
:101430001A4601231360FFF753FAC7F800020AE0C7
:10144000FFF74EFA0246D7F80032D31A022B02D920
:10145000032300F006BE0223C7F86431D7F86431D5
:1014600093FAA3F3C7F86031D7F86031B3FA83F386
:10147000DBB25B09DBB243F00103DBB2012B02D12B
:10148000454B1B6813E00223C7F85C31D7F85C3189
:1014900093FAA3F3C7F858310223C7F85431D7F8A9
:1014A000543193FAA3F3C7F850313B4B5B6A0222E5
:1014B000C7F84C21D7F84C2192FAA2F2C7F848217C
:1014C000D7F84821B2FA82F2D2B242F02002D2B268
:1014D00002F01F02012101FA02F21340002BAFD0EB
:1014E0002D4B1B6823F0F80207F50273A3F5017377
:1014F0001B681B69F821C7F84411D7F8441191FA09
:10150000A1F1C7F84011D7F84011B1FA81F1C9B281
:101510008B40214913430B606DE00123C7F83C3138
:10152000D7F83C3193FAA3F3C7F83831D7F83831FC
:10153000B3FA83F3DBB203F1845303F584139B0006
:101540001A4600231360FFF7CBF9C7F800020AE040
:10155000FFF7C6F90246D7F80032D31A022B02D998
:10156000032300F07EBD0223C7F83431D7F83431AD
:1015700093FAA3F3C7F83031D7F83031B3FA83F3D5
:10158000DBB25B09DBB243F00103DBB2012B05D117
:10159000014B1B6816E000BF001002400223C7F891
:1015A0002C31D7F82C3193FAA3F3C7F82831022352
:1015B000C7F82431D7F8243193FAA3F3C7F82031C0
:1015C000BF4B5B6A0222C7F81C21D7F81C2192FA94
:1015D000A2F2C7F81821D7F81821B2FA82F2D2B2D3
:1015E00042F02002D2B202F01F02012101FA02F2FF
:1015F0001340002BACD107F50273A3F501731B68F0
:101600001B6803F00803002B00F0138107F5027339
:10161000A3F501731B685B69002B7CD00123C7F81D
:101620001431D7F8143193FAA3F3C7F81031D7F86F
:101630001031B3FA83F3DBB21A46A24B13449B007A
:101640001A4601231360FFF74BF9C7F800020AE0BE
:10165000FFF746F90246D7F80032D31A022B02D917
:10166000032300F0FEBC0223C7F80C31D7F80C317D
:1016700093FAA3F207F50273A3F580731A6007F5D6
:101680000273A3F5827302221A6007F50273A3F5B1
:1016900082731B6893FAA3F207F50273A3F58473B0
:1016A0001A6007F50273A3F5867302221A6007F524
:1016B0000273A3F586731B6893FAA3F207F502730E
:1016C000A3F588731A607E4B5A6A07F50273A3F577
:1016D0008A730221196007F50273A3F58A731B68E8
:1016E00093FAA3F107F50273A3F58C73196007F55C
:1016F0000273A3F58C731B68B3FA83F3DBB243F078
:101700006003DBB203F01F03012101FA03F313406E
:10171000002B9DD08DE007F50273A3F58E73012297
:101720001A6007F50273A3F58E731B6893FAA3F290
:1017300007F50273A3F590731A6007F50273A3F51A
:1017400090731B68B3FA83F3DBB21A465D4B134404
:101750009B001A4600231360FFF7C2F8C7F8000287
:101760000AE0FFF7BDF80246D7F80032D31A022B81
:1017700002D9032300F075BC07F50273A3F5927339
:1017800002221A6007F50273A3F592731B6893FA9D
:10179000A3F207F50273A3F594731A6007F50273B9
:1017A000A3F5967302221A6007F50273A3F59673E8
:1017B0001B6893FAA3F207F50273A3F598731A60F6
:1017C00007F50273A3F59A7302221A6007F50273F4
:1017D000A3F59A731B6893FAA3F207F50273A3F5B6
:1017E0009C731A60364B5A6A07F50273A3F59E7311
:1017F0000221196007F50273A3F59E731B6893FA23
:10180000A3F107F50273A3F5A073196007F502733E
:10181000A3F5A0731B68B3FA83F3DBB243F0600354
:10182000DBB203F01F03012101FA03F31340002B85
:1018300097D107F50273A3F501731B681B6803F0CA
:101840000403002B00F0A581002387F807321C4B0E
:10185000DB6903F08053002B16D1194BDB69184A62
:1018600043F08053D361164BDB6903F0805207F5D8
:101870000273A3F5FE731A6007F50273A3F5FE73F6
:101880001B68012387F807320F4B1B6803F4807332
:10189000002B21D10C4B1B680B4A43F4807313605F
:1018A000FFF71EF8C7F8000210E0FFF719F802462C
:1018B000D7F80032D31A642B08D90323D1E300BF31
:1018C0000010024020819010007000408D4B1B687A
:1018D00003F48073002BE8D007F50273A3F50173BE
:1018E0001B689B68012B06D1874B1B6A864A43F015
:1018F0000103136235E007F50273A3F501731B685A
:101900009B68002B0CD1804B1B6A7F4A23F001039C
:1019100013627D4B1B6A7C4A23F00403136220E0B0
:1019200007F50273A3F501731B689B68052B0CD1A7
:10193000754B1B6A744A43F004031362724B1B6AB3
:10194000714A43F0010313620BE06F4B1B6A6E4A4E
:1019500023F0010313626C4B1B6A6B4A23F00403F0
:10196000136207F50273A3F501731B689B68002BD4
:1019700000F08180FEF7B4FFC7F800020BE0FEF72D
:10198000AFFF0246D7F80032D31A41F288329342B1
:1019900001D9032365E307F50273A3F5A2730222BD
:1019A0001A6007F50273A3F5A2731B6893FAA3F2FA
:1019B00007F50273A3F5A4731A6007F50273A3F584
:1019C000A67302221A6007F50273A3F5A6731B68BB
:1019D00093FAA3F207F50273A3F5A8731A6007F54B
:1019E0000273A3F5A8731B68B3FA83F3DBB25B0938
:1019F000DBB243F00203DBB2022B02D1424B1B6A83
:101A000013E007F50273A3F5AA7302221A6007F523
:101A10000273A3F5AA731B6893FAA3F207F5027386
:101A2000A3F5AC731A60384B5B6A07F50272A2F536
:101A3000AE720221116007F50272A2F5AE72126851
:101A400092FAA2F107F50272A2F5B072116007F5E1
:101A50000272A2F5B0721268B2FA82F2D2B242F009
:101A60004002D2B202F01F02012101FA02F2134039
:101A7000002B84D083E0FEF733FFC7F800020BE0B1
:101A8000FEF72EFF0246D7F80032D31A41F2883211
:101A9000934201D90323E4E207F50273A3F5B2737D
:101AA00002221A6007F50273A3F5B2731B6893FA5A
:101AB000A3F207F50273A3F5B4731A6007F5027376
:101AC000A3F5B67302221A6007F50273A3F5B67385
:101AD0001B6893FAA3F207F50273A3F5B8731A60B3
:101AE00007F50273A3F5B8731B68B3FA83F3DBB28F
:101AF0005B09DBB243F00203DBB2022B06D1024BDF
:101B00001B6A17E0007000400010024007F50273E6
:101B1000A3F5BA7302221A6007F50273A3F5BA732C
:101B20001B6893FAA3F207F50273A3F5BC731A605E
:101B3000B34B5B6A07F50272A2F5BE720221116017
:101B400007F50272A2F5BE72126892FAA2F107F5C9
:101B50000272A2F5C072116007F50272A2F5C0729E
:101B60001268B2FA82F2D2B242F04002D2B202F06D
:101B70001F02012101FA02F21340002B80D197F8D5
:101B80000732012B05D19E4BDB699D4A23F0805320
:101B9000D36107F50273A3F501731B689B69002BE2
:101BA00000F05E82964B5B6803F00C03082B00F09C
:101BB0001F8207F50273A3F501731B689B69022B53
:101BC00040F0708107F50273A3F5C2734FF0807285
:101BD0001A6007F50273A3F5C2731B6893FAA3F2A8
:101BE00007F50273A3F5C4731A6007F50273A3F532
:101BF000C4731B68B3FA83F3DBB203F1845303F5B8
:101C000084139B001A4600231360FEF769FEC7F891
:101C1000000209E0FEF764FE0246D7F80032D31A4C
:101C2000022B01D903231CE207F50273A3F5C67347
:101C30004FF000721A6007F50273A3F5C6731B68B4
:101C400093FAA3F207F50273A3F5C8731A6007F5B8
:101C50000273A3F5C8731B68B3FA83F3DBB25B09A5
:101C6000DBB243F00103DBB2012B02D1644B1B68F2
:101C700027E007F50273A3F5CA734FF000721A60EC
:101C800007F50273A3F5CA731B6893FAA3F207F56D
:101C90000273A3F5CC731A6007F50273A3F5CE7334
:101CA0004FF000721A6007F50273A3F5CE731B683C
:101CB00093FAA3F207F50273A3F5D0731A60504BA1
:101CC0005B6A07F50272A2F5D2724FF000711160E3
:101CD00007F50272A2F5D272126892FAA2F107F524
:101CE0000272A2F5D472116007F50272A2F5D472E5
:101CF0001268B2FA82F2D2B242F02002D2B202F0FC
:101D00001F02012101FA02F21340002B82D13C4B49
:101D1000DB6A23F00F0207F50273A3F501731B685A
:101D20005B6A37491343CB62354B5B6823F4761209
:101D300007F50273A3F501731B68196A07F50273AF
:101D4000A3F501731B68DB690B432D4913434B60FB
:101D500007F50273A3F5D6734FF080721A6007F58A
:101D60000273A3F5D6731B6893FAA3F207F5027307
:101D7000A3F5D8731A6007F50273A3F5D8731B682F
:101D8000B3FA83F3DBB203F1845303F584139B00AE
:101D90001A4601231360FEF7A3FDC7F8000209E00D
:101DA000FEF79EFD0246D7F80032D31A022B01D966
:101DB000032356E107F50273A3F5DA734FF00072BF
:101DC0001A6007F50273A3F5DA731B6893FAA3F29E
:101DD00007F50273A3F5DC731A6007F50273A3F528
:101DE000DC731B68B3FA83F3DBB25B09DBB243F04D
:101DF0000103DBB2012B05D1014B1B682AE000BFB8
:101E00000010024007F50273A3F5DE734FF0007275
:101E10001A6007F50273A3F5DE731B6893FAA3F249
:101E200007F50273A3F5E0731A6007F50273A3F5D3
:101E3000E2734FF000721A6007F50273A3F5E273C4
:101E40001B6893FAA3F207F50273A3F5E4731A6013
:101E5000864B5B6A07F50272A2F5E6724FF00071DD
:101E6000116007F50272A2F5E672126892FAA2F109
:101E700007F50272A2F5E872116007F50272A2F589
:101E8000E8721268B2FA82F2D2B242F02002D2B202
:101E900002F01F02012101FA02F21340002B3FF46D
:101EA0007FAFDDE007F50273A3F5EA734FF08072B0
:101EB0001A6007F50273A3F5EA731B6893FAA3F29D
:101EC00007F50273A3F5EC731A6007F50273A3F527
:101ED000EC731B68B3FA83F3DBB203F1845303F5AD
:101EE00084139B001A4600231360FEF7F9FCC7F821
:101EF000000209E0FEF7F4FC0246D7F80032D31ADC
:101F0000022B01D90323ACE007F50273A3F5EE73AE
:101F10004FF000721A6007F50273A3F5EE731B68A9
:101F200093FAA3F207F50273A3F5F0731A6007F5AD
:101F30000273A3F5F0731B68B3FA83F3DBB25B099A
:101F4000DBB243F00103DBB2012B02D1474B1B682C
:101F500027E007F50273A3F5F2734FF000721A60E1
:101F600007F50273A3F5F2731B6893FAA3F207F562
:101F70000273A3F5F4731A6007F50273A3F5F67301
:101F80004FF000721A6007F50273A3F5F6731B6831
:101F900093FAA3F207F50273A3F5F8731A60334BB3
:101FA0005B6A07F50272A2F5FA724FF000711160D8
:101FB00007F50272A2F5FA72126892FAA2F107F519
:101FC0000272A2F5FC72116007F50272A2F5FC72B2
:101FD0001268B2FA82F2D2B242F02002D2B202F019
:101FE0001F02012101FA02F21340002B82D137E0D7
:101FF00007F50273A3F501731B689B69012B01D1DF
:1020000001232EE0194B5B68C7F8FC31174BDB6AE4
:10201000C7F8F831D7F8FC3103F4C03207F5027382
:10202000A3F501731B68DB699A4217D1D7F8FC311D
:1020300003F4701207F50273A3F501731B681B6AA2
:102040009A420BD1D7F8F83103F00F0207F502736B
:10205000A3F501731B685B6A9A4201D0012300E07B
:102060000023184607F50277BD4680BD00100240E8
:1020700080B59EB000AF7860396000237B677B68D5
:10208000002B01D1012362E1904B1B6803F0070391
:102090003A689A4210D98D4B1B6823F007028B498E
:1020A0003B6813430B60894B1B6803F007033A68D6
:1020B0009A4201D001234AE17B681B6803F00203C6
:1020C000002B08D0824B5B6823F0F0027B689B6892
:1020D0007F4913434B607B681B6803F00103002BAF
:1020E00000F0DC807B685B68012B3CD14FF400334F
:1020F0003B673B6F93FAA3F3FB66FB6EB3FA83F384
:10210000DBB25B09DBB243F00103DBB2012B02D18E
:102110006F4B1B680FE04FF40033BB66BB6E93FA46
:10212000A3F37B664FF400333B663B6E93FAA3F355
:10213000FB65674B5B6A4FF40032BA65BA6D92FA81
:10214000A2F27A657A6DB2FA82F2D2B242F020023D
:10215000D2B202F01F02012101FA02F21340002B59
:102160007BD10123F3E07B685B68022B3CD14FF00D
:1021700000733B653B6D93FAA3F3FB64FB6CB3FA0E
:1021800083F3DBB25B09DBB243F00103DBB2012B6B
:1021900002D14F4B1B680FE04FF00073BB64BB6C68
:1021A00093FAA3F37B644FF000733B643B6C93FAA8
:1021B000A3F3FB63464B5B6A4FF00072BA63BA6BE2
:1021C00092FAA2F27A637A6BB2FA82F2D2B242F057
:1021D0002002D2B202F01F02012101FA02F21340E2
:1021E000002B3AD10123B2E002233B633B6B93FA0D
:1021F000A3F3FB62FB6AB3FA83F3DBB25B09DBB2E6
:1022000043F00103DBB2012B02D1314B1B680DE01F
:102210000223BB62BB6A93FAA3F37B6202233B6295
:102220003B6A93FAA3F3FB61294B5B6A0222BA6112
:10223000BA6992FAA2F27A617A69B2FA82F2D2B2F9
:1022400042F02002D2B202F01F02012101FA02F292
:102250001340002B01D1012379E01D4B5B6823F073
:1022600003027B685B681A4913434B60FEF738FB37
:1022700078670AE0FEF734FB02467B6FD31A41F21F
:102280008832934201D9032361E0114B5B6803F06C
:102290000C027B685B689B009A42EBD10B4B1B687E
:1022A00003F007033A689A4214D2084B1B6823F0E4
:1022B000070206493B6813430B60044B1B6803F09D
:1022C00007033A689A4205D0012340E0002002400B
:1022D000001002407B681B6803F00403002B08D049
:1022E0001D4B5B6823F4E0627B68DB681A4913438B
:1022F0004B607B681B6803F00803002B09D0164B6A
:102300005B6823F460527B681B69DB00124913434E
:102310004B6000F029F801460F4B5B6803F0F003B7
:10232000F0223A613A6992FAA2F2FA60FA68B2FAD5
:1023300082F2D2B2D340094AD35C21FA03F3084AAD
:102340001360084B1B681846FEF786FA00231846F0
:102350007837BD4680BD00BF001002407C480108B0
:10236000000000200400002080B48BB000AF0023E8
:10237000FB610023BB6100237B6200237B610023A0
:102380003B622A4B5B68FB61FB6903F00C03042B87
:1023900002D0082B03D03FE0254B3B623FE0FB69B6
:1023A00003F470134FF47012BA60BA6892FAA2F292
:1023B0007A607A68B2FA82F2D2B2D3401D4AD35C14
:1023C0007B611A4BDB6A03F00F030F223A613A6913
:1023D00092FAA2F2FA60FA68B2FA82F2D2B2D3406A
:1023E000154AD35CBB61FB6903F48033002B08D032
:1023F0000F4ABB69B2FBF3F27B6902FB03F37B621A
:1024000007E00B4ABB69B2FBF3F27B6902FB03F303
:102410007B627B6A3B6202E0054B3B6200BF3B6A2A
:1024200018462C37BD465DF8047B7047001002400B
:1024300000127A0094480108A448010880B400AF53
:10244000034B1B681846BD465DF8047B704700BF10
:102450000000002080B582B000AFFFF7EFFF01461B
:102460000B4B5B6803F4E0634FF4E0627A607A68D8
:1024700092FAA2F23A603A68B2FA82F2D2B2D34049
:10248000044AD35C21FA03F318460837BD4680BDE1
:10249000001002408C48010880B582B000AFFFF701
:1024A000CDFF01460B4B5B6803F460534FF4605261
:1024B0007A607A6892FAA2F23A603A68B2FA82F2E4
:1024C000D2B2D340044AD35C21FA03F3184608374A
:1024D000BD4680BD001002408C48010880B592B016
:1024E00000AF786000233B640023FB63002387F880
:1024F00047307B681B6803F48033002B00F0D480E6
:102500004E4BDB6903F08053002B0ED14B4BDB6944
:102510004A4A43F08053D361484BDB6903F0805350
:10252000BB60BB68012387F84730454B1B6803F449
:102530008073002B18D1424B1B68414A43F48073CF
:102540001360FEF7CDF9386408E0FEF7C9F90246DA
:102550003B6CD31A642B01D90323D6E1384B1B689B
:1025600003F48073002BF0D0344B1B6A03F44073E8
:10257000FB63FB6B002B00F084807B685B6803F4DB
:102580004073FA6B9A427CD02C4B1B6A23F4407345
:10259000FB634FF480333B633B6B93FAA3F3FB6223
:1025A000FB6AB3FA83F3DBB21A46264B13449B0053
:1025B0001A46012313604FF48033BB63BB6B93FA5D
:1025C000A3F37B637B6BB3FA83F3DBB21A461D4B39
:1025D00013449B001A4600231360184AFB6B1362D6
:1025E000FB6B03F00103002B4BD0FEF779F9386445
:1025F0000AE0FEF775F902463B6CD31A41F28832C5
:10260000934201D9032380E10223BB62BB6A93FAA0
:10261000A3F37B6202233B623B6A93FAA3F3FB6161
:10262000FB69B3FA83F3DBB25B09DBB243F002036D
:10263000DBB2022B08D1014B1B6A0DE000100240F7
:1026400000700040008190100223BB61BB6993FAC7
:10265000A3F37B619A4B5B6A02223A613A6992FA70
:10266000A2F2FA60FA68B2FA82F2D2B242F0400202
:10267000D2B202F01F02012101FA02F21340002B34
:10268000B7D08F4B1B6A23F440727B685B688C4920
:1026900013430B6297F84730012B05D1884BDB6958
:1026A000874A23F08053D3617B681B6803F00103E2
:1026B000002B08D0824B1B6B23F003027B689B68C6
:1026C0007F4913430B637B681B6803F00203002BF5
:1026D00008D07B4B1B6B23F440327B68DB68784966
:1026E00013430B637B681B6803F00403002B08D0C3
:1026F000734B1B6B23F440227B681B6970491343A7
:102700000B637B681B6803F02003002B08D06C4B25
:102710001B6B23F010027B68DB69694913430B6371
:102720007B681B6803F40033002B08D0644B5B68A4
:1027300023F480027B685B6D614913434B607B68C7
:102740001B6803F04003002B08D05D4B1B6B23F08C
:1027500020027B681B6A5A4913430B637B681B6822
:1027600003F48023002B08D0554B1B6B23F0400251
:102770007B685B6A524913430B637B681B6803F0F9
:102780000803002B08D04E4B1B6B23F440127B68D0
:102790005B694B4913430B637B681B6803F01003B1
:1027A000002B08D0464B1B6B23F440027B689B69CF
:1027B000434913430B637B681B6803F40073002BCE
:1027C00008D03F4B5B6823F400027B681B6B3C49DD
:1027D00013434B607B681B6803F08003002B08D019
:1027E000374BDB6A23F4F8727B689B6A34491343E6
:1027F000CB627B681B6803F48073002B08D0304BDE
:10280000DB6A23F478527B68DB6A2D491343CB6281
:102810007B681B6803F48053002B08D0284B1B6B8C
:1028200023F480727B685B6B254913430B637B68E1
:102830001B6803F40053002B08D0214B1B6B23F4BF
:1028400000727B681B6C1E4913430B637B681B681B
:1028500003F48013002B08D0194B1B6B23F08072FC
:102860007B689B6B164913430B637B681B6803F4FF
:102870000013002B08D0124B1B6B23F000727B68F7
:10288000DB6B0F4913430B637B681B6803F4800306
:10289000002B08D00A4B1B6B23F480627B685B6CB7
:1028A000074913430B637B681B6803F40003002B89
:1028B0000CD0034B1B6B23F400627B6802E000BF6B
:1028C000001002409B6C134913430B637B681B6829
:1028D00003F08073002B08D00E4B1B6B23F40052C7
:1028E0007B68DB6C0B4913430B637B681B6803F04D
:1028F0000073002B08D0074B1B6B23F400427B684E
:102900001B6D044913430B63002318464837BD462B
:1029100080BD00BF0010024080B582B000AF78607B
:102920007B68002B01D1012340E07B689B6F002B6B
:1029300006D17B68002283F874207868FDF750FE8A
:102940007B6824229A677B681B681A687B681B680F
:1029500022F001021A60786800F0E6FB0346012BC2
:1029600001D1012322E07B685B6A002B02D07868EA
:1029700000F0B0FD7B681B685A687B681B6822F416
:1029800090425A607B681B689A687B681B6822F0DB
:102990002A029A607B681B681A687B681B6842F091
:1029A00001021A60786800F037FE034618460837BF
:1029B000BD4680BD80B48BB000AFF860B9601346EF
:1029C000FB80FB689B6F202B56D1BB68002B02D08D
:1029D000FB88002B01D101234FE0FB6893F8743092
:1029E000012B01D1022348E0FB68012283F8742007
:1029F000FB68BA68DA64FB68FA88A3F85020FB68C1
:102A0000FA88A3F85220FB6800229A66FB6800222D
:102A1000C3F88020FB6821229A67FB689B68B3F5A6
:102A2000805F07D1FB681B69002B03D1FB68164A46
:102A30009A6602E0FB68154A9A66FB68002283F8F2
:102A40007420FB681B687B617B6953E8003F3B6136
:102A50003B6943F080037B62FB681B681A467B6A14
:102A60003B62FA61F9693A6A41E80023BB61BB69DC
:102A7000002BE6D1002300E0022318462C37BD4688
:102A80005DF8047B704700BF373B01087F3A0108BF
:102A900080B58AB000AFF860B9601346FB80FB6870
:102AA000DB6F202B3DD1BB68002B02D0FB88002BB5
:102AB00001D1012336E0FB6893F87430012B01D17A
:102AC00002232FE0FB68012283F87420FB680022B8
:102AD0001A66FB681B685B6803F40003002B18D0C0
:102AE000FB681B687B617B6953E8003F3B613B6986
:102AF00043F080637B62FB681B681A467B6A3B621B
:102B0000FA61F9693A6A41E80023BB61BB69002BAD
:102B1000E6D1FB881A46B968F86800F08BFE0346D8
:102B200000E0022318462837BD4680BD80B5BAB004
:102B300000AF78607B681B68DB69C7F8E4307B68AE
:102B40001B681B68C7F8E0307B681B689B68C7F888
:102B5000DC30D7F8E42040F60F031340C7F8D83034
:102B6000D7F8D830002B15D1D7F8E43003F0200384
:102B7000002B0FD0D7F8E03003F02003002B09D052
:102B80007B685B6E002B00F0A3827B685B6E7868CD
:102B900098479DE2D7F8D830002B00F01781D7F87E
:102BA000DC3003F00103002B06D1D7F8E020854B81
:102BB0001340002B00F00A81D7F8E43003F0010342
:102BC000002B11D0D7F8E03003F48073002B0BD02A
:102BD0007B681B6801221A627B68D3F8803043F05F
:102BE00001027B68C3F88020D7F8E43003F00203C9
:102BF000002B11D0D7F8DC3003F00103002B0BD0F1
:102C00007B681B6802221A627B68D3F8803043F02D
:102C100004027B68C3F88020D7F8E43003F0040393
:102C2000002B11D0D7F8DC3003F00103002B0BD0C0
:102C30007B681B6804221A627B68D3F8803043F0FB
:102C400002027B68C3F88020D7F8E43003F0080361
:102C5000002B17D0D7F8E03003F02003002B05D16C
:102C6000D7F8DC3003F00103002B0BD07B681B6826
:102C700008221A627B68D3F8803043F008027B6830
:102C8000C3F88020D7F8E43003F40063002B12D09F
:102C9000D7F8E03003F08063002B0CD07B681B6812
:102CA0004FF400621A627B68D3F8803043F0200250
:102CB0007B68C3F880207B68D3F88030002B00F05D
:102CC0000982D7F8E43003F02003002B0DD0D7F8A9
:102CD000E03003F02003002B07D07B685B6E002BF5
:102CE00003D07B685B6E786898477B68D3F8803048
:102CF000C7F8D4307B681B689B6803F04003402B07
:102D000005D0D7F8D43003F02803002B4FD07868D3
:102D100000F03CFE7B681B689B6803F04003402B7F
:102D200041D17B681B680833C7F89C30D7F89C30CA
:102D300053E8003FC7F89830D7F8983023F04003A5
:102D4000C7F8D0307B681B680833D7F8D020C7F8A5
:102D5000A820C7F8A430D7F8A410D7F8A82041E8D5
:102D60000023C7F8A030D7F8A030002BD9D17B685A
:102D70001B6F002B13D07B681B6F134A5A637B6851
:102D80001B6F1846FDF726FF0346002B17D07B6804
:102D90001B6F5B6B7A68126F104698470FE078687C
:102DA00000F0ACF90BE0786800F0A8F907E078686B
:102DB00000F0A4F97B680022C3F880208AE100BFFC
:102DC00088E100BF20010004533A01087B681B6EB4
:102DD000012B40F04381D7F8E43003F01003002BBF
:102DE00000F03C81D7F8E03003F01003002B00F036
:102DF00035817B681B6810221A627B681B689B68A0
:102E000003F04003402B40F0B1807B681B6F1B68D0
:102E10005B68A7F8BE30B7F8BE30002B00F05C81CD
:102E20007B68B3F85830B7F8BE209A4280F05481DE
:102E30007B68B7F8BE20A3F85A207B681B6F9B699C
:102E4000202B00F085807B681B68C7F88830D7F896
:102E5000883053E8003FC7F88430D7F8843023F433
:102E60008073C7F8B8307B681B681A46D7F8B8304B
:102E7000C7F89430C7F89020D7F89010D7F894206E
:102E800041E80023C7F88C30D7F88C30002BDAD11A
:102E90007B681B6808337B677B6F53E8003F3B67A9
:102EA0003B6F23F00103C7F8B4307B681B6808331D
:102EB000D7F8B420C7F88020FB67F96FD7F88020D7
:102EC00041E80023BB67BB6F002BE1D17B681B6827
:102ED00008333B663B6E53E8003FFB65FB6D23F018
:102EE0004003C7F8B0307B681B680833D7F8B020C0
:102EF000FA66BB66B96EFA6E41E800237B667B6EAC
:102F0000002BE3D17B682022DA677B6800221A66F7
:102F10007B681B68FB64FB6C53E8003FBB64BB6CC5
:102F200023F01003C7F8AC307B681B681A46D7F84B
:102F3000AC30BB657A65796DBA6D41E800233B65BD
:102F40003B6D002BE4D17B681B6F1846FDF709FE33
:102F50007B68B3F858207B68B3F85A309BB2D31A19
:102F60009BB21946786800F0D3F8B5E07B68B3F8F7
:102F700058207B68B3F85A309BB2D31AA7F8CE30EA
:102F80007B68B3F85A309BB2002B00F0A780B7F8EB
:102F9000CE30002B00F0A2807B681B68BB63BB6B4C
:102FA00053E8003F7B637B6B23F49073C7F8C83012
:102FB0007B681B681A46D7F8C8307B643A64396C62
:102FC0007A6C41E80023FB63FB6B002BE4D17B6848
:102FD0001B6808337B627B6A53E8003F3B623B6AB5
:102FE00023F00103C7F8C4307B681B680833D7F8A7
:102FF000C4203A63FB62F96A3A6B41E80023BB6282
:10300000BB6A002BE3D17B682022DA677B68002251
:103010001A667B6800225A667B681B683B613B69C5
:1030200053E8003FFB60FB6823F01003C7F8C03093
:103030007B681B681A46D7F8C030FB61BA61B96972
:10304000FA6941E800237B617B69002BE4D1B7F882
:10305000CE301946786800F05BF83FE0D7F8E430EE
:1030600003F48013002B0ED0D7F8DC3003F4800378
:10307000002B08D07B681B684FF480121A627868B6
:1030800000F03FFF2DE0D7F8E43003F08003002B81
:103090000ED0D7F8E03003F08003002B08D07B6817
:1030A0009B6E002B1CD07B689B6E7868984717E05E
:1030B000D7F8E43003F04003002B12D0D7F8E0300B
:1030C00003F04003002B0CD0786800F094FD08E07A
:1030D00000BF06E000BF04E000BF02E000BF00E068
:1030E00000BFE837BD4680BD80B483B000AF7860D4
:1030F00000BF0C37BD465DF8047B704780B483B0D9
:1031000000AF786000BF0C37BD465DF8047B7047A8
:1031100080B483B000AF78600B467B8000BF0C3773
:10312000BD465DF8047B704780B588B000AF78601D
:103130000023BB777B689A687B681B691A437B68AE
:103140005B691A437B68DB6913437B617B681B689F
:103150001A68924B13407A68126879690B431360BE
:103160007B681B685B6823F440517B68DA687B6886
:103170001B680A435A607B689B697B617B681B6A9A
:103180007A6913437B617B681B689B6823F4306119
:103190007B681B687A690A439A607B681B68804A6F
:1031A000934220D17F4B1B6B03F00303032B17D8F3
:1031B00001A252F823F000BFC9310108D53101083E
:1031C000DB310108CF3101080123FB77B5E0022391
:1031D000FB77B2E00423FB77AFE00823FB77ACE09A
:1031E0001023FB77A9E07B681B686F4A934224D1C8
:1031F0006C4B1B6B03F44033B3F5403F11D0B3F578
:10320000403F17D8B3F5003F11D0B3F5003F11D8B8
:10321000002B03D0B3F5803F06D00BE00023FB77F3
:103220008BE00223FB7788E00423FB7785E008230B
:10323000FB7782E01023FB777FE07B681B685B4AAB
:10324000934224D1574B1B6B03F44023B3F5402F1B
:1032500011D0B3F5402F17D8B3F5002F11D0B3F527
:10326000002F11D8002B03D0B3F5802F06D00BE030
:103270000023FB7761E00223FB775EE00423FB770A
:103280005BE00823FB7758E01023FB7755E07B6871
:103290001B68474A934224D1424B1B6B03F44013F3
:1032A000B3F5401F11D0B3F5401F17D8B3F5001F79
:1032B00011D0B3F5001F11D8002B03D0B3F5801F38
:1032C00006D00BE00023FB7737E00223FB7734E0E6
:1032D0000423FB7731E00823FB772EE01023FB77F4
:1032E0002BE07B681B68334A934224D12D4B1B6B28
:1032F00003F44003B3F5400F11D0B3F5400F17D8D6
:10330000B3F5000F11D0B3F5000F11D8002B03D087
:10331000B3F5800F06D00BE00023FB770DE002230E
:10332000FB770AE00423FB7707E00823FB7704E040
:103330001023FB7701E01023FB777B68DB69B3F593
:10334000004F6CD1FB7F082B38D801A252F823F034
:10335000753301087D33010885330108BD33010849
:103360008B330108BD330108BD330108BD330108AB
:1033700093330108FFF76EF8B86124E0FFF78CF88B
:10338000B86120E00C4BBB611DE0FEF7EDFFB861BA
:1033900019E04FF40043BB6115E000BFF369FFEF94
:1033A0000038014000100240004400400048004046
:1033B000004C00400050004000127A000023BB6126
:1033C0000123BB7700BFBB69002B75D0BB695A00D6
:1033D0007B685B685B081A447B685B68B2FBF3F34D
:1033E0009BB23B613B690F2B16D93B69B3F5803F1C
:1033F00012D23B699BB223F00F03FB813B695B0850
:103400009BB203F007039AB2FB891343FB817B68ED
:103410001B68FA89DA604FE00123BB774CE0FB7F41
:10342000082B28D801A252F823F000BF513401081C
:103430005934010861340108773401086734010800
:103440007734010877340108773401086F340108B4
:10345000FFF700F8B86113E0FFF71EF8B8610FE05E
:103460001B4BBB610CE0FEF77FFFB86108E04FF437
:103470000043BB6104E00023BB610123BB7700BFB5
:10348000BB69002B18D07B685B685A08BB691A447B
:103490007B685B68B2FBF3F39BB23B613B690F2B2C
:1034A00008D93B69B3F5803F04D27B681B683A6951
:1034B000DA6001E00123BB777B6800225A667B68F3
:1034C00000229A66BB7F18462037BD4680BD00BFEC
:1034D00000127A0080B483B000AF78607B685B6ACA
:1034E00003F00103002B0AD07B681B685B6823F4A0
:1034F00000317B689A6A7B681B680A435A607B6864
:103500005B6A03F00203002B0AD07B681B685B68D0
:1035100023F480317B68DA6A7B681B680A435A604F
:103520007B685B6A03F00403002B0AD07B681B688E
:103530005B6823F480217B681A6B7B681B680A43F5
:103540005A607B685B6A03F00803002B0AD07B6833
:103550001B685B6823F400417B685A6B7B681B68BF
:103560000A435A607B685B6A03F01003002B0AD0A1
:103570007B681B689B6823F480517B689A6B7B682F
:103580001B680A439A607B685B6A03F02003002B88
:103590000AD07B681B689B6823F400517B68DA6B58
:1035A0007B681B680A439A607B685B6A03F0400390
:1035B000002B1AD07B681B685B6823F480117B6842
:1035C0001A6C7B681B680A435A607B681B6CB3F5F6
:1035D000801F0AD17B681B685B6823F4C0017B688D
:1035E0005A6C7B681B680A435A607B685B6A03F00D
:1035F0008003002B0AD07B681B685B6823F40021E2
:103600007B689A6C7B681B680A435A6000BF0C3762
:10361000BD465DF8047B704780B586B002AF786028
:103620007B680022C3F88020FDF75AF9F8607B68B8
:103630001B681B6803F00803082B0ED16FF07E4354
:103640000093FB6800224FF40011786800F02DF819
:103650000346002B01D0032323E07B681B681B6813
:1036600003F00403042B0ED16FF07E430093FB683C
:1036700000224FF48001786800F017F80346002B11
:1036800001D003230DE07B6820229A677B6820220B
:10369000DA677B6800221A667B68002283F8742050
:1036A000002318461037BD4680BD80B59CB000AFE2
:1036B000F860B9603B601346FB71A5E0BB6FB3F1E6
:1036C000FF3F00F0A180FDF70BF902463B68D31ADB
:1036D000BA6F9A4202D3BB6F002B3ED1FB681B68C6
:1036E0003B653B6D53E8003FFB64FB6C23F4D073F8
:1036F0007B66FB681B681A467B6EFB65BA65B96D15
:10370000FA6D41E800237B657B6D002BE6D1FB68F9
:103710001B680833FB63FB6B53E8003FBB63BB6B69
:1037200023F001033B66FB681B6808333A6EBA64FA
:103730007B64796CBA6C41E800233B643B6C002BE2
:10374000E5D1FB6820229A67FB682022DA67FB68D4
:10375000002283F87420032367E0FB681B681B6862
:1037600003F00403002B4FD0FB681B68DB6903F4F4
:103770000063B3F5006F47D1FB681B684FF400622C
:103780001A62FB681B68BB62BB6A53E8003F7B623E
:103790007B6A23F4D073FB66FB681B681A46FB6EDA
:1037A0007B633A63396B7A6B41E80023FB62FB6A07
:1037B000002BE6D1FB681B6808337B617B6953E80B
:1037C000003F3B613B6923F00103BB66FB681B685C
:1037D0000833BA6E3A62FB61F9693A6A41E800233C
:1037E000BB61BB69002BE5D1FB6820229A67FB68AF
:1037F0002022DA67FB682022C3F88020FB680022C1
:1038000083F87420032310E0FB681B68DA69BB6847
:103810001340BA689A420CBF01230023DBB21A4658
:10382000FB799A423FF44AAF002318467037BD46F1
:1038300080BD000080B491B000AFF860B96013465D
:10384000FB80FB68BA685A65FB68FA88A3F85820C1
:10385000FB68FA88A3F85A20FB6800225A66FB68C6
:103860009B68B3F5805F0ED1FB681B69002B05D107
:10387000FB6840F2FF12A3F85C202DE0FB68FF22FA
:10388000A3F85C2028E0FB689B68002B0DD1FB6847
:103890001B69002B04D1FB68FF22A3F85C201BE00E
:1038A000FB687F22A3F85C2016E0FB689B68B3F1FD
:1038B000805F0DD1FB681B69002B04D1FB687F2260
:1038C000A3F85C2008E0FB683F22A3F85C2003E03B
:1038D000FB680022A3F85C20FB680022C3F880206C
:1038E000FB682222DA67FB681B680833BB62BB6A8D
:1038F00053E8003F7B627B6A43F00103FB63FB6894
:103900001B680833FA6B7A633B63396B7A6B41E867
:103910000023FB62FB6A002BE5D1FB689B68B3F5D3
:10392000805F07D1FB681B69002B03D1FB68154A38
:103930005A6602E0FB68144A5A66FB68002283F864
:103940007420FB681B687B617B6953E8003F3B6127
:103950003B6943F49073BB63FB681B681A46BB6BFF
:103960003B62FA61F9693A6A41E80023BB61BB69CD
:10397000002BE6D1002318464437BD465DF8047B92
:10398000704700BFA73D01084B3C010880B495B0CB
:1039900000AF78607B681B687B637B6B53E8003FFC
:1039A0003B633B6B23F49073FB647B681B681A4694
:1039B000FB6C3B64FA63F96B3A6C41E80023BB6330
:1039C000BB6B002BE6D17B681B6808333B623B6A0C
:1039D00053E8003FFB61FB6923F00103BB647B6894
:1039E0001B680833BA6CFA62BB62B96AFA6A41E8CA
:1039F00000237B627B6A002BE5D17B681B6E012B69
:103A000018D17B681B68FB60FB6853E8003FBB6014
:103A1000BB6823F010037B647B681B681A467B6CD1
:103A2000BB617A617969BA6941E800233B613B690E
:103A3000002BE6D17B682022DA677B6800221A66B9
:103A40007B6800225A6600BF5437BD465DF8047B90
:103A5000704780B584B000AF78607B685B6AFB60BC
:103A6000FB680022A3F85A20FB680022A3F852202A
:103A7000F868FFF743FB00BF1037BD4680BD80B438
:103A80008FB000AF78607B689B6F212B4DD17B6836
:103A9000B3F852309BB2002B32D17B681B683B627B
:103AA0003B6A53E8003FFB61FB6923F080037B63C3
:103AB0007B681B681A467B6BFB62BA62B96AFA6A5A
:103AC00041E800237B627B6A002BE6D17B681B68A0
:103AD000FB60FB6853E8003FBB60BB6843F04003FA
:103AE0003B637B681B681A463B6BBB617A617969F3
:103AF000BA6941E800233B613B69002BE6D114E041
:103B00007B68DB6C1A787B681B6892B21A857B68CD
:103B1000DB6C5A1C7B68DA647B68B3F852309BB26A
:103B2000013B9AB27B68A3F8522000BF3C37BD46E8
:103B30005DF8047B704780B491B000AF78607B681B
:103B40009B6F212B51D17B68B3F852309BB2002B75
:103B500032D17B681B687B627B6A53E8003F3B6223
:103B60003B6A23F08003BB637B681B681A46BB6B10
:103B70003B63FA62F96A3A6B41E80023BB62BB6AB5
:103B8000002BE6D17B681B683B613B6953E8003F33
:103B9000FB60FB6843F040037B637B681B681A464D
:103BA0007B6BFB61BA61B969FA6941E800237B610B
:103BB0007B69002BE6D118E07B68DB6CFB63FB6B59
:103BC0001A887B681B68C2F3080292B21A857B6868
:103BD000DB6C9A1C7B68DA647B68B3F852309BB26A
:103BE000013B9AB27B68A3F8522000BF4437BD4620
:103BF0005DF8047B704780B588B000AF78607B6863
:103C00001B68FB60FB6853E8003FBB60BB6823F0A8
:103C10004003FB617B681B681A46FB69BB617A61E4
:103C20007969BA6941E800233B613B69002BE6D121
:103C30007B6820229A677B6800229A667868FFF783
:103C400053FA00BF2037BD4680BD80B596B000AFA7
:103C500078607B68B3F85C30A7F856307B68DB6F20
:103C6000222B40F094807B681B689B8CA7F8543013
:103C7000B7F85430D9B2B7F85630DAB27B685B6D1A
:103C80000A40D2B21A707B685B6D5A1C7B685A6519
:103C90007B68B3F85A309BB2013B9AB27B68A3F8B9
:103CA0005A207B68B3F85A309BB2002B77D17B68DF
:103CB0001B68BB63BB6B53E8003F7B637B6B23F4E8
:103CC00090733B657B681B681A463B6D7B643A6466
:103CD000396C7A6C41E80023FB63FB6B002BE6D167
:103CE0007B681B6808337B627B6A53E8003F3B625A
:103CF0003B6A23F00103FB647B681B680833FA6CA2
:103D00003A63FB62F96A3A6B41E80023BB62BB6A23
:103D1000002BE5D17B682022DA677B6800225A6697
:103D20007B681B6E012B2ED17B6800221A667B6894
:103D30001B683B613B6953E8003FFB60FB6823F075
:103D40001003BB647B681B681A46BB6CFB61BA61DD
:103D5000B969FA6941E800237B617B69002BE6D1F0
:103D60007B681B68DB6903F01003102B03D17B68B1
:103D70001B6810221A627B68B3F8583019467868BD
:103D8000FFF7C6F90BE07868FCF790FA07E07B686C
:103D90001B689A697B681B6842F008029A6100BF41
:103DA0005837BD4680BD80B596B000AF78607B685F
:103DB000B3F85C30A7F856307B68DB6F222B40F0FD
:103DC00094807B681B689B8CA7F854307B685B6D84
:103DD0003B65B7F85420B7F8563013409AB23B6DA4
:103DE0001A807B685B6D9A1C7B685A657B68B3F8A8
:103DF0005A309BB2013B9AB27B68A3F85A207B6889
:103E0000B3F85A309BB2002B77D17B681B687B6379
:103E10007B6B53E8003F3B633B6B23F49073FB6485
:103E20007B681B681A46FB6C3B64FA63F96B3A6C5F
:103E300041E80023BB63BB6B002BE6D17B681B68AA
:103E400008333B623B6A53E8003FFB61FB6923F0A8
:103E50000103BB647B681B680833BA6CFA62BB62FF
:103E6000B96AFA6A41E800237B627B6A002BE5D1DC
:103E70007B682022DA677B6800225A667B681B6EAB
:103E8000012B2ED17B6800221A667B681B68FB60C1
:103E9000FB6853E8003FBB60BB6823F010037B6402
:103EA0007B681B681A467B6CBB617A617969BA6969
:103EB00041E800233B613B69002BE6D17B681B682E
:103EC000DB6903F01003102B03D17B681B68102201
:103ED0001A627B68B3F8583019467868FFF718F90A
:103EE0000BE07868FCF7E2F907E07B681B689A69E9
:103EF0007B681B6842F008029A6100BF5837BD46D4
:103F000080BD80B483B000AF786000BF0C37BD4681
:103F10005DF8047B70470000014B1868704700BFD4
:103F20000C00002070B50D4D0D4C641BA410002634
:103F3000A64209D10B4D0C4C00F08EFC641BA41062
:103F40000026A64205D170BD55F8043B98470136BE
:103F5000EEE755F8043B98470136F2E7E8480108D8
:103F6000E8480108E8480108EC4801080244034613
:103F7000934200D1704703F8011BF9E70EB400B576
:103F80009CB01DAB029006906FF00041094807916C
:103F90000491094953F8042B05910068019302A983
:103FA00000F068F8029B00221A701CB05DF804EB68
:103FB00003B070470C0000200802FFFF2DE9F04716
:103FC0008E689E4282460C4690461F4638D88A89A3
:103FD00012F4906F32D025680969A5EB0109656973
:103FE00005EB450505EBD57501334B446D109D423E
:103FF00038BF1D46530531D5294600F063FB064600
:1040000050B90C23CAF80030A38943F04003A381C0
:104010004FF0FF30BDE8F08721694A4600F0BEFA54
:10402000A38923F4906343F08003A3812661656133
:104030004E44A5EB09052660A5603E46BE4200D968
:104040003E4620683246414600F0B6FAA3689B1B04
:10405000A3602368334423600020DBE72A4600F096
:10406000A5FB06460028E1D12169504600F0BEFAC2
:10407000C7E700002DE9F04F98468B891B069DB0DD
:1040800007460D4614460ED50B6963B9402100F072
:1040900019FB2860286120B90C233B604FF0FF30EA
:1040A000D1E040236B610023099320238DF8293050
:1040B000CDF80C803023DFF8A8818DF82A304FF03E
:1040C000010923469A4613F8012B0AB1252AF9D192
:1040D000BAEB040B0BD05B46224629463846FFF765
:1040E0006DFF013000F0AA80099A5A4409929AF8AB
:1040F0000030002B00F0A28000234FF0FF32CDE90A
:1041000005230AF1010A049307938DF853301A939B
:104110005446052214F8011B5148FCF761F8049A33
:10412000D8B9D00644BF20238DF85330110744BFBF
:104130002B238DF853309AF800302A2B15D0079A8C
:10414000544600204FF00A0C214611F8013B303B49
:10415000092B4ED9B0B1079214E0A0EB080309FA7D
:1041600003F313430493A246D2E7039B191D1B6874
:104170000391002BBBBF5B4242F0020207930793FF
:10418000B8BF049223782E2B0CD163782A2B35D11B
:10419000039B1A1D1B680392002BB8BF4FF0FF331F
:1041A00002340593DFF8C8A0217803225046FCF7BB
:1041B00017F840B14023A0EB0A0003FA00F0049B7B
:1041C00003430134049314F8011B26488DF828108A
:1041D0000622FCF705F8002838D0234B1BBB039BB5
:1041E000073323F0070308330393099B33440993F0
:1041F00067E70CFB02320C460120A5E700230134DF
:10420000059319464FF00A0C204610F8012B303A5E
:10421000092A03D9002BC5D00591C3E70CFB012166
:1042200004460123F0E703AB00932A460F4B04A991
:104230003846AFF30080421C0646D6D1AB895B06F8
:104240003FF52CAF09981DB0BDE8F08F03AB00938C
:104250002A46064B04A9384600F07AF8EBE700BF7F
:10426000B4480108BE48010800000000BD3F010835
:10427000BA4801082DE9F047164699468A680B6945
:10428000DDF820809342B8BF1346336091F8432095
:1042900007460C460AB1013333602368990642BFD2
:1042A000336802333360256815F0060506D104F142
:1042B000190AE36832689B1AAB4226DC94F8432063
:1042C000131E226818BF012392062BD404F1430267
:1042D00049463846C04701301ED02368E568326839
:1042E00003F00603042B08BFAD1AA36822690CBFB4
:1042F00025EAE57500259342C4BF9B1AED180026F8
:104300001A34B5421AD1002008E00123524649462A
:104310003846C047013003D14FF0FF30BDE8F08789
:104320000135C6E7E1185A1C302081F843002244C9
:1043300094F8451082F843100233C7E70123224660
:1043400049463846C0470130E6D00136D9E700007B
:104350002DE9FF470F7E0C9D782F914680460C4635
:104360009A4601F1430207D8622F0AD8002F00F0C5
:10437000D880582F00F0A38004F1420584F84270E1
:104380003AE0A7F16303152BF6D801A151F823F009
:10439000E9430108FD430108794301087943010815
:1043A0007943010879430108FD4301087943010875
:1043B0007943010879430108794301080945010857
:1043C0002D440108EB4401087943010879430108B1
:1043D0002B450108794301082D4401087943010860
:1043E00079430108F34401082B681A1D1B682A60F1
:1043F00004F1420584F842300123A3E020682968D3
:10440000060601F104030AD50E682B60002E03DABC
:104410002D23764284F843305E480A2319E00E6863
:104420002B6010F0400F18BF36B2EFE72B68206802
:10443000191D2960010601D51E6802E04606FBD55C
:104440001E8854486F2F0CBF08230A23002184F8CC
:1044500043106568A560002DA2BF216821F004010A
:1044600021600EB9002D4DD01546B6FBF3F103FBCC
:104470001167C75D05F8017D3746BB420E46F4D98A
:10448000082B0BD12368DE0708D5236961689942A0
:10449000DEBF302305F8013C05F1FF35521B2261D8
:1044A000CDF800A04B4603AA21464046FFF7E2FEA6
:1044B00001304CD14FF0FF3004B0BDE8F0873548F3
:1044C00081F845702968236851F8046B29601D063E
:1044D00014D5DF0744BF43F0200323601EB92368CF
:1044E00023F0200323601023B0E7236843F0200368
:1044F00023607823284884F84530E3E7590648BF0D
:10450000B6B2E6E71546BBE72B6826686169181D59
:10451000286035061B6801D5196002E07006FBD5DE
:104520001980002323611546BAE72B681A1D2A60FB
:104530001D68626800212846FBF752FE08B1401B47
:10454000606063682361002384F84330A8E723692F
:104550002A4649464046D0470130ABD023689B07E6
:1045600013D4E068039B9842B8BF1846A4E7012320
:10457000324649464046D04701309BD00135E3687A
:1045800003995B1AAB42F2DCEBE7002504F1190654
:10459000F5E700BFC5480108D64801080A44914222
:1045A00000F1FF3300D1704710B511F8014B03F84B
:1045B000014F9142F9D110BD884210B501EB0204C0
:1045C00002D98442234607D8431EA14208D011F8DD
:1045D000012B03F8012FF8E7024401468A4200D17B
:1045E00010BD13F8014D02F8014DF7E737B500296A
:1045F00044D051F8043C0190002BA1F10404B8BF51
:10460000E41800F013F91E4A0198136833B9636087
:10461000146003B0BDE8304000F00EB9A34208D9E1
:10462000256861198B4201BF19685B6849192160CF
:10463000EDE71A465B680BB1A342FAD91168551829
:10464000A5420BD1246821445418A3421160E0D143
:104650001C685B68536021441160DAE702D90C23BF
:104660000360D6E7256861198B4204BF19685B684F
:10467000636004BF491921605460CAE703B030BDCC
:10468000A001002070B50E4E0C463168054611B9E8
:1046900000F0BCF830602146284600F0B7F8431C13
:1046A0000AD0C41C24F00304A04207D0211A2846D3
:1046B00000F0ACF8013001D14FF0FF34204670BD5E
:1046C000A40100202DE9F041CD1C25F0030508359B
:1046D0000C2D38BF0C25002D074601DBA94205D95A
:1046E0000C233B6000263046BDE8F0812E4E00F0E2
:1046F0009DF833681C4634BB29463846FFF7C2FF95
:10470000431C04464DD134682646002E40D1236810
:104710003146384604EB030800F078F880453AD17A
:10472000216803356D1A25F0030508350C2D38BFB7
:104730000C2529463846FFF7A5FF01302BD023680A
:104740002B4423600EE02268521B1ED40B2A16D97C
:104750006119A342256018BF5960636808BF3160C2
:1047600062514B60384604F10B0600F065F826F004
:104770000706231DF21AB6D09B1BA350B3E762684D
:10478000A3420CBF32605A60ECE723466468B2E78C
:1047900034467668B9E70C233B60384600F04CF8A5
:1047A000A1E72560DEE700BFA00100202DE9F04170
:1047B000804614460E4621B9BDE8F0411146FFF788
:1047C00081BF2AB9FFF712FF25462846BDE8F081D0
:1047D00000F038F88442074602D8B4EB500F12D8E4
:1047E00021464046FFF76EFF05460028EDD0BC424B
:1047F0002246314628BF3A46FFF7D0FE31464046B2
:10480000FFF7F4FEE1E73546DFE7000038B5064D77
:104810000023044608462B60FBF792FF431C02D19D
:104820002B6803B1236038BDA8010020014800F0C7
:1048300011B800BFAC010020014800F00CB800BF67
:10484000AC01002051F8043C181F002BBCBF0B58D2
:10485000C018704770477047F8B500BFF8BC08BC77
:104860009E467047F8B500BFF8BC08BC9E4670472E
:1048700057524F4E474D53470000000000000000C4
:104880000000000001020304060708090000000000
:104890000102030402030405060708090A0B0C0DB4
:1048A0000E0F10100102030405060708090A0B0C7D
:1048B0000D0E0F10232D302B2000686C4C00656608
:1048C0006745464700303132333435363738394161
:1048D0004243444546003031323334353637383977
:0848E00061626364656600007B
:0448E800C5010108FD
:0448EC00A10101081D
:1048F00000127A00100000000100000010000020EB
:1049000000000000000000000000000000000000A7
:104910000000000000000000000000000000000097
:104920000000000000000000000000000000000087
:104930000000000000000000000000000000000077
:104940000000000000000000000000000000000067
:104950000000000000000000000000000000000057
:04000005080107D90E
:00000001FF
