:020000040800F2
:1000000000000120B112000831110008371100086A
:100010003D110008431100084911000800000000CC
:100020000000000000000000000000004F11000868
:100030005D110008000000006B1100087911000834
:100040000113000801130008011300080113000840
:100050000113000801130008011300080113000830
:100060000113000801130008011300080113000820
:100070000113000801130008011300080113000810
:100080000113000801130008011300080113000800
:1000900001130008011300080113000801130008F0
:1000A00001130008011300080113000801130008E0
:1000B00001130008011300080113000801130008D0
:1000C00001130008011300080113000801130008C0
:1000D000011300080113000885110008011300082E
:1000E00001130008011300080113000801130008A0
:1000F0000113000801130008011300080113000890
:1001000001130008000000000000000001130008B7
:10011000011300080113000801130008011300086F
:10012000011300080113000801130008011300085F
:100130000113000801130008000000000000000087
:10014000011300080113000801130008000000005B
:10015000000000000000000000000000000000009F
:10016000011300080113000801130008011300081F
:10017000011300080113000801130008011300080F
:100180000113000801130008000000000000000037
:04019000011300084F
:1001940010B5054C237833B9044B13B10448AFF3BD
:1001A40000800123237010BD100000200000000017
:1001B400FC4E000808B5034B1BB103490348AFF3D9
:1001C400008008BD0000000014000020FC4E000860
:1001D40080B58AB000AF07F1140300221A605A6098
:1001E4009A60DA601A612B4B5B692A4A43F4002354
:1001F4005361284B5B6903F400233B613B69254B46
:100204005B69244A43F480035361224B5B6903F422
:100214008003FB60FB681F4B5B691E4A43F4003399
:1002240053611C4B5B6903F40033BB60BB68194B1F
:100234005B69184A43F480235361164B5B6903F4EA
:1002440080237B607B68002220214FF0904001F0E6
:10025400CDFD4FF400537B614FF40413BB610023C5
:10026400FB6107F1140319460B4801F035FC202308
:100274007B610123BB610023FB6100233B6207F127
:10028400140319464FF0904001F026FC00BF2837B4
:10029400BD4680BD001002400008004880B582B011
:1002A40000AF786039607B683A681A607B681868C8
:1002B4007B684A330122194603F0B8FB00BF0837B4
:1002C400BD4680BD80B586B000AF78600023FB607A
:1002D40007F10C0207F110031946786800F00AF9D7
:1002E4000346FB75FB7D002B1FD04FF09042537DDE
:1002F40043F0100353757B681B683969FA6892B23E
:10030400184603F025FB0346BB757B6893F87720FA
:10031400FB68DBB21344DAB27B6883F87720BB7DD9
:10032400002B02D1FA687B68DA6300BF1837BD4638
:1003340080BD80B586B000AF78607B6893F8773075
:10034400002B03D07B68002283F877207B681B682E
:10035400B3F850301946786800F006F90023FB60C2
:1003640007F10C0207F110031946786800F0C2F88F
:100374000346FB75FB7D002B1FD04FF09042537D4D
:1003840043F0100353757B681B683969FA6892B2AD
:10039400184603F0DDFA0346BB757B6893F87720B3
:1003A400FB68DBB21344DAB27B6883F87720BB7D49
:1003B400002B02D1FA687B68DA637B6893F87730A4
:1003C400002B0BD1786800F049F80346002B05D0C8
:1003D4004FF09042537D6FF30413537500BF1837E9
:1003E400BD4680BD80B582B000AF78604FF09043C9
:1003F4005B7DC3F30013DBB283F00103DBB2002B9C
:1004040006D07B6893F84A301946786800F0C6FA3B
:100414007B6893F87730002B0CD1786800F01EF8D5
:100424000346002B0ED04FF09042537D6FF304131C
:10043400537507E07B6893F87730013BDAB27B6849
:1004440083F877207B6818687B684A330122194651
:1004540003F0ECFA00BF0837BD4680BD80B483B01A
:1004640000AF78607B6893F837207B6893F8383066
:100474009A420CBF01230023DBB218460C37BD4659
:100484005DF8047B7047000080B485B000AF7860ED
:100494000B46FB707B6893F83830FB607B6893F8FD
:1004A40038300133124A82FB03121111DA178A1A07
:1004B400322101FB02F29B1ABB607B6893F8373050
:1004C4001A46BB68934201D100230BE07A68FB68AB
:1004D40013440533FA781A70BB68DAB27B6883F880
:1004E4003820012318461437BD465DF8047B704755
:1004F4001F85EB5180B485B000AFF860B9607A60B5
:10050400FB6893F83720FB6893F838309A4201D19E
:10051400002323E0FB6893F83720FB6893F8383016
:100524009A420AD2FB6893F838301A46FB6893F86B
:100534003730D21A7B681A6006E0FB6893F83730CC
:10054400C3F132027B681A60FB6893F837301A46AD
:10055400FB6813445A1DBB681A60012318461437FC
:10056400BD465DF8047B704780B485B000AF786009
:1005740039600023FB60FA683B689A4221DA7B68A1
:1005840093F837207B6893F838309A4201D1FB689E
:1005940018E07B6893F8373001330D4A82FB03126D
:1005A4001111DA178A1A322101FB02F29B1ABB607D
:1005B400BB68DAB27B6883F83720FB680133FB60E1
:1005C400D9E73B6818461437BD465DF8047B70478D
:1005D4001F85EB5180B483B000AF78607B68002244
:1005E4001A717B68002283F837207B68002283F825
:1005F40038207B680022DA637B6800221A647B68F7
:1006040000225A647B680022A3F848207B680022F9
:1006140083F84C207B6800221A677B68002283F8E9
:1006240074207B68012283F875207B68012283F89B
:1006340076207B68002283F877207B6818460C3785
:10064400BD465DF8047B704780B485B000AF0346B7
:100654000A46FB801346BB80FB8803F58033DA022D
:10066400BB881344FB60FB681B887B817B8918462D
:100674001437BD465DF8047B704780B485B000AF85
:1006840003460A46FB801346BB80FB8803F5803390
:10069400DA02BB881344FB60FB681B68BB60BB6861
:1006A40018461437BD465DF8047B704780B582B0A8
:1006B40000AF01F0CFF80346FB71FB791846083709
:1006C400BD4680BD80B582B000AF01F09DF8034601
:1006D400FB71FB7918460837BD4680BDB0B584B0C0
:1006E40000AF0346FB800B46BB8013467B80FB8830
:1006F40003F58033DA02BB881344FB607B88002255
:100704001C46154622462B46F968012001F00CF8D8
:100714000346FB72FB7A18461037BD46B0BDB0B530
:1007240084B000AF03463A60FB800B46BB80FB8875
:1007340003F58033DA02BB881344FB603B68002274
:100744001C46154622462B46F968022000F0ECFFB1
:100754000346FB72FB7A18461037BD46B0BD80B520
:1007640088B000AF0346FB80FB8803F58033DB02CF
:10077400FB610023FB60FB693B6101237B61002378
:10078400BB6007F1080207F10C031146184601F09B
:10079400FFF80346FB76FB7E18462037BD4680BD36
:1007A40080B586B000AF78607B6804331B687B61DA
:1007B4007B693B6101F032FB00F0B8FD0C4B002279
:1007C4001A600B4B00225A60094B00229A60094AB6
:1007D4007B6893607B681B68FB60FB6883F3088815
:1007E40000BF3B69984700BF1837BD4680BD00BFB6
:1007F40010E000E000ED00E080B500AF0248FFF734
:10080400CFFF00BF80BD00BF0000010880B582B0EB
:1008140000AF7860054B1B687A689A4202D103489E
:10082400FFF787FD00BF0837BD4680BD2C000020C0
:1008340080B584B000AF78600523FB60054B1B686E
:100844007A689A4202D10348FFF7CCFD00BF103703
:10085400BD4680BD2C00002080B582B000AF00F002
:100864004FFD00F02DF8FFF7B3FC00F0A5FC104994
:100874001048FFF713FD00237B60FFF723FFFD20E3
:10088400FFF76DFFFFF712FF62B600BF0A4B0622A7
:100894001A70094B06225A70084B1B68002B14BFB0
:1008A40001230023DBB2002BF6D0FFF7A5FFF3E70B
:1008B400140100202C000020A4000020A800002027
:1008C40080B5A6B000AF07F17003282200211846B6
:1008D40004F00AFB07F15C0300221A605A609A6074
:1008E400DA601A613B1D58220021184604F0FCFA14
:1008F40002233B670123FB671023C7F880300223E0
:10090400C7F888304FF40043C7F88C304FF4E01335
:10091400C7F890300023C7F8943007F170031846E5
:1009240001F020FB0346002B14BF01230023DBB29C
:10093400002B01D000F0B2FB0F23FB6502233B66C2
:1009440000237B664FF48063BB660023FB6607F1DC
:100954005C030221184602F059FB0346002B14BF26
:1009640001230023DBB2002B01D000F097FB02230C
:100974007B6000233B613B1D184602F07DFD03466E
:10098400002B14BF01230023DBB2002B01D000F0A5
:1009940085FB00BF9837BD4680BD0000F0B589B027
:1009A40004AF78600B46FB70B24B1B68B249FA780F
:1009B400CA54B04B1B680133AE4A1360AD4B1B687D
:1009C400632B03DDAB4B00221A6000E000BF7B68A1
:1009D4001B6C2F2B00F2478201A252F823F000BFB8
:1009E400A50A0008350B00084F0B00086B0E000821
:1009F4006B0E00086B0E00086B0E00086B0E0008EF
:100A04006B0E00086B0E0008870B00089B0B000898
:100A1400AF0B0008C30B0008D70B0008EB0B000852
:100A2400FF0B0008130C00086B0E00086B0E000887
:100A34003B0C00084F0C0008630C0008810C0008F4
:100A4400950C0008A90C0008BD0C0008D10C000886
:100A54006B0E00086B0E00081F0D0008330D000814
:100A6400470D00085B0D00086F0D0008830D00089A
:100A7400970D0008AB0D00086B0E00086B0E000804
:100A8400C90D0008DD0D0008F10D0008050E000871
:100A9400190E00082D0E0008410E0008550E00081E
:100AA400FB78552B09D17B68FA7883F84D207B6855
:100AB4001B6C5A1C7B681A64D9E1FB78FA2B16D19B
:100AC4000021FD20FFF7C0FD03467B81FFF7FAFDFF
:100AD4004FF6FB220021FD20FFF700FEFFF7E6FDA5
:100AE4000021FD20FFF7B0FD03467B81BFE1FB78C9
:100AF400FB2B07D1FFF7E6FDFD20FFF730FEFFF7E4
:100B0400D5FDB4E1FB78FC2B12D10021FD20FFF7C9
:100B14009BFD0346FB81FB897B73FB891B0A9BB20C
:100B24003B733A7B7B7B1946786800F031FA9EE18F
:100B3400FB78042B09D17B68FA7883F84E207B6814
:100B44001B6C5A1C7B681A6491E1FB78002B03D15F
:100B54007B680A221A648AE1FB78012B03D17B6843
:100B640014221A6483E1FB78022B03D17B681E22D2
:100B74001A647CE1FB780F2B03D17B6828221A646A
:100B840075E17B68FA7883F84F207B681B6C5A1CEC
:100B94007B681A646BE17B68FA7883F850207B6881
:100BA4001B6C5A1C7B681A6461E17B68FA7883F8D1
:100BB40051207B681B6C5A1C7B681A6457E17B6864
:100BC400FA7883F852207B681B6C5A1C7B681A6481
:100BD4004DE17B68FA7883F853207B681B6C5A1CC0
:100BE4007B681A6443E17B68FA7883F854207B6855
:100BF4001B6C5A1C7B681A6439E17B68FA7883F8A9
:100C040055207B681B6C5A1C7B681A642FE17B6837
:100C1400FA7883F856207B6893F84F107B6893F832
:100C240050207B6893F85130786800F0DDF97B68D8
:100C340000221A641BE17B68FA7883F84F207B68F2
:100C44001B6C5A1C7B681A6411E17B68FA7883F880
:100C540050207B681B6C5A1C7B681A6407E17B6814
:100C6400FA7883F851207B681B6C5A1C7B681A64E1
:100C7400FDE000BFAC000020B00000207B68FA78E3
:100C840083F852207B681B6C5A1C7B681A64EEE064
:100C94007B68FA7883F853207B681B6C5A1C7B684A
:100CA4001A64E4E07B68FA7883F854207B681B6C50
:100CB4005A1C7B681A64DAE07B68FA7883F855205A
:100CC4007B681B6C5A1C7B681A64D0E07B68FA78DA
:100CD40083F856207B6893F84F407B6893F8505014
:100CE4007B6893F851607B6893F852307A6892F885
:100CF4005320796891F85410786890F8550003905F
:100D040002910192009333462A462146786800F006
:100D1400B9F87B6800221A64A9E07B68FA7883F842
:100D24004F207B681B6C5A1C7B681A649FE07B68AD
:100D3400FA7883F850207B681B6C5A1C7B681A6411
:100D440095E07B68FA7883F851207B681B6C5A1C09
:100D54007B681A648BE07B68FA7883F852207B689E
:100D64001B6C5A1C7B681A6481E07B68FA7883F8F0
:100D740053207B681B6C5A1C7B681A6477E07B6881
:100D8400FA7883F854207B681B6C5A1C7B681A64BD
:100D94006DE07B68FA7883F855207B681B6C5A1CDD
:100DA4007B681A6463E07B68FA7883F856207B6872
:100DB40093F84F301946786800F0AEF87B6800224B
:100DC4001A6454E07B68FA7883F84F207B681B6CC4
:100DD4005A1C7B681A644AE07B68FA7883F85020CE
:100DE4007B681B6C5A1C7B681A6440E07B68FA7849
:100DF40083F851207B681B6C5A1C7B681A6436E0AC
:100E04007B68FA7883F852207B681B6C5A1C7B68D9
:100E14001A642CE07B68FA7883F853207B681B6C97
:100E24005A1C7B681A6422E07B68FA7883F85420A1
:100E34007B681B6C5A1C7B681A6418E07B68FA7820
:100E440083F855207B681B6C5A1C7B681A640EE07F
:100E54007B68FA7883F85620786800F089F87B6814
:100E640000221A6403E07B6800221A64AFE57B6801
:100E74001B6C002B02D17B6814225A6400BF143708
:100E8400BD46F0BD80B584B000AF78600846114619
:100E94001A460346FB700B46BB7013467B70BB7847
:100EA4001B021AB27B781BB213431BB2FB813B7E3D
:100EB4001A063B7F1B041A4397F820301B021A437F
:100EC40097F824301343BB60FFF7FCFBFB789BB21D
:100ED400F989BA681846FFF722FCFFF7E7FB5A21A5
:100EE4000C48FFF7D1FA01210A48FFF7CDFAE021B7
:100EF4000848FFF7C9FAE1210648FFF7C5FAFF21C0
:100F04000448FFF7C1FA7868FFF7DCF900BF10372F
:100F1400BD4680BD2C00002080B582B000AF786053
:100F24000B46FB70FFF7CEFBFB789BB21846FFF72E
:100F340016FCFFF7BBFB5A210C48FFF7A5FA022168
:100F44000A48FFF7A1FAE0210848FFF79DFAE121DA
:100F54000648FFF799FAFF210448FFF795FA7868E5
:100F6400FFF7B0F900BF0837BD4680BD2C00002054
:100F740080B483B000AF7860044B01221A6000BFD4
:100F84000C37BD465DF8047B704700BFA800002005
:100F940080B582B000AF78600B46FB701346BB701F
:100FA4005A211048FFF770FABB7819460D48FFF72D
:100FB4006BFAFB7819460B48FFF766FAE0210948FB
:100FC400FFF762FAE1210748FFF75EFAFF210548BF
:100FD400FFF75AFA7868FFF775F900BF0837BD467E
:100FE40080BD00BF2C00002080B586B000AF7860C3
:100FF400084611461A460346FB700B46BB7013465F
:101004007B70BB781B021AB27B781BB213431BB2F2
:10101400FB82FB789BB2FA8A11461846FFF72DFB38
:1010240038613B69FB733B691B0ABB733B691B0C4F
:101034007B733B691B0E3B735A211748FFF724FA55
:1010440000211548FFF720FA3B7B19461248FFF7A9
:101054001BFA7B7B19461048FFF716FABB7B19462F
:101064000D48FFF711FAFB7B19460B48FFF70CFA02
:10107400E0210948FFF708FAE1210748FFF704FADD
:10108400FF210548FFF700FA7868FFF71BF900BF56
:101094001837BD4680BD00BF2C00002080B400AFCF
:1010A40072B600BFFEE7000080B582B000AF786082
:1010B40039607B68012B07D13B684FF6FF7293427E
:1010C40002D10348FFF786FA00BF0837BD4680BD4A
:1010D4002C00002080B500AF4FF6FF710120FFF710
:1010E400E3FF80BD80B582B000AF0F4B9B690E4A11
:1010F40043F0010393610C4B9B6903F001037B6094
:101104007B68094BDB69084A43F08053D361064B83
:10111400DB6903F080533B603B68072000F04CFA26
:1011240000BF0837BD4680BD0010024080B400AF48
:10113400FEE780B400AFFEE780B400AFFEE780B402
:1011440000AFFEE780B400AFFEE780B400AF00BF9D
:10115400BD465DF8047B704780B400AF00BFBD4658
:101164005DF8047B704780B400AF00BFBD465DF8F6
:10117400047B704780B500AF00F02EF900BF80BD3E
:1011840080B500AF024802F09FFC00BF80BD00BFE5
:101194001401002080B400AF064BD3F88830054A10
:1011A40043F47003C2F8883000BFBD465DF8047B89
:1011B400704700BF00ED00E080B500AF144B154A46
:1011C4001A60134B4FF416425A60114B00229A6076
:1011D4000F4B0022DA600E4B00221A610C4B0C22DA
:1011E4005A610B4B00229A61094B0022DA61084BC9
:1011F40000221A62064B00225A62054802F05AFB8A
:101204000346002B01D0FFF749FF00BF80BD00BF9C
:10121400140100200044004080B58AB000AF78601B
:1012240007F1140300221A605A609A60DA601A61A6
:101234007B681B681B4A934230D11B4BDB691A4AFB
:1012440043F40033D361184BDB6903F400333B618F
:101254003B69154B5B69144A43F400335361124BE9
:101264005B6903F40033FB60FB680C237B6102239E
:10127400BB610023FB6100233B6207237B6207F110
:10128400140319464FF0904000F026FC0022002180
:10129400262000F09CF9262000F0B5F900BF28377D
:1012A400BD4680BD0044004000100240DFF834D049
:1012B4000D480E490E4A002302E0D458C4500433AA
:1012C400C4188C42F9D30B4A0B4C002301E0136081
:1012D4000432A242FBD3FFF75DFF03F0E1FDFFF709
:1012E400BBFAFEE700000120000000200C000020F3
:1012F400584F000810000020C0010020FEE7000045
:1013040080B500AF084B1B68074A43F01003136015
:10131400032000F051F9002000F02EF8FFF7E2FE60
:101324000023184680BD00BF0020024080B500AFF6
:101334000C4B4FF0FF321A610A4B00221A61094B21
:101344004FF0FF32DA60074B0022DA60054B4FF0B2
:10135400FF329A62034B00229A6200F005F80023E0
:10136400184680BD0010024080B400AF00BFBD46E7
:101374005DF8047B7047000080B582B000AF7860F0
:10138400124B1A68124B1B7819464FF47A73B3FB4D
:10139400F1F3B2FBF3F3184600F043F90346002BD4
:1013A40001D001230EE07B680F2B0AD80022796854
:1013B4004FF0FF3000F00BF9064A7B6813600023FE
:1013C40000E0012318460837BD4680BD0000002018
:1013D400080000200400002080B400AF064B1B78F6
:1013E4001A46064B1B681344044A136000BFBD46EB
:1013F4005DF8047B704700BF0800002098010020BE
:1014040080B400AF034B1B681846BD465DF8047BEF
:10141400704700BF9801002080B485B000AF7860A9
:101424007B6803F00703FB600C4BDB68BB60BA68A6
:101434004FF6FF031340BB60FB681A02BB681343FB
:1014440043F0BF6343F40033BB60044ABB68D3601A
:1014540000BF1437BD465DF8047B704700ED00E023
:1014640080B400AF044BDB681B0A03F00703184683
:10147400BD465DF8047B704700ED00E080B483B0A6
:1014840000AF0346FB7197F90730002B0BDBFB79A8
:1014940003F01F02074997F907305B09012000FA9E
:1014A40002F241F8232000BF0C37BD465DF8047BEF
:1014B400704700BF00E100E080B483B000AF034692
:1014C4003960FB7197F90730002B0ADB3B68DAB20D
:1014D4000C4997F907301201D2B20B4483F8002368
:1014E4000AE03B68DAB20849FB7903F00F03043BD6
:1014F4001201D2B20B441A7600BF0C37BD465DF818
:10150400047B704700E100E000ED00E080B489B0A6
:1015140000AFF860B9607A60FB6803F00703FB6111
:10152400FB69C3F10703042B28BF0423BB61FB69D8
:101534000433062B02D9FB69033B00E000237B61E3
:101544004FF0FF32BB6902FA03F3DA43BB681A4077
:101554007B699A404FF0FF317B6901FA03F3D94369
:101564007B680B40134318462437BD465DF8047B63
:101574007047000080B582B000AF78607B68013BA3
:10158400B3F1807F01D301230FE00A4A7B68013B5A
:1015940053600F214FF0FF30FFF78EFF054B002201
:1015A4009A60044B07221A60002318460837BD4688
:1015B40080BD00BF10E000E080B582B000AF78606D
:1015C4007868FFF729FF00BF0837BD4680BD80B5A6
:1015D40086B000AF0346B9607A60FB7300237B6179
:1015E400FFF73EFF78617A68B9687869FFF78EFF84
:1015F400024697F90F3011461846FFF75DFF00BF0A
:101604001837BD4680BD80B582B000AF0346FB717C
:1016140097F907301846FFF731FF00BF0837BD467A
:1016240080BD80B582B000AF78607868FFF7A2FF14
:10163400034618460837BD4680BD80B483B000AF6A
:1016440078607B6893F82130022B08D07B680422F1
:101654009A637B68002283F82020012320E07B68C2
:101664001B681A687B681B6822F00E021A607B688C
:101674001B681A687B681B6822F001021A607B6889
:101684001A6C7B68DB6B012101FA02F25A607B68F9
:10169400012283F821207B68002283F82020002384
:1016A40018460C37BD465DF8047B704780B584B09E
:1016B40000AF78600023FB737B6893F82130022B22
:1016C40005D07B6804229A630123FB7327E07B68BF
:1016D4001B681A687B681B6822F00E021A607B681C
:1016E4001B681A687B681B6822F001021A607B6819
:1016F4001A6C7B68DB6B012101FA02F25A607B6889
:10170400012283F821207B68002283F820207B6853
:101714005B6B002B03D07B685B6B78689847FB7B23
:1017240018461037BD4680BDF0B587B000AFF860ED
:10173400B960C7E900230123FB750023BB750023AF
:101744007B752F4B1B7E012B01D1022354E02C4BC4
:1017540001221A764CF2503000F0A8F80346FB75CB
:10176400FB7D002B44D1FB68012B02D101237B7547
:1017740007E0FB68022B02D102237B7501E00423FE
:101784007B750023BB752DE0BB7D5A00BB6802EB63
:10179400030CBB7D1901D7E90023C1F12006A1F197
:1017A400200022FA01F403FA06F6344323FA00F087
:1017B400044323FA01F5A3B21946604600F05AF82F
:1017C4004CF2503000F072F80346FB750D4B1B6968
:1017D4000C4A23F001031361FB7D002B07D1BB7D71
:1017E4000133BB75BA7D7B7D9A42CDD300E000BF47
:1017F400034B00221A76FB7D18461C37BD46F0BD0C
:10180400A00100200020024080B483B000AF002378
:10181400FB710D4B1B6903F08003002B0DD00A4BA9
:101824000A4A5A60084B0A4A5A60074B1B6903F07C
:101834008003002B01D00123FB71FB7918460C3780
:10184400BD465DF8047B70470020024023016745D4
:10185400AB89EFCD80B400AF054B1B69044A43F05C
:101864008003136100231846BD465DF8047B70476E
:101874000020024080B483B000AF78600B467B80C8
:10188400084B0022DA61084B1B69074A43F0010345
:1018940013617B687A881A8000BF0C37BD465DF8F7
:1018A400047B7047A00100200020024080B584B072
:1018B40000AF7860FFF7A4FDF86010E07B68B3F137
:1018C400FF3F0CD07B68002B07D0FFF799FD024641
:1018D400FB68D31A7A689A4201D203231FE0124BA1
:1018E400DB6803F00103012BE8D00F4BDB6803F046
:1018F4002003202B02D10C4B2022DA600A4BDB6838
:1019040003F01003102B05D0074BDB6803F004032E
:10191400042B03D100F00AF8012300E00023184649
:101924001037BD4680BD00BF0020024080B483B0A4
:1019340000AF00237B60144BDB6803F01003102B13
:1019440009D1124BDB6943F00203104AD3617B686F
:1019540043F010037B600C4BDB6803F00403042B9F
:1019640009D10A4BDB6943F00103084AD3617B6860
:1019740043F004037B60044A7B68D36000BF0C37E8
:10198400BD465DF8047B704700200240A0010020A2
:1019940080B584B000AF786039600123FB73002305
:1019A400BB602E4B1B7E012B01D1022352E02B4B3B
:1019B40001221A767B681B68012B15D14CF250303A
:1019C400FFF774FF0346002B40D100F04BF84CF2B4
:1019D4005030FFF76BFF0346FB73214B1B69204A12
:1019E40023F00403136131E04CF25030FFF75EFF43
:1019F4000346002B2AD13B684FF0FF321A607B6804
:101A04005B68BB6019E0B86800F046F84CF25030EF
:101A1400FFF74CFF0346FB73114B1B69104A23F07D
:101A240002031361FB7B002B03D03B68BA681A6086
:101A34000CE0BB6803F50063BB607B689B68DA025B
:101A44007B685B681344BA689A42DCD3034B002278
:101A54001A76FB7B18461037BD4680BDA0010020D6
:101A64000020024080B400AF094B0022DA61094B28
:101A74001B69084A43F004031361064B1B69054ABA
:101A840043F04003136100BFBD465DF8047B70471B
:101A9400A00100200020024080B483B000AF786031
:101AA4000B4B0022DA610B4B1B690A4A43F0020319
:101AB4001361084A7B685361064B1B69054A43F06E
:101AC4004003136100BF0C37BD465DF8047B7047CB
:101AD400A00100200020024080B487B000AF7860ED
:101AE400396000237B6160E13B681A6801217B69EE
:101AF40001FA03F31340FB60FB68002B00F05281F2
:101B04003B685B6803F00303012B05D03B685B680B
:101B140003F00303022B30D17B689B683B617B6934
:101B24005B00032202FA03F3DB433A6913403B618F
:101B34003B68DA687B695B0002FA03F33A69134392
:101B44003B617B683A699A607B685B683B61012210
:101B54007B6902FA03F3DB433A6913403B613B6858
:101B64005B681B0903F001027B6902FA03F33A691B
:101B740013433B617B683A695A603B685B6803F0D6
:101B84000303032B17D07B68DB683B617B695B0035
:101B9400032202FA03F3DB433A6913403B613B68D7
:101BA4009A687B695B0002FA03F33A6913433B6169
:101BB4007B683A69DA603B685B6803F00303022BD5
:101BC40023D17B69DA087B68083253F822303B6101
:101BD4007B6903F007039B000F2202FA03F3DB4344
:101BE4003A6913403B613B681A697B6903F0070358
:101BF4009B0002FA03F33A6913433B617B69DA08F9
:101C04007B680832396943F822107B681B683B61A2
:101C14007B695B00032202FA03F3DB433A69134056
:101C24003B613B685B6803F003027B695B0002FA7B
:101C340003F33A6913433B617B683A691A603B6872
:101C44005B6803F44033002B00F0AC805E4B9B696F
:101C54005D4A43F0010393615B4B9B6903F001030D
:101C6400BB60BB68594A7B699B08023352F8233036
:101C74003B617B6903F003039B000F2202FA03F329
:101C8400DB433A6913403B617B68B3F1904F25D045
:101C94007B684F4A93421FD07B684E4A934219D0C7
:101CA4007B684D4A934213D07B684C4A93420DD0D3
:101CB4007B684B4A934207D07B684A4A934201D1DE
:101CC40006230CE007230AE0052308E0042306E0CA
:101CD400032304E0022302E0012300E000237A69E5
:101CE40002F00302920093403A6913433B6137497F
:101CF4007B699B0802333A6941F823203A4B1B68FD
:101D04003B61FB68DB433A6913403B613B685B68BA
:101D140003F48033002B03D03A69FB6813433B611F
:101D2400314A3B691360304B5B683B61FB68DB43C2
:101D34003A6913403B613B685B6803F40033002B52
:101D440003D03A69FB6813433B61274A3B695360FC
:101D5400254B9B683B61FB68DB433A6913403B615D
:101D64003B685B6803F48013002B03D03A69FB687B
:101D740013433B611C4A3B6993601B4BDB683B612B
:101D8400FB68DB433A6913403B613B685B6803F4DF
:101D94000013002B03D03A69FB6813433B61124ADA
:101DA4003B69D3607B6901337B613B681A687B695B
:101DB40022FA03F3002B7FF497AE00BF00BF1C3759
:101DC400BD465DF8047B70470010024000000140EE
:101DD4000004004800080048000C004800100048B7
:101DE40000140048001800480004014080B483B087
:101DF40000AF78600B467B8013467B707B78002BAA
:101E040003D07A887B689A6102E07A887B689A6258
:101E140000BF0C37BD465DF8047B704780B584B0C5
:101E240000AF0023FB60494B1B68484A43F00103A1
:101E34001360FFF7E5FAF86008E0FFF7E1FA0246FD
:101E4400FB68D31A022B01D903237BE03F4B1B68A9
:101E540003F00203002BF0D03C4B1B6823F0F80383
:101E64003A4A43F080031360384B5A683749384B79
:101E740013404B60FFF7C4FAF8600AE0FFF7C0FABA
:101E84000246FB68D31A41F28832934201D90323F4
:101E940058E02E4B5B6803F00C03002BEED12D4B66
:101EA4002D4A1A602D4B1B681846FFF765FA034646
:101EB400002B01D0012345E0244B1B68234A23F067
:101EC400847323F480331360204B1B681F4A23F46C
:101ED40080231360FFF794FAF86008E0FFF790FAA4
:101EE4000246FB68D31A022B01D903232AE0174BBD
:101EF4001B6803F00073002BF0D1144B00225A60CE
:101F0400124B0022DA62114B00221A630F4B9B68BA
:101F14000E4A43F41F0393600C4B00229A604FF067
:101F24008073BB60BB6893FAA3F37B607B68B3FAEE
:101F340083F3DBB21A460A4B13449B001A4601236F
:101F44001360002318461037BD4680BD00100240C0
:101F54000CC0FFF80000002000127A0004000020EA
:101F64002081901080B5ADF5027D00AF07F50273B6
:101F7400A3F50173186007F50273A3F501731B68D9
:101F8400002B02D1012301F03AB807F50273A3F53F
:101F940001731B681B6803F00103002B00F06F81C1
:101FA400B54B5B6803F00C03042B0CD0B24B5B689D
:101FB40003F00C03082B5CD1AF4B5B6803F4C03314
:101FC400B3F5803F55D14FF40033C7F8F431D7F857
:101FD400F43193FAA3F3C7F8F031D7F8F031B3FA38
:101FE40083F3DBB25B09DBB243F00103DBB2012B09
:101FF40002D1A14B1B6815E04FF40033C7F8EC3154
:10200400D7F8EC3193FAA3F3C7F8E8314FF400336F
:10201400C7F8E431D7F8E43193FAA3F3C7F8E03111
:10202400954B5B6A4FF40032C7F8DC21D7F8DC210A
:1020340092FAA2F2C7F8D821D7F8D821B2FA82F2DC
:10204400D2B242F02002D2B202F01F02012101FA00
:1020540002F21340002B00F0118107F50273A3F57F
:1020640001731B685B68002B40F00881012300F0BA
:10207400C6BF07F50273A3F501731B685B68B3F56C
:10208400803F06D17C4B1B687B4A43F4803313604A
:1020940036E007F50273A3F501731B685B68002B38
:1020A4000CD1754B1B68744A23F480331360724B54
:1020B4001B68714A23F48023136021E007F502733F
:1020C400A3F501731B685B68B3F5A02F0CD16A4BB1
:1020D4001B68694A43F480231360674B1B68664A94
:1020E40043F4803313600BE0634B1B68624A23F4B0
:1020F40080331360604B1B685F4A23F480231360B2
:1021040007F50273A3F501731B685B68002B59D0B4
:10211400FFF776F9C7F800020AE0FFF771F9024603
:10212400D7F80032D31A642B02D9032300F067BF17
:102134004FF40033C7F8D431D7F8D43193FAA3F36A
:10214400C7F8D031D7F8D031B3FA83F3DBB25B09E7
:10215400DBB243F00103DBB2012B02D1464B1B6817
:1021640015E04FF40033C7F8CC31D7F8CC3193FAEB
:10217400A3F3C7F8C8314FF40033C7F8C431D7F814
:10218400C43193FAA3F3C7F8C0313B4B5B6A4FF4F5
:102194000032C7F8BC21D7F8BC2192FAA2F2C7F8E2
:1021A400B821D7F8B821B2FA82F2D2B242F02002B2
:1021B400D2B202F01F02012101FA02F21340002BF5
:1021C400ABD05CE0FFF71CF9C7F800020AE0FFF7A8
:1021D40017F90246D7F80032D31A642B02D9032325
:1021E40000F00DBF4FF40033C7F8B431D7F8B43161
:1021F40093FAA3F3C7F8B031D7F8B031B3FA83F345
:10220400DBB25B09DBB243F00103DBB2012B02D189
:10221400194B1B6815E04FF40033C7F8AC31D7F8FD
:10222400AC3193FAA3F3C7F8A8314FF40033C7F8DD
:10223400A431D7F8A43193FAA3F3C7F8A0310E4B15
:102244005B6A4FF40032C7F89C21D7F89C2192FABC
:10225400A2F2C7F89821D7F89821B2FA82F2D2B242
:1022640042F02002D2B202F01F02012101FA02F26E
:102274001340002BABD102E00010024000BF07F571
:102284000273A3F501731B681B6803F00203002BA0
:1022940000F07F81A74B5B6803F00C03002B0CD08C
:1022A400A44B5B6803F00C03082B73D1A14B5B6850
:1022B40003F4C033B3F5004F6CD10223C7F8943153
:1022C400D7F8943193FAA3F3C7F89031D7F8903143
:1022D400B3FA83F3DBB25B09DBB243F00103DBB295
:1022E400012B02D1934B1B6813E00223C7F88C31F6
:1022F400D7F88C3193FAA3F3C7F888310223C7F8CF
:102304008431D7F8843193FAA3F3C7F88031894B29
:102314005B6A0222C7F87C21D7F87C2192FAA2F2E8
:10232400C7F87821D7F87821B2FA82F2D2B242F013
:102334002002D2B202F01F02012101FA02F213407C
:10234400002B0AD007F50273A3F501731B68DB6841
:10235400012B02D0012300F052BE764B1B6823F000
:10236400F80207F50273A3F501731B681B69F821D2
:10237400C7F87411D7F8741191FAA1F1C7F8701164
:10238400D7F87011B1FA81F1C9B28B40694913438E
:102394000B60FEE007F50273A3F501731B68DB68AD
:1023A400002B00F088800123C7F86C31D7F86C311A
:1023B40093FAA3F3C7F86831D7F86831B3FA83F313
:1023C400DBB203F1845303F584139B001A46012303
:1023D4001360FFF715F8C7F800020AE0FFF710F8DA
:1023E4000246D7F80032D31A022B02D9032300F095
:1023F40006BE0223C7F86431D7F8643193FAA3F315
:10240400C7F86031D7F86031B3FA83F3DBB25B0904
:10241400DBB243F00103DBB2012B02D1454B1B6855
:1024240013E00223C7F85C31D7F85C3193FAA3F3C5
:10243400C7F858310223C7F85431D7F8543193FA06
:10244400A3F3C7F850313B4B5B6A0222C7F84C2117
:10245400D7F84C2192FAA2F2C7F84821D7F84821BC
:10246400B2FA82F2D2B242F02002D2B202F01F02D9
:10247400012101FA02F21340002BAFD02D4B1B684F
:1024840023F0F80207F50273A3F501731B681B69B7
:10249400F821C7F84411D7F8441191FAA1F1C7F80B
:1024A4004011D7F84011B1FA81F1C9B28B402149EA
:1024B40013430B606DE00123C7F83C31D7F83C317E
:1024C40093FAA3F3C7F83831D7F83831B3FA83F362
:1024D400DBB203F1845303F584139B001A460023F3
:1024E4001360FEF78DFFC7F800020AE0FEF788FFCD
:1024F4000246D7F80032D31A022B02D9032300F084
:102504007EBD0223C7F83431D7F8343193FAA3F3EC
:10251400C7F83031D7F83031B3FA83F3DBB25B0953
:10252400DBB243F00103DBB2012B05D1014B1B6885
:1025340016E000BF001002400223C7F82C31D7F880
:102544002C3193FAA3F3C7F828310223C7F82431B6
:10255400D7F8243193FAA3F3C7F82031BF4B5B6A51
:102564000222C7F81C21D7F81C2192FAA2F2C7F85C
:102574001821D7F81821B2FA82F2D2B242F020021E
:10258400D2B202F01F02012101FA02F21340002B21
:10259400ACD107F50273A3F501731B681B6803F044
:1025A4000803002B00F0138107F50273A3F50173F0
:1025B4001B685B69002B7CD00123C7F81431D7F862
:1025C400143193FAA3F3C7F81031D7F81031B3FAE2
:1025D40083F3DBB21A46A24B13449B001A46012331
:1025E4001360FEF70DFFC7F800020AE0FEF708FFCC
:1025F4000246D7F80032D31A022B02D9032300F083
:10260400FEBC0223C7F80C31D7F80C3193FAA3F2BD
:1026140007F50273A3F580731A6007F50273A3F537
:10262400827302221A6007F50273A3F582731B6892
:1026340093FAA3F207F50273A3F584731A6007F5FE
:102644000273A3F5867302221A6007F50273A3F5D9
:1026540086731B6893FAA3F207F50273A3F58873D4
:102664001A607E4B5A6A07F50273A3F58A73022136
:10267400196007F50273A3F58A731B6893FAA3F133
:1026840007F50273A3F58C73196007F50273A3F5BC
:102694008C731B68B3FA83F3DBB243F06003DBB2E1
:1026A40003F01F03012101FA03F31340002B9DD013
:1026B4008DE007F50273A3F58E7301221A6007F506
:1026C4000273A3F58E731B6893FAA3F207F50273E2
:1026D400A3F590731A6007F50273A3F590731B6852
:1026E400B3FA83F3DBB21A465D4B13449B001A46DC
:1026F40000231360FEF784FEC7F800020AE0FEF729
:102704007FFE0246D7F80032D31A022B02D90323E4
:1027140000F075BC07F50273A3F5927302221A60E8
:1027240007F50273A3F592731B6893FAA3F207F5F6
:102734000273A3F594731A6007F50273A3F59673F5
:1027440002221A6007F50273A3F596731B6893FAC5
:10275400A3F207F50273A3F598731A6007F50273E1
:10276400A3F59A7302221A6007F50273A3F59A730C
:102774001B6893FAA3F207F50273A3F59C731A601E
:10278400364B5A6A07F50273A3F59E73022119604A
:1027940007F50273A3F59E731B6893FAA3F107F57B
:1027A4000273A3F5A073196007F50273A3F5A07370
:1027B4001B68B3FA83F3DBB243F06003DBB203F0CC
:1027C4001F03012101FA03F31340002B97D107F5EE
:1027D4000273A3F501731B681B6803F00403002B49
:1027E40000F0A581002387F807321C4BDB6903F056
:1027F4008053002B16D1194BDB69184A43F08053E0
:10280400D361164BDB6903F0805207F50273A3F51D
:10281400FE731A6007F50273A3F5FE731B680123A8
:1028240087F807320F4B1B6803F48073002B21D108
:102834000C4B1B680B4A43F480731360FEF7E0FDF6
:10284400C7F8000210E0FEF7DBFD0246D7F80032BD
:10285400D31A642B08D90323D1E300BF001002402C
:1028640020819010007000408D4B1B6803F480732E
:10287400002BE8D007F50273A3F501731B689B686E
:10288400012B06D1874B1B6A864A43F0010313626E
:1028940035E007F50273A3F501731B689B68002BF1
:1028A4000CD1804B1B6A7F4A23F0010313627D4BDA
:1028B4001B6A7C4A23F00403136220E007F50273C9
:1028C400A3F501731B689B68052B0CD1754B1B6A20
:1028D400744A43F004031362724B1B6A714A43F057
:1028E400010313620BE06F4B1B6A6E4A23F0010372
:1028F40013626C4B1B6A6B4A23F00403136207F5E3
:102904000273A3F501731B689B68002B00F08180A0
:10291400FEF776FDC7F800020BE0FEF771FD0246F4
:10292400D7F80032D31A41F28832934201D90323F3
:1029340065E307F50273A3F5A27302221A6007F593
:102944000273A3F5A2731B6893FAA3F207F502734B
:10295400A3F5A4731A6007F50273A3F5A673022204
:102964001A6007F50273A3F5A6731B6893FAA3F222
:1029740007F50273A3F5A8731A6007F50273A3F5AC
:10298400A8731B68B3FA83F3DBB25B09DBB243F0D1
:102994000203DBB2022B02D1424B1B6A13E007F5A0
:1029A4000273A3F5AA7302221A6007F50273A3F552
:1029B400AA731B6893FAA3F207F50273A3F5AC7329
:1029C4001A60384B5B6A07F50272A2F5AE720221F7
:1029D400116007F50272A2F5AE72126892FAA2F1C2
:1029E40007F50272A2F5B072116007F50272A2F542
:1029F400B0721268B2FA82F2D2B242F04002D2B29B
:102A040002F01F02012101FA02F21340002B84D0CC
:102A140083E0FEF7F5FCC7F800020BE0FEF7F0FCDC
:102A24000246D7F80032D31A41F28832934201D9D0
:102A34000323E4E207F50273A3F5B27302221A60DA
:102A440007F50273A3F5B2731B6893FAA3F207F5B3
:102A54000273A3F5B4731A6007F50273A3F5B67392
:102A640002221A6007F50273A3F5B6731B6893FA82
:102A7400A3F207F50273A3F5B8731A6007F502739E
:102A8400A3F5B8731B68B3FA83F3DBB25B09DBB25B
:102A940043F00203DBB2022B06D1024B1B6A17E0A0
:102AA400007000400010024007F50273A3F5BA73EA
:102AB40002221A6007F50273A3F5BA731B6893FA2E
:102AC400A3F207F50273A3F5BC731A60B34B5B6AF8
:102AD40007F50272A2F5BE720221116007F50272B7
:102AE400A2F5BE72126892FAA2F107F50272A2F57B
:102AF400C072116007F50272A2F5C0721268B2FAD0
:102B040082F2D2B242F04002D2B202F01F0201219C
:102B140001FA02F21340002B80D197F80732012BFF
:102B240005D19E4BDB699D4A23F08053D36107F5A1
:102B34000273A3F501731B689B69002B00F05E828E
:102B4400964B5B6803F00C03082B00F01F8207F51B
:102B54000273A3F501731B689B69022B40F070811B
:102B640007F50273A3F5C2734FF080721A6007F57C
:102B74000273A3F5C2731B6893FAA3F207F50273F9
:102B8400A3F5C4731A6007F50273A3F5C4731B6835
:102B9400B3FA83F3DBB203F1845303F584139B008C
:102BA4001A4600231360FEF72BFCC7F8000209E065
:102BB400FEF726FC0246D7F80032D31A022B01D9BD
:102BC40003231CE207F50273A3F5C6734FF00072EA
:102BD4001A6007F50273A3F5C6731B6893FAA3F290
:102BE40007F50273A3F5C8731A6007F50273A3F51A
:102BF400C8731B68B3FA83F3DBB25B09DBB243F03F
:102C04000103DBB2012B02D1644B1B6827E007F5FB
:102C14000273A3F5CA734FF000721A6007F50273CA
:102C2400A3F5CA731B6893FAA3F207F50273A3F51D
:102C3400CC731A6007F50273A3F5CE734FF00072DC
:102C44001A6007F50273A3F5CE731B6893FAA3F217
:102C540007F50273A3F5D0731A60504B5B6A07F54E
:102C64000272A2F5D2724FF00071116007F5027280
:102C7400A2F5D272126892FAA2F107F50272A2F5D5
:102C8400D472116007F50272A2F5D4721268B2FA16
:102C940082F2D2B242F02002D2B202F01F0201212B
:102CA40001FA02F21340002B82D13C4BDB6A23F081
:102CB4000F0207F50273A3F501731B685B6A3749BA
:102CC4001343CB62354B5B6823F4761207F502732A
:102CD400A3F501731B68196A07F50273A3F5017361
:102CE4001B68DB690B432D4913434B6007F50273E3
:102CF400A3F5D6734FF080721A6007F50273A3F53B
:102D0400D6731B6893FAA3F207F50273A3F5D8737D
:102D14001A6007F50273A3F5D8731B68B3FA83F33B
:102D2400DBB203F1845303F584139B001A46012399
:102D34001360FEF765FBC7F8000209E0FEF760FBCD
:102D44000246D7F80032D31A022B01D9032356E1E5
:102D540007F50273A3F5DA734FF000721A6007F5F2
:102D64000273A3F5DA731B6893FAA3F207F50273EF
:102D7400A3F5DC731A6007F50273A3F5DC731B6813
:102D8400B3FA83F3DBB25B09DBB243F00103DBB2DA
:102D9400012B05D1014B1B682AE000BF0010024043
:102DA40007F50273A3F5DE734FF000721A6007F59E
:102DB4000273A3F5DE731B6893FAA3F207F502739B
:102DC400A3F5E0731A6007F50273A3F5E2734FF0FD
:102DD40000721A6007F50273A3F5E2731B6893FA95
:102DE400A3F207F50273A3F5E4731A60864B5B6ADA
:102DF40007F50272A2F5E6724FF00071116007F553
:102E04000272A2F5E672126892FAA2F107F5027252
:102E1400A2F5E872116007F50272A2F5E872126871
:102E2400B2FA82F2D2B242F02002D2B202F01F020F
:102E3400012101FA02F21340002B3FF47FAFDDE0E1
:102E440007F50273A3F5EA734FF080721A6007F571
:102E54000273A3F5EA731B6893FAA3F207F50273EE
:102E6400A3F5EC731A6007F50273A3F5EC731B6802
:102E7400B3FA83F3DBB203F1845303F584139B00A9
:102E84001A4600231360FEF7BBFAC7F8000209E0F4
:102E9400FEF7B6FA0246D7F80032D31A022B01D94C
:102EA4000323ACE007F50273A3F5EE734FF0007251
:102EB4001A6007F50273A3F5EE731B6893FAA3F285
:102EC40007F50273A3F5F0731A6007F50273A3F50F
:102ED400F0731B68B3FA83F3DBB25B09DBB243F034
:102EE4000103DBB2012B02D1474B1B6827E007F536
:102EF4000273A3F5F2734FF000721A6007F50273C0
:102F0400A3F5F2731B6893FAA3F207F50273A3F512
:102F1400F4731A6007F50273A3F5F6734FF00072A9
:102F24001A6007F50273A3F5F6731B6893FAA3F20C
:102F340007F50273A3F5F8731A60334B5B6A07F560
:102F44000272A2F5FA724FF00071116007F5027275
:102F5400A2F5FA72126892FAA2F107F50272A2F5CA
:102F6400FC72116007F50272A2F5FC721268B2FAE3
:102F740082F2D2B242F02002D2B202F01F02012148
:102F840001FA02F21340002B82D137E007F50273F5
:102F9400A3F501731B689B69012B01D101232EE06A
:102FA400194B5B68C7F8FC31174BDB6AC7F8F8317B
:102FB400D7F8FC3103F4C03207F50273A3F50173AB
:102FC4001B68DB699A4217D1D7F8FC3103F47012FD
:102FD40007F50273A3F501731B681B6A9A420BD1B0
:102FE400D7F8F83103F00F0207F50273A3F5017364
:102FF4001B685B6A9A4201D0012300E00023184653
:1030040007F50277BD4680BD0010024080B59EB032
:1030140000AF7860396000237B677B68002B01D1A7
:10302400012362E1904B1B6803F007033A689A425C
:1030340010D98D4B1B6823F007028B493B6813435F
:103044000B60894B1B6803F007033A689A4201D06E
:1030540001234AE17B681B6803F00203002B08D0BC
:10306400824B5B6823F0F0027B689B687F491343C3
:103074004B607B681B6803F00103002B00F0DC80CD
:103084007B685B68012B3CD14FF400333B673B6F9B
:1030940093FAA3F3FB66FB6EB3FA83F3DBB25B092B
:1030A400DBB243F00103DBB2012B02D16F4B1B688F
:1030B4000FE04FF40033BB66BB6E93FAA3F37B6659
:1030C4004FF400333B663B6E93FAA3F3FB65674B07
:1030D4005B6A4FF40032BA65BA6D92FAA2F27A656D
:1030E4007A6DB2FA82F2D2B242F02002D2B202F087
:1030F4001F02012101FA02F21340002B7BD10123AC
:10310400F3E07B685B68022B3CD14FF000733B65B6
:103114003B6D93FAA3F3FB64FB6CB3FA83F3DBB26A
:103124005B09DBB243F00103DBB2012B02D14F4B4D
:103134001B680FE04FF00073BB64BB6C93FAA3F3FE
:103144007B644FF000733B643B6C93FAA3F3FB6323
:10315400464B5B6A4FF00072BA63BA6B92FAA2F202
:103164007A637A6BB2FA82F2D2B242F02002D2B21D
:1031740002F01F02012101FA02F21340002B3AD19E
:103184000123B2E002233B633B6B93FAA3F3FB629C
:10319400FB6AB3FA83F3DBB25B09DBB243F00103EE
:1031A400DBB2012B02D1314B1B680DE00223BB6261
:1031B400BB6A93FAA3F37B6202233B623B6A93FAF2
:1031C400A3F3FB61294B5B6A0222BA61BA6992FAE2
:1031D400A2F27A617A69B2FA82F2D2B242F02002A1
:1031E400D2B202F01F02012101FA02F21340002BB5
:1031F40001D1012379E01D4B5B6823F003027B6856
:103204005B681A4913434B60FEF7FAF878670AE0E3
:10321400FEF7F6F802467B6FD31A41F288329342E6
:1032240001D9032361E0114B5B6803F00C027B6856
:103234005B689B009A42EBD10B4B1B6803F00703BE
:103244003A689A4214D2084B1B6823F007020649D5
:103254003B6813430B60044B1B6803F007033A6895
:103264009A4205D0012340E00020024000100240B1
:103274007B681B6803F00403002B08D01D4B5B68BC
:1032840023F4E0627B68DB681A4913434B607B6874
:103294001B6803F00803002B09D0164B5B6823F46A
:1032A40060527B681B69DB00124913434B6000F0DA
:1032B40029F801460F4B5B6803F0F003F0223A61F2
:1032C4003A6992FAA2F2FA60FA68B2FA82F2D2B2D7
:1032D400D340094AD35C21FA03F3084A1360084B2C
:1032E4001B681846FEF748F8002318467837BD4691
:1032F40080BD00BF00100240144F000800000020F1
:103304000400002080B48BB000AF0023FB610023D5
:10331400BB6100237B6200237B6100233B622A4B59
:103324005B68FB61FB6903F00C03042B02D0082BE0
:1033340003D03FE0254B3B623FE0FB6903F470138D
:103344004FF47012BA60BA6892FAA2F27A607A689C
:10335400B2FA82F2D2B2D3401D4AD35C7B611A4BDB
:10336400DB6A03F00F030F223A613A6992FAA2F280
:10337400FA60FA68B2FA82F2D2B2D340154AD35C48
:10338400BB61FB6903F48033002B08D00F4ABB698F
:10339400B2FBF3F27B6902FB03F37B6207E00B4AA7
:1033A400BB69B2FBF3F27B6902FB03F37B627B6ACA
:1033B4003B6202E0054B3B6200BF3B6A18462C3778
:1033C400BD465DF8047B70470010024000127A008D
:1033D4002C4F00083C4F000880B400AF034B1B681F
:1033E4001846BD465DF8047B704700BF000000200E
:1033F40080B582B000AFFFF7EFFF01460B4B5B686F
:1034040003F4E0634FF4E0627A607A6892FAA2F21D
:103414003A603A68B2FA82F2D2B2D340044AD35C38
:1034240021FA03F318460837BD4680BD0010024058
:10343400244F000880B582B000AFFFF7CDFF0146EE
:103444000B4B5B6803F460534FF460527A607A6804
:1034540092FAA2F23A603A68B2FA82F2D2B2D34055
:10346400044AD35C21FA03F318460837BD4680BDED
:1034740000100240244F000880B592B000AF78607D
:1034840000233B640023FB63002387F847307B68F9
:103494001B6803F48033002B00F0D4804E4BDB69AF
:1034A40003F08053002B0ED14B4BDB694A4A43F0A7
:1034B4008053D361484BDB6903F08053BB60BB6826
:1034C400012387F84730454B1B6803F48073002BB6
:1034D40018D1424B1B68414A43F480731360FDF7D3
:1034E4008FFF386408E0FDF78BFF02463B6CD31A6C
:1034F400642B01D90323D6E1384B1B6803F4807392
:10350400002BF0D0344B1B6A03F44073FB63FB6B5A
:10351400002B00F084807B685B6803F44073FA6BD3
:103524009A427CD02C4B1B6A23F44073FB634FF408
:1035340080333B633B6B93FAA3F3FB62FB6AB3FAFE
:1035440083F3DBB21A46264B13449B001A4601232D
:1035540013604FF48033BB63BB6B93FAA3F37B63B9
:103564007B6BB3FA83F3DBB21A461D4B13449B0007
:103574001A4600231360184AFB6B1362FB6B03F0BB
:103584000103002B4BD0FDF73BFF38640AE0FDF745
:1035940037FF02463B6CD31A41F28832934201D979
:1035A400032380E10223BB62BB6A93FAA3F37B6229
:1035B40002233B623B6A93FAA3F3FB61FB69B3FA10
:1035C40083F3DBB25B09DBB243F00203DBB2022B11
:1035D40008D1014B1B6A0DE000100240007000404E
:1035E400008190100223BB61BB6993FAA3F37B6152
:1035F4009A4B5B6A02223A613A6992FAA2F2FA6041
:10360400FA68B2FA82F2D2B242F04002D2B202F0C6
:103614001F02012101FA02F21340002BB7D08F4B95
:103624001B6A23F440727B685B688C4913430B620A
:1036340097F84730012B05D1884BDB69874A23F083
:103644008053D3617B681B6803F00103002B08D00F
:10365400824B1B6B23F003027B689B687F491343F7
:103664000B637B681B6803F00203002B08D07B4BC1
:103674001B6B23F440327B68DB68784913430B638C
:103684007B681B6803F00403002B08D0734B1B6B8F
:1036940023F440227B681B69704913430B637B68E6
:1036A4001B6803F02003002B08D06C4B1B6B23F02A
:1036B40010027B68DB69694913430B637B681B68F1
:1036C40003F40033002B08D0644B5B6823F48002BE
:1036D4007B685B6D614913434B607B681B6803F037
:1036E4004003002B08D05D4B1B6B23F020027B684A
:1036F4001B6A5A4913430B637B681B6803F48023DA
:10370400002B08D0554B1B6B23F040027B685B6A8F
:10371400524913430B637B681B6803F00803002BB7
:1037240008D04E4B1B6B23F440127B685B694B49FA
:1037340013430B637B681B6803F01003002B08D052
:10374400464B1B6B23F440027B689B69434913433C
:103754000B637B681B6803F40073002B08D03F4B9A
:103764005B6823F400027B681B6B3C4913434B608A
:103774007B681B6803F08003002B08D0374BDB6A9F
:1037840023F4F8727B689B6A34491343CB627B68E9
:103794001B6803F48073002B08D0304BDB6A23F4DE
:1037A40078527B68DB6A2D491343CB627B681B68C4
:1037B40003F48053002B08D0284B1B6B23F4807236
:1037C4007B685B6B254913430B637B681B6803F4BD
:1037D4000053002B08D0214B1B6B23F400727B6831
:1037E4001B6C1E4913430B637B681B6803F4801333
:1037F400002B08D0194B1B6B23F080727B689B6BEA
:10380400164913430B637B681B6803F40013002BF6
:1038140008D0124B1B6B23F000727B68DB6B0F49E3
:1038240013430B637B681B6803F48003002B08D0ED
:103834000A4B1B6B23F480627B685B6C0749134360
:103844000B637B681B6803F40003002B0CD0034B51
:103854001B6B23F400627B6802E000BF001002408F
:103864009B6C134913430B637B681B6803F08073E1
:10387400002B08D00E4B1B6B23F400527B68DB6CCF
:103884000B4913430B637B681B6803F00073002B25
:1038940008D0074B1B6B23F400427B681B6D044963
:1038A40013430B63002318464837BD4680BD00BF51
:1038B4000010024080B582B000AF78607B68002BB6
:1038C40001D1012340E07B689B6F002B06D17B680C
:1038D400002283F874207868FDF79EFC7B6824221C
:1038E4009A677B681B681A687B681B6822F0010270
:1038F4001A60786800F0DCFB0346012B01D1012338
:1039040022E07B685B6A002B02D0786800F0A6FD99
:103914007B681B685A687B681B6822F490425A6073
:103924007B681B689A687B681B6822F02A029A608D
:103934007B681B681A687B681B6842F001021A6086
:10394400786800F02DFE034618460837BD4680BD52
:1039540080B48BB000AFF860B9601346FB80FB689D
:103964009B6F202B56D1BB68002B02D0FB88002B09
:1039740001D101234FE0FB6893F87430012B01D18E
:10398400022348E0FB68012283F87420FB68BA68CC
:10399400DA64FB68FA88A3F85020FB68FA88A3F875
:1039A4005220FB6800229A66FB680022C3F880203C
:1039B400FB6821229A67FB689B68B3F5805F07D197
:1039C400FB681B69002B03D1FB68164A9A6602E068
:1039D400FB68154A9A66FB68002283F87420FB682A
:1039E4001B687B617B6953E8003F3B613B6943F0A3
:1039F40080037B62FB681B681A467B6A3B62FA6140
:103A0400F9693A6A41E80023BB61BB69002BE6D13E
:103A1400002300E0022318462C37BD465DF8047BE2
:103A2400704700BFC34A00080B4A000880B58AB03B
:103A340000AFF860B9601346FB80FB68DB6F202B96
:103A44003DD1BB68002B02D0FB88002B01D10123A0
:103A540036E0FB6893F87430012B01D102232FE088
:103A6400FB68012283F87420FB6800221A66FB6855
:103A74001B685B6803F40003002B18D0FB681B6809
:103A84007B617B6953E8003F3B613B6943F08063A2
:103A94007B62FB681B681A467B6A3B62FA61F969C0
:103AA4003A6A41E80023BB61BB69002BE6D1FB887D
:103AB4001A46B968F86800F081FE034600E0022364
:103AC40018462837BD4680BD80B5BAB000AF7860CF
:103AD4007B681B68DB69C7F8E4307B681B681B687C
:103AE400C7F8E0307B681B689B68C7F8DC30D7F800
:103AF400E42040F60F031340C7F8D830D7F8D83085
:103B0400002B15D1D7F8E43003F02003002B0FD09D
:103B1400D7F8E03003F02003002B09D07B685B6EFC
:103B2400002B00F0A3827B685B6E786898479DE267
:103B3400D7F8D830002B00F01781D7F8DC3003F029
:103B44000103002B06D1D7F8E020854B1340002B4E
:103B540000F00A81D7F8E43003F00103002B11D000
:103B6400D7F8E03003F48073002B0BD07B681B681C
:103B740001221A627B68D3F8803043F001027B682B
:103B8400C3F88020D7F8E43003F00203002B11D0EF
:103B9400D7F8DC3003F00103002B0BD07B681B68E3
:103BA40002221A627B68D3F8803043F004027B68F7
:103BB400C3F88020D7F8E43003F00403002B11D0BD
:103BC400D7F8DC3003F00103002B0BD07B681B68B3
:103BD40004221A627B68D3F8803043F002027B68C7
:103BE400C3F88020D7F8E43003F00803002B17D083
:103BF400D7F8E03003F02003002B05D1D7F8DC30F0
:103C040003F00103002B0BD07B681B6808221A62A7
:103C14007B68D3F8803043F008027B68C3F88020C7
:103C2400D7F8E43003F40063002B12D0D7F8E03067
:103C340003F08063002B0CD07B681B684FF4006298
:103C44001A627B68D3F8803043F020027B68C3F8A3
:103C540080207B68D3F88030002B00F00982D7F8ED
:103C6400E43003F02003002B0DD0D7F8E03003F04C
:103C74002003002B07D07B685B6E002B03D07B688E
:103C84005B6E786898477B68D3F88030C7F8D43087
:103C94007B681B689B6803F04003402B05D0D7F872
:103CA400D43003F02803002B4FD0786800F032FEA4
:103CB4007B681B689B6803F04003402B41D17B6801
:103CC4001B680833C7F89C30D7F89C3053E8003F92
:103CD400C7F89830D7F8983023F04003C7F8D030AD
:103CE4007B681B680833D7F8D020C7F8A820C7F82A
:103CF400A430D7F8A410D7F8A82041E80023C7F8C7
:103D0400A030D7F8A030002BD9D17B681B6F002BD3
:103D140013D07B681B6F134A5A637B681B6F18466A
:103D2400FDF7C4FC0346002B17D07B681B6F5B6B4D
:103D34007A68126F104698470FE0786800F0A2F98D
:103D44000BE0786800F09EF907E0786800F09AF9D3
:103D54007B680022C3F880208AE100BF88E100BFAD
:103D640020010004DF4900087B681B6E012B40F032
:103D74004381D7F8E43003F01003002B00F03C81BA
:103D8400D7F8E03003F01003002B00F035817B6896
:103D94001B6810221A627B681B689B6803F040034F
:103DA400402B40F0B1807B681B6F1B685B68A7F8F1
:103DB400BE30B7F8BE30002B00F05C817B68B3F8EE
:103DC4005830B7F8BE209A4280F054817B68B7F827
:103DD400BE20A3F85A207B681B6F9B69202B00F040
:103DE40085807B681B68C7F88830D7F8883053E82B
:103DF400003FC7F88430D7F8843023F48073C7F8C1
:103E0400B8307B681B681A46D7F8B830C7F89430C6
:103E1400C7F89020D7F89010D7F8942041E80023F1
:103E2400C7F88C30D7F88C30002BDAD17B681B684C
:103E340008337B677B6F53E8003F3B673B6F23F09E
:103E44000103C7F8B4307B681B680833D7F8B42083
:103E5400C7F88020FB67F96FD7F8802041E800237A
:103E6400BB67BB6F002BE1D17B681B6808333B66E3
:103E74003B6E53E8003FFB65FB6D23F04003C7F83E
:103E8400B0307B681B680833D7F8B020FA66BB668D
:103E9400B96EFA6E41E800237B667B6E002BE3D19A
:103EA4007B682022DA677B6800221A667B681B68BD
:103EB400FB64FB6C53E8003FBB64BB6C23F0100352
:103EC400C7F8AC307B681B681A46D7F8AC30BB65C2
:103ED4007A65796DBA6D41E800233B653B6D002B33
:103EE400E4D17B681B6F1846FDF7A7FB7B68B3F82A
:103EF40058207B68B3F85A309BB2D31A9BB2194648
:103F0400786800F0C9F8B5E07B68B3F858207B689E
:103F1400B3F85A309BB2D31AA7F8CE307B68B3F803
:103F24005A309BB2002B00F0A780B7F8CE30002B9C
:103F340000F0A2807B681B68BB63BB6B53E8003F47
:103F44007B637B6B23F49073C7F8C8307B681B6872
:103F54001A46D7F8C8307B643A64396C7A6C41E805
:103F64000023FB63FB6B002BE4D17B681B680833E5
:103F74007B627B6A53E8003F3B623B6A23F00103A8
:103F8400C7F8C4307B681B680833D7F8C4203A6389
:103F9400FB62F96A3A6B41E80023BB62BB6A002BFF
:103FA400E3D17B682022DA677B6800221A667B688B
:103FB40000225A667B681B683B613B6953E8003FFB
:103FC400FB60FB6823F01003C7F8C0307B681B68F4
:103FD4001A46D7F8C030FB61BA61B969FA6941E899
:103FE40000237B617B69002BE4D1B7F8CE301946FE
:103FF400786800F051F83FE0D7F8E43003F4801318
:10400400002B0ED0D7F8DC3003F48003002B08D04B
:104014007B681B684FF480121A62786800F035FFE1
:104024002DE0D7F8E43003F08003002B0ED0D7F84E
:10403400E03003F08003002B08D07B689B6E002BDC
:104044001CD07B689B6E7868984717E0D7F8E430FB
:1040540003F04003002B12D0D7F8E03003F0400304
:10406400002B0CD0786800F08AFD08E000BF06E061
:1040740000BF04E000BF02E000BF00E000BFE8377B
:10408400BD4680BD80B483B000AF786000BF0C37FC
:10409400BD465DF8047B704780B483B000AF7860A0
:1040A4000B467B8000BF0C37BD465DF8047B704730
:1040B40080B588B000AF78600023BB777B689A68CE
:1040C4007B681B691A437B685B691A437B68DB69FD
:1040D40013437B617B681B681A68924B13407A68B0
:1040E400126879690B4313607B681B685B6823F46F
:1040F40040517B68DA687B681B680A435A607B68B6
:104104009B697B617B681B6A7A6913437B617B686B
:104114001B689B6823F430617B681B687A690A43D7
:104124009A607B681B68804A934220D17F4B1B6B4B
:1041340003F00303032B17D801A252F823F000BFA6
:104144005541000861410008674100085B410008CF
:104154000123FB77B5E00223FB77B2E00423FB776E
:10416400AFE00823FB77ACE01023FB77A9E07B6882
:104174001B686F4A934224D16C4B1B6B03F440338E
:10418400B3F5403F11D0B3F5403F17D8B3F5003F26
:1041940011D0B3F5003F11D8002B03D0B3F5803F05
:1041A40006D00BE00023FB778BE00223FB7788E04B
:1041B4000423FB7785E00823FB7782E01023FB7759
:1041C4007FE07B681B685B4A934224D1574B1B6B8F
:1041D40003F44023B3F5402F11D0B3F5402F17D883
:1041E400B3F5002F11D0B3F5002F11D8002B03D055
:1041F400B3F5802F06D00BE00023FB7761E00223A8
:10420400FB775EE00423FB775BE00823FB7758E051
:104214001023FB7755E07B681B68474A934224D1FF
:10422400424B1B6B03F44013B3F5401F11D0B3F59D
:10423400401F17D8B3F5001F11D0B3F5001F11D8D4
:10424400002B03D0B3F5801F06D00BE00023FB77CF
:1042540037E00223FB7734E00423FB7731E00823C3
:10426400FB772EE01023FB772BE07B681B68334A37
:10427400934224D12D4B1B6B03F44003B3F5400F41
:1042840011D0B3F5400F17D8B3F5000F11D0B3F523
:10429400000F11D8002B03D0B3F5800F06D00BE02C
:1042A4000023FB770DE00223FB770AE00423FB776E
:1042B40007E00823FB7704E01023FB7701E01023D9
:1042C400FB777B68DB69B3F5004F6CD1FB7F082B70
:1042D40038D801A252F823F001430008094300082A
:1042E40011430008494300081743000849430008E4
:1042F40049430008494300081F430008FFF778F8C2
:10430400B86124E0FFF796F8B86120E00C4BBB617C
:104314001DE0FEF7F7FFB86119E04FF40043BB61FD
:1043240015E000BFF369FFEF0038014000100240C0
:104334000044004000480040004C00400050004051
:1043440000127A000023BB610123BB7700BFBB6965
:10435400002B75D0BB695A007B685B685B081A4404
:104364007B685B68B2FBF3F39BB23B613B690F2B49
:1043740016D93B69B3F5803F12D23B699BB223F057
:104384000F03FB813B695B089BB203F007039AB2FE
:10439400FB891343FB817B681B68FA89DA604FE071
:1043A4000123BB774CE0FB7F082B28D801A252F8ED
:1043B40023F000BFDD430008E5430008ED43000897
:1043C40003440008F34300080344000803440008BE
:1043D40003440008FB430008FFF70AF8B86113E040
:1043E400FFF728F8B8610FE01B4BBB610CE0FEF748
:1043F40089FFB86108E04FF40043BB6104E0002387
:10440400BB610123BB7700BFBB69002B18D07B685D
:104414005B685A08BB691A447B685B68B2FBF3F3B8
:104424009BB23B613B690F2B08D93B69B3F5803FD5
:1044340004D27B681B683A69DA6001E00123BB7728
:104444007B6800225A667B6800229A66BB7F184606
:104454002037BD4680BD00BF00127A0080B483B00F
:1044640000AF78607B685B6A03F00103002B0AD01D
:104474007B681B685B6823F400317B689A6A7B68FD
:104484001B680A435A607B685B6A03F00203002BD3
:104494000AD07B681B685B6823F480317B68DA6A26
:1044A4007B681B680A435A607B685B6A03F00403F9
:1044B400002B0AD07B681B685B6823F480217B682F
:1044C4001A6B7B681B680A435A607B685B6A03F05B
:1044D4000803002B0AD07B681B685B6823F4004147
:1044E4007B685A6B7B681B680A435A607B685B6A0B
:1044F40003F01003002B0AD07B681B689B6823F42D
:1045040080517B689A6B7B681B680A439A607B685E
:104514005B6A03F02003002B0AD07B681B689B684E
:1045240023F400517B68DA6B7B681B680A439A604A
:104534007B685B6A03F04003002B1AD07B681B681E
:104544005B6823F480117B681A6C7B681B680A43E0
:104554005A607B681B6CB3F5801F0AD17B681B68AB
:104564005B6823F4C0017B685A6C7B681B680A4350
:104574005A607B685B6A03F08003002B0AD07B6877
:104584001B685B6823F400217B689A6C7B681B685A
:104594000A435A6000BF0C37BD465DF8047B704780
:1045A40080B586B002AF78607B680022C3F88020B3
:1045B400FCF726FFF8607B681B681B6803F00803A0
:1045C400082B0ED16FF07E430093FB6800224FF45A
:1045D4000011786800F02DF80346002B01D0032366
:1045E40023E07B681B681B6803F00403042B0ED1D3
:1045F4006FF07E430093FB6800224FF480017868DB
:1046040000F017F80346002B01D003230DE07B686C
:1046140020229A677B682022DA677B6800221A6668
:104624007B68002283F87420002318461037BD46A7
:1046340080BD80B59CB000AFF860B9603B601346A4
:10464400FB71A5E0BB6FB3F1FF3F00F0A180FCF765
:10465400D7FE02463B68D31ABA6F9A4202D3BB6FA5
:10466400002B3ED1FB681B683B653B6D53E8003F64
:10467400FB64FB6C23F4D0737B66FB681B681A46EF
:104684007B6EFB65BA65B96DFA6D41E800237B6505
:104694007B6D002BE6D1FB681B680833FB63FB6B67
:1046A40053E8003FBB63BB6B23F001033B66FB682D
:1046B4001B6808333A6EBA647B64796CBA6C41E85F
:1046C40000233B643B6C002BE5D1FB6820229A67F6
:1046D400FB682022DA67FB68002283F87420032336
:1046E40067E0FB681B681B6803F00403002B4FD0D2
:1046F400FB681B68DB6903F40063B3F5006F47D103
:10470400FB681B684FF400621A62FB681B68BB629B
:10471400BB6A53E8003F7B627B6A23F4D073FB6679
:10472400FB681B681A46FB6E7B633A63396B7A6BD2
:1047340041E80023FB62FB6A002BE6D1FB681B689F
:1047440008337B617B6953E8003F3B613B6923F09D
:104754000103BB66FB681B680833BA6E3A62FB61EF
:10476400F9693A6A41E80023BB61BB69002BE5D1D2
:10477400FB6820229A67FB682022DA67FB68202204
:10478400C3F88020FB68002283F87420032310E020
:10479400FB681B68DA69BB681340BA689A420CBFAD
:1047A40001230023DBB21A46FB799A423FF44AAF55
:1047B400002318467037BD4680BD000080B491B018
:1047C40000AFF860B9601346FB80FB68BA685A65AD
:1047D400FB68FA88A3F85820FB68FA88A3F85A20E3
:1047E400FB6800225A66FB689B68B3F5805F0ED1B4
:1047F400FB681B69002B05D1FB6840F2FF12A3F88C
:104804005C202DE0FB68FF22A3F85C2028E0FB6815
:104814009B68002B0DD1FB681B69002B04D1FB683E
:10482400FF22A3F85C201BE0FB687F22A3F85C2036
:1048340016E0FB689B68B3F1805F0DD1FB681B69D0
:10484400002B04D1FB687F22A3F85C2008E0FB68FE
:104854003F22A3F85C2003E0FB680022A3F85C205D
:10486400FB680022C3F88020FB682222DA67FB6819
:104874001B680833BB62BB6A53E8003F7B627B6AF8
:1048840043F00103FB63FB681B680833FA6B7A632C
:104894003B63396B7A6B41E80023FB62FB6A002BB4
:1048A400E5D1FB689B68B3F5805F07D1FB681B69A2
:1048B400002B03D1FB68154A5A6602E0FB68144AD0
:1048C4005A66FB68002283F87420FB681B687B61CE
:1048D4007B6953E8003F3B613B6943F49073BB63DE
:1048E400FB681B681A46BB6B3B62FA61F9693A6A5A
:1048F40041E80023BB61BB69002BE6D100231846C5
:104904004437BD465DF8047B704700BF334D000853
:10491400D74B000880B495B000AF78607B681B6803
:104924007B637B6B53E8003F3B633B6B23F49073E7
:10493400FB647B681B681A46FB6C3B64FA63F96B87
:104944003A6C41E80023BB63BB6B002BE6D17B6868
:104954001B6808333B623B6A53E8003FFB61FB6919
:1049640023F00103BB647B681B680833BA6CFA62EA
:10497400BB62B96AFA6A41E800237B627B6A002B56
:10498400E5D17B681B6E012B18D17B681B68FB602B
:10499400FB6853E8003FBB60BB6823F010037B64F3
:1049A4007B681B681A467B6CBB617A617969BA695A
:1049B40041E800233B613B69002BE6D17B68202260
:1049C400DA677B6800221A667B6800225A6600BF99
:1049D4005437BD465DF8047B704780B584B000AFA2
:1049E40078607B685B6AFB60FB680022A3F85A204E
:1049F400FB680022A3F85220F868FFF743FB00BFCE
:104A04001037BD4680BD80B48FB000AF78607B683E
:104A14009B6F212B4DD17B68B3F852309BB2002B96
:104A240032D17B681B683B623B6A53E8003FFB6101
:104A3400FB6923F080037B637B681B681A467B6BEE
:104A4400FB62BA62B96AFA6A41E800237B627B6A54
:104A5400002BE6D17B681B68FB60FB6853E8003FD2
:104A6400BB60BB6843F040033B637B681B681A462A
:104A74003B6BBB617A617969BA6941E800233B61A8
:104A84003B69002BE6D114E07B68DB6C1A787B6809
:104A94001B6892B21A857B68DB6C5A1C7B68DA64EB
:104AA4007B68B3F852309BB2013B9AB27B68A3F89F
:104AB400522000BF3C37BD465DF8047B704780B48C
:104AC40091B000AF78607B689B6F212B51D17B68DC
:104AD400B3F852309BB2002B32D17B681B687B62E7
:104AE4007B6A53E8003F3B623B6A23F08003BB636D
:104AF4007B681B681A46BB6B3B63FA62F96A3A6BC4
:104B040041E80023BB62BB6A002BE6D17B681B68CB
:104B14003B613B6953E8003FFB60FB6843F04003A3
:104B24007B637B681B681A467B6BFB61BA61B9695E
:104B3400FA6941E800237B617B69002BE6D118E028
:104B44007B68DB6CFB63FB6B1A887B681B68C2F3B6
:104B5400080292B21A857B68DB6C9A1C7B68DA6463
:104B64007B68B3F852309BB2013B9AB27B68A3F8DE
:104B7400522000BF4437BD465DF8047B704780B5C2
:104B840088B000AF78607B681B68FB60FB6853E803
:104B9400003FBB60BB6823F04003FB617B681B687C
:104BA4001A46FB69BB617A617969BA6941E80023F5
:104BB4003B613B69002BE6D17B6820229A677B68C6
:104BC40000229A667868FBF721FE00BF2037BD46B5
:104BD40080BD80B596B000AF78607B68B3F85C3078
:104BE400A7F856307B68DB6F222B40F094807B68FB
:104BF4001B689B8CA7F85430B7F85430D9B2B7F877
:104C04005630DAB27B685B6D0A40D2B21A707B68A8
:104C14005B6D5A1C7B685A657B68B3F85A309BB24B
:104C2400013B9AB27B68A3F85A207B68B3F85A30E8
:104C34009BB2002B77D17B681B68BB63BB6B53E8CB
:104C4400003F7B637B6B23F490733B657B681B683D
:104C54001A463B6D7B643A64396C7A6C41E80023F4
:104C6400FB63FB6B002BE6D17B681B6808337B621C
:104C74007B6A53E8003F3B623B6A23F00103FB6419
:104C84007B681B680833FA6C3A63FB62F96A3A6B17
:104C940041E80023BB62BB6A002BE5D17B6820227C
:104CA400DA677B6800225A667B681B6E012B2ED163
:104CB4007B6800221A667B681B683B613B6953E88A
:104CC400003FFB60FB6823F01003BB647B681B6838
:104CD4001A46BB6CFB61BA61B969FA6941E8002301
:104CE4007B617B69002BE6D17B681B68DB6903F081
:104CF4001003102B03D17B681B6810221A627B6897
:104D0400B3F8583019467868FFF7C6F90BE07868AD
:104D1400FBF78EFD07E07B681B689A697B681B685C
:104D240042F008029A6100BF5837BD4680BD80B585
:104D340096B000AF78607B68B3F85C30A7F8563063
:104D44007B68DB6F222B40F094807B681B689B8C14
:104D5400A7F854307B685B6D3B65B7F85420B7F80F
:104D6400563013409AB23B6D1A807B685B6D9A1C77
:104D74007B685A657B68B3F85A309BB2013B9AB2A0
:104D84007B68A3F85A207B68B3F85A309BB2002B97
:104D940077D17B681B687B637B6B53E8003F3B6385
:104DA4003B6B23F49073FB647B681B681A46FB6CB3
:104DB4003B64FA63F96B3A6C41E80023BB63BB6B59
:104DC400002BE6D17B681B6808333B623B6A53E8DF
:104DD400003FFB61FB6923F00103BB647B681B6834
:104DE4000833BA6CFA62BB62B96AFA6A41E8002312
:104DF4007B627B6A002BE5D17B682022DA677B68C3
:104E040000225A667B681B6E012B2ED17B68002220
:104E14001A667B681B68FB60FB6853E8003FBB6055
:104E2400BB6823F010037B647B681B681A467B6CA9
:104E3400BB617A617969BA6941E800233B613B69E6
:104E4400002BE6D17B681B68DB6903F01003102B91
:104E540003D17B681B6810221A627B68B3F8583050
:104E640019467868FFF718F90BE07868FBF7E0FC5F
:104E740007E07B681B689A697B681B6842F008023C
:104E84009A6100BF5837BD4680BD80B483B000AF7F
:104E9400786000BF0C37BD465DF8047B70470000A6
:104EA40070B50D4D0D4C641BA4100026A64209D10B
:104EB4000B4D0C4C00F020F8641BA4100026A642F5
:104EC40005D170BD55F8043B98470136EEE755F817
:104ED400043B98470136F2E74C4F00084C4F00085A
:104EE4004C4F0008544F000802440346934200D13B
:104EF400704703F8011BF9E7F8B500BFF8BC08BC1C
:104F04009E467047F8B500BFF8BC08BC9E46704783
:104F14000000000000000000010203040607080965
:104F24000000000001020304020304050607080947
:104F34000A0B0C0D0E0F10100102030405060708DE
:084F4400090A0B0C0D0E0F1001
:084F4C00B9010008D9100008AA
:044F540095010008BB
:0C4F580000127A001000000001000000B0
:04000005080012B12C
:00000001FF
