:020000040800F2
:1000000010120020F54400081543000817430008AB
:10001000194300081B4300081D43000800000000AE
:100020000000000000000000000000001F43000866
:100030002143000800000000234300082543000876
:100040000D45000811450008154500081945000830
:100050001D450008214500082545000829450008E0
:100060002D45000831450008354500083343000898
:1000700039430008394500083D450008414500085E
:1000800045450008494500083F4300084D45000824
:100090005145000855450008594500085D450008D0
:1000A0006145000865450008694500086D45000880
:1000B00071450008754500080000000079450008FA
:1000C0007D45000800000000000000008145000898
:1000D0000000000051430008574300088545000810
:1000E000894500088D450008000000000000000060
:1000F0000000000000000000000000000000000000
:1001000000000000000000000000000000000000EF
:10011000000000000000000091450008954500081F
:1001200000000000000000000000000000000000CF
:1001300000000000000000000000000000000000BF
:10014000994500089D4500080000000000000000DF
:10015000000000000000000000000000000000009F
:10016000000000000000000000000000000000008F
:10017000000000000000000000000000000000007F
:1001800000000000A1450008DFF8940A01F038BC27
:10019000FEB5DFF8905AD5F8501804468C4248D185
:1001A00095F8BF0810B1002285F8BF2805F6870230
:1001B000B1F850001378002108E0DBB25E1C322356
:1001C00096FBF3F3322707FB1363491C814203DAE2
:1001D0005778DEB2BE42F0D100200090137005F5D2
:1001E00005666A4601A9304601F01AFCDFF8387A44
:1001F000A0B1387840F0100038700099D5F8500858
:100200008AB2019901F07EFC95F8BF2800998A18FE
:1002100085F8BF2810B90098C5F88C0895F8BF0874
:1002200038B9304602F046F818B1387800F0EF00DF
:100230003870D5F8EC08844208BF00F089FEF7BD9D
:10024000F8B5DFF8E0590446D5F85008844222D1C9
:10025000DFF8E479387805F50566C0F3001020B9B9
:1002600095F89A18304600F04BF995F8BF0840B958
:10027000304602F01FF838B1387800F0EF003870DF
:1002800002E0411E85F8BF180122D5F8500805F696
:100290009A0101F069FC05F6EC06306884420AD147
:1002A000307900F087FD306805F50F61BDE8F84052
:1002B000012201F059BCF1BDDFF88029DFF8801977
:1002C000904204BF084601F071BADFF878299042E5
:1002D00004BF084601F023BA7047DFF86C09017CBF
:1002E000491CCAB2652A03DB017401218174002113
:1002F0000174417C491CCAB20B2A03DB4174012101
:10030000C1740021417401F0D3BA00002DE9F84115
:1003100085B001F0D9FF00F0B9F872B601F0E6FF40
:1003200002F07AF802F098F802F0A1F802F020F951
:1003300002F04EF902F052FA01F05DFA4FF400704B
:1003400000210090019102916946DFF80069DFF811
:10035000D448DFF8D458304602F08CFA04F50C6823
:100360000121404602F058FB0121404602F05AFBB1
:10037000287800F0FE00287004F50567297841F020
:1003800008012970307D40F010003075DFF8580901
:10039000017801F0DF010170307D40F02000307500
:1003A000307D00F0BF003075DFF89C68304601F00A
:1003B00027FADFF838093860012204F69A0101F0C3
:1003C000D3FBDFF82C09C4F8EC08012204F50F6117
:1003D00001F0CAFB5FF00E0228A104F60F1002F034
:1003E00029FBDFF810498021201D02F02FFB80211E
:1003F00004F1840002F02AFB0020207062B630462F
:1004000001F018FA404600F071FEDFF8340801F000
:1004100074F90BE0401C3871386C38B1786C0028E6
:1004200004DD401E04BF002139647864B07C68B1EB
:100430000021B17406F1100001F08EFAD4F8140115
:10044000B0F5FA6F3CBF401CC4F81401F07C0028E2
:10045000ECD00021F174304601F00BFA404600F078
:1004600060FE2878C0F300100028D4D03879152811
:10047000D0DB287800F0EF002870CDE701C9080133
:100480008E700E15000002359B58000000B595B027
:10049000282200210BA802F0DCFA01F0ACF91822A6
:1004A000002105A802F0D5FA022101220B910F923A
:1004B000102102221091129200214FF46012139128
:1004C00014920BA802F0D0FA022101910F204FF4F0
:1004D00080610090002203910292049202216846FA
:1004E00002F04AFC41F28101059100224FF4C071F3
:1004F000079209910A9205A802F010FD15B000BDFF
:1005000010B5044604F14D0010E0612900F09B8015
:100510005B2900F09A805C2900F09980BC2900F0EA
:100520009880BF2900F0978000222264226C002A64
:1005300000F07F80012A00F07F80022A43D0032A46
:1005400044D0042A45D0052A46D0062A47D0072A97
:1005500000F084800A2A36D00B2A00F08B800C2A07
:1005600000F092800D2A00F09D800E2A00F09F80FE
:100570000F2A00F0A280322A25D0332A26D0342A2E
:1005800027D0352A00F09F803C2A1CD03D2A1DD060
:100590003E2A1ED03F2A1FD0402A00F09A80462AC9
:1005A00011D0472A12D0482A13D0492A14D04A2AF7
:1005B00015D04B2A16D04C2A17D04D2A18D04E2AC7
:1005C00000F08D80502A00F09080512A00F08F803A
:1005D000522A00F08E80532A00F08D80542A00F0B9
:1005E0008C80552A00F08B80562A00F08A80572A8A
:1005F00000F08980582A00F08880592A00F087800E
:100600005A2A00F086805B2A00F085805C2A00F080
:1006100084805D2A00F083805E2A00F082805F2A59
:1006200000F08180602A00F08080612A7FF47CAF36
:1006300019E0A52919D132E00022C32982777FF47D
:1006400064AF022010E00A2106E032200CE03C21D9
:1006500002E0462008E05021216406E0FF2904BFA3
:10066000204600F0E5F800202064206C08B9142131
:10067000616410BD002241708277236C5B1C23648F
:10068000807F8842F1D30AE0827F224482F84F10B3
:10069000817F491C8177C9B240788142E5D3216CC2
:1006A000491CD9E7807F204480F84F10F7E7807F0E
:1006B000204400F14F025170F1E7FF29D3D12046C9
:1006C00000F07EF8CFE7FF29CDD1204600F05EF89C
:1006D000C9E7FF29C7D1204600F08FF8C3E7FF29FB
:1006E000C1D1204600F023F8BDE70170D7E7417083
:1006F000D5E78170D3E7C170D1E70171CFE74171D0
:10070000CDE78171CBE7C171C9E70172C7E74172DB
:10071000C5E78172C3E7C172C1E70173BFE74173E7
:10072000BDE78173BBE7C173B9E70174B7E738B5BB
:1007300000F14D039979DA7942EA01224EF2E101A2
:100740008A4222D199785D781C785A79090441EA65
:100750000561DD781B7941EA05211943CC2C0AD1CA
:10076000DFF8E444A36999420FD180F86D20CC21D1
:10077000BDE834408BE190F86D00844205D1BDE8BE
:100780003840DFF89C0400F03BBD31BD00F14D0165
:100790004A788B7843EA02234EF2E10293420ED16B
:1007A000097890F86D20CC2902D1CC2A07D10DE12F
:1007B000914204D10021DFF8680400F018BD7047B1
:1007C00010B500F14D02937F5178034413F84F4F59
:1007D0005B7843EA04234EF2E104A34202BF90F89F
:1007E0006D301278934207D1BDE8104000F14F02FE
:1007F000DFF82C0402F018BC10BD00F14D018A781E
:10080000CB7843EA02234EF2E10293420FD10A78F9
:10081000497890F86D30CC2A03D1994207D1CC2188
:1008200003E19A4204BFDFF8F80300F001BD70470E
:10083000F8B500F14D02D178137943EA01234EF265
:10084000E1018B4269D11478517892F9023090F825
:100850006D50CC2C58D1A9425FD1D90748BF23F0A5
:1008600002035907D17F44BF23F008035BB29942CA
:1008700045D0DFF8D4431E2525604FF4C871616070
:10088000DD07DFF858582E784CBF8021002106F094
:100890007F063143297099072E784CBF40210021F3
:1008A00006F0BF063143DFF83868297059073778FA
:1008B0004CBF2021002107F0DF07394331701907B1
:1008C00037784CBF1021002107F0EF073943317012
:1008D0002978C9091CBF012121722978C1F380112F
:1008E00009B1002121723178C1F3401109B1012110
:1008F00061723178C1F3001109B100216172D377BF
:10090000CC21BDE8F44009E0AC4206D1DAB2BDE842
:10091000F840DFF80C0300F095BCF1BD70B50D4652
:10092000DFF824130446087A00F0A8F800F04BF82A
:10093000422100F048F8294600F045F894F86D107F
:10094000DFF8FC5200F03FF8012100F03CF831469E
:1009500000F039F8A888C1B200F035F8A888C1B213
:1009600000F031F8B5F90C0000F02BF8A889C1B2FD
:1009700000F029F8B5F9240000F023F8A88CC1B2E2
:1009800000F021F8B5F91C0000F01BF8A88BC1B2EB
:1009900000F019F8B5F9340000F013F8A88EC1B2D0
:1009A000FFE700F010F8E02100F00DF8E12100F081
:1009B0000AF8FF2100F007F82046BDE8704002F079
:1009C0004FBB0004010E204602F06ABB2DE9F04146
:1009D00088465A210446DFF820038669FFF7F3FFB3
:1009E0005B21FFF7F0FF4146FFF7EDFF310EFFF708
:1009F000EAFF3502290EFFF7E6FF3704390EFFF74D
:100A0000E2FFF1B2FFF7DFFF0121FFF7DCFFE0219A
:100A1000FFF7D9FFE121FFF7D6FFFF21FFF7D3FF53
:100A20002046BDE8F04102F01BBB2DE9F0478946A6
:100A3000DFF8C4128D698046087A98F86DA02F02FD
:100A40002C0400F01BF800F05CF85C2100F059F871
:100A500000F056F8514600F054F8012100F051F82A
:100A6000314600F04EF8290E00F04BF8390E00F038
:100A700048F8210E00F045F8E9B231E0002600B157
:100A80000126487A08B146F004065A2170472DE93C
:100A9000F0478946DFF8B0118E698046087A98F8E9
:100AA0006DA03402350400F01FFD5A2100F029F832
:100AB0005D2100F026F800F023F8514600F021F8FF
:100AC000310E00F01EF8210E00F01BF8290E00F088
:100AD00018F8F1B200F015F8012100F012F83946CB
:100AE00000F00FF8E02100F00CF8E12100F009F827
:100AF000FF2100F006F84046BDE8F04702F0B0BA2A
:100B00004946404602F0CCBA20B5DFF87C28DFF831
:100B10007C581388E854DFF87808C1545B1C99B2FC
:100B20006429A8BF0023138020BDFEB5082200F071
:100B300063FE3C4800218170017141718171C17176
:100B400001704170CCB2DDE9002300EBC40505F172
:100B50000C06491CC6E90023CFB2042FF2DB00F6D5
:100B60004C00002141700170F7BD70B52C4DFFF7AE
:100B7000DCFF0021284601F055FF40F2DC5002F076
:100B8000A5FA0121284601F04DFF002600F0B9F832
:100B90000446642002F09AFA652E06DA761C002CD0
:100BA000F4D0A0783E28F1D170BD002CDFD0A07821
:100BB0003E28DCD170BDF8B500F02EF80223E870B5
:100BC0002B700826571CAE706F7004F1300001F0D6
:100BD00031FF284600F0CFF8284600F013FA10F154
:100BE000010FF9D0B8B900F035F800F0DAF818B90B
:100BF00000F02EF80028F8D000F02AF800B115E037
:100C000004F5997001780B2901D14078F2BD0929CA
:100C100000D00EE00020F2BD024C04F12C0570471C
:100C2000D809002018010020150000486FF00300CB
:100C3000F2BD6FF00100F2BD15000048480D002024
:100C4000380A0020F80C0020700A00200004004838
:100C500003206FE04FF47A61032082E0052205F261
:100C60003311204601F0E6BEF8B5F32A1C4600DB3E
:100C700044E000F031F8502700F026F8304600F04C
:100C80007AF8304600F0BEF910F1010FF9D0D0B972
:100C9000FFF7E0FF00F085F818B9FFF7D9FF00284B
:100CA000F8D0FFF7D5FF00B1C0E705F599700178DE
:100CB000532901D14078F2BD512900D0B9E70CB1D8
:100CC000FFF7CCFF0020F2BDB770531C7370F070BB
:100CD00005F1300001F0AEBEDFF8CC5A05F12C066C
:100CE000022333707047000015080048280B0020CD
:100CF000AC0B002000000020700A00206FF00500FF
:100D0000F2BD10B5DFF8A01A01F64C0200205378AE
:100D10001478A3420DD053785C1C54704FF4827049
:100D20004343C8185178062900F50D7004BF00230D
:100D3000537010BD10B5044602F0DCF9DFF8681AF4
:100D400001EBC4021169884203D3401AD16888427A
:100D500003E0401ED268401A90428041C043C00F59
:100D600010BD10B5DFF8402A02EBC004E16002F0CC
:100D7000C1F9206110BD10B5817842785218A0F8F1
:100D80000221002108E0CBB20344B0F80221DC7854
:100D90001419A0F80241491C4378CAB29A42F2D30E
:100DA00010BDDFF8041A487910B100224A71012001
:100DB000704700002DE9F84505460020FFF7BAFF0F
:100DC000DFF8E86A08B10020F0702846F478214680
:100DD000FFF79AFEDFF8D01901F50D7201F5987052
:100DE0004FF4827314B1012C2BD031E0022D18BFC7
:100DF000032D0FD0062D18BF152D02D03F2D12D078
:100E00001BE0087820B101228A70CD70002016E026
:100E100000221BE0057000F091F80A21D55400F083
:100E200094F8022004E0487820B100F08DF8012009
:100E3000F07081E000220A707EE0002048700870A7
:100E40007AE04D72012008710022F2704A7073E05E
:100E5000B6F80480D6F808E0A4F1020ABAF1040F4B
:100E600005EB080767D8DFE80AF05A3B2E28030095
:100E7000BEF8020140EA0520AEF802010122CA7163
:100E8000BEF80231434512D1B07808B94A710BE07F
:100E900091F84C08401C81F84C0891F84C08062841
:100EA00004BF002281F84C280620087201E01522B8
:100EB0000A7200F04DF800243DE0AEF8025100F057
:100EC00043F8062437E070780EF103010D54401CFE
:100ED000707000F038F87078317888422BD11AE0C1
:100EE0003E2D18BF262D08D0522D18BF5A2D04D0E4
:100EF000562D1CBF5E2D002403D100F01FF80124E5
:100F0000D0180021B47085707170B06000F01BF8CB
:100F1000B168487808B905240DE004240BE0457059
:100F2000032400F00BF8C8180A2180F83552B58068
:100F3000357000F00AF8F470BDE8F18591F84C08BE
:100F400013FB00F37047B7800A21002009E7000077
:100F500070B5DFF8504ADFF850382278D87903F5B9
:100F60000C6528B1062A3ED0197A42F0800236E09C
:100F7000B3F82E11062A03F12C063DD8DFE802F063
:100F8000040A141A282D33003178002200F036F8B4
:100F9000012231E00121284601F03EFD22787178DE
:100FA00000F02CF8022227E0B178022200F026F8A7
:100FB000032221E060787678B04209D0411C61704C
:100FC0001844032290F82F1000F018F8227813E04C
:100FD000C9B200F013F805220EE00522090A00F05C
:100FE0000DF8062208E0D879002807BF0121997181
:100FF0000020D87100226070227070BD284602F077
:101000007FB80000F8B5DFF8A059DFF89C672978B1
:10101000687803294FF0FF3406F50C675CD8DFE8E9
:1010200001F0020E343D0020B0713071002100F05B
:101030005AF8C8210220FFF794FE01202CE018B1D5
:1010400001207070002169700220FFF773FE90B9D3
:101050003079002840D0707A10F0060F06D000F0EA
:1010600041F8002028706FF00C040BE00221297079
:10107000FFF76EFF06E000F035F8002028706FF0F3
:101080000A0470700120687026E0B079012823D12D
:101090002821FFF766FE032028701DE018B101200B
:1010A0003070002169700120FFF744FE68B9B07804
:1010B00090B10021B170F078297006280CBF00248F
:1010C0006FF009040121697006E00020287030707B
:1010D00001226FF00B046A702046F2BD1400004834
:1010E000150400480121384601F096BC10B50446AD
:1010F000FFF73BFD642001F0E9FF01220FF6D40168
:101100000020FFF758FD0A2001F0E0FF0E2204F155
:101110004F010120FFF74FFDBDE810400A2001F00C
:10112000D5BFF8B50446FFF7ECFD04F12805A8612A
:10113000B0B30178032902D10020A86130E0C11DBD
:101140000878202811D0212813D0222815D0232850
:1011500017D0502819D051281BD052281DD0532801
:1011600004BF204600F016F91AE0204600F0C4F94A
:1011700016E0204600F0F5F912E0204600F010FAE3
:101180000EE0204600F04EFA0AE0204600F069F832
:1011900006E0204600F08AF802E0204600F0B8F8A9
:1011A00028786978884221D0204601F0B2FF0746AE
:1011B000204601F0B5FF0646B74203DA002028704A
:1011C0006870F1BD002506E0204601F0A9FF04F19A
:1011D000440148556D1CB542F6DB324604F144012A
:1011E00001B0BDE8F040002344203DE5F1BD80B5ED
:1011F00050228DF800208DF801106A4602212BE064
:101200001CB50B0E8DF8013052208DF800000B0A32
:101210008DF804108DF805200C0C8DF803308DF836
:1012200002406A460621DFF8840701F0FDFE13BD87
:1012300080B58DF80110512252218DF800208DF8D3
:10124000021007E080B553238DF801108DF80220BD
:101250008DF800306A460321DFF8500701F0E4FE04
:1012600001BD3EB5DFF8403593F8BD08CC281CD150
:101270000FF26470DFF83857A969D0E90024CDE98E
:1012800000248DF80410080E0A0C8DF801008DF86A
:1012900002200C0A01218DF805108DF803406A46E2
:1012A000062103F50C6001F0BFFE37BDFEB5DFF887
:1012B000F834487893F8BD28904228D1DFF8F046FA
:1012C000207A002100B10121607A08B141F00401C7
:1012D0000FF20C75D5E90067CDE900678DF80120A4
:1012E0008DF8031001228DF80220A169080E0A0C66
:1012F0008DF804008DF805208DF807100C0A8DF884
:1013000006406A46082103F50C6001F08DFEF7BD2A
:10131000FEB58C784878DFF89836CD789A69240441
:1013200044EA0064087944EA05240443A2422AD12D
:101330004979187A002400B10124587A08B144F0A0
:1013400004040FF2A463DFF86C06D3E90056CDE97C
:101350000056130E8DF804308DF803408DF80110FF
:10136000130A8DF8072080F8BD180127140C8DF89A
:1013700006308DF802708DF805406A46082100F5A8
:101380000C6001F051FEF7BD0C0E0020300C002067
:10139000940C00202DE9F04FDFF80C9409F6BC0204
:1013A00085B048785378984240F09B808B78DFF87E
:1013B0000016D80748BF03F0FD035807107848BF50
:1013C00003F0F703984243D01E240C604FF4C87614
:1013D0004E60D807DFF8E04526784CBF802000201B
:1013E00006F07F0630432070980726784CBF4020D7
:1013F000002006F0BF063043DFF8C06520705807B4
:1014000037784CBF2020002007F0DF0738433070CA
:10141000180737784CBF1020002007F0EF0738433B
:1014200030702078C0091CBF012008722078C0F3FA
:10143000801008B1002008723078C0F3401008B165
:10144000012048723078C0F3001008B100204872C3
:1014500013705678087A00F047F8DFF86405B0F9A1
:101460000C1084888DF803104FEA2128B0F924105D
:101470008DF802100D12B0F91C10B0F934008DF87F
:1014800001108DF800004FEA212A4FEA202B01A815
:101490000FF25C51102201F0CDFA012001A98DF864
:1014A000077088704E700C718DF809408DF80A80B5
:1014B00001AA9DF80300C8710D7281F80CB08DF877
:1014C0000EA09DF8020048720E219DF801008DF8D3
:1014D0000F009DF800008DF8110009F50C6001F077
:1014E000A3FD05B0BDE8F08F002700B10127487AC1
:1014F00008B147F0040770472DE9F047DFF8B4045E
:101500004C788D78CE780F7991F8058090F8BD9859
:1015100000F5056A5A2100F021F85B2100F01EF861
:10152000494600F01BF8214600F018F8294600F063
:1015300015F8314600F012F8394600F00FF8414630
:1015400000F00CF8E02100F009F8E12100F006F8C5
:10155000FF2100F003F85046FFF7CEBA504601F0E5
:101560009FBD2DE9F84F00F049F85C2100F057F8D5
:10157000514600F054F89DF8001000F050F8214654
:1015800000F04DF8294600F04AF8314600F047F8DF
:10159000394600F044F8414600F041F849461DE064
:1015A0002DE9F84F00F02AF85D2100F038F8514697
:1015B00000F035F89DF8001000F031F8314600F0E9
:1015C0002EF8394600F02BF8414600F028F849463D
:1015D00000F025F8214600F022F8294600F01FF817
:1015E000E02100F01CF8E12100F019F8FF2100F0E3
:1015F00016F85846BDE8F24F01F032BD48788DF834
:10160000000069488C78CD780E794F7991F8068082
:1016100091F8079090F8BDA800F5056B5A2158463F
:1016200001F03EBD2DE9FE4F48788DF806008A781E
:10163000DFF8800390F8BDA88DF8052000F5056B54
:10164000CB788DF8043058460A798DF803204B7911
:101650008DF802308A798DF80120CB798DF8003031
:101660000C7A4D7A8E7ACF7A91F80C8091F80D90A1
:101670005A2101F015FD4221FFF7D1FF5146FFF736
:10168000CEFF9DF80610FFF7CAFF9DF80510FFF783
:10169000C6FF9DF80410FFF7C2FF9DF80310FFF787
:1016A000BEFF9DF80210FFF7BAFF9DF80110FFF78B
:1016B000B6FF9DF80010FFF7B2FF2146FFF7AFFF1E
:1016C0002946FFF7ACFF3146FFF7A9FF3946FFF780
:1016D000A6FF4146FFF7A3FF4946FFF7A0FFE02121
:1016E000FFF79DFFE121FFF79AFFFF21FFF797FF2B
:1016F0005846BDE8FE4F01F0B3BC10B5DFF8C44258
:10170000DFF8C4020322214601F0FEFD04F10C01C2
:10171000BDE810400222DFF8B40201F0F5BDF0B5DB
:10172000DFF8A0120369B1F90C20C281B0F90E40B4
:10173000B1F90E201D19AE1205EB5653DB1219B28A
:101740006D1A0561E41A21B2DFF87442A569002917
:1017500048BF494205FA81F6771106EB9765AD114E
:1017600029B2761AA661866AB718B91207EB5156E4
:10177000F61231B27F1A8762911B09B20029276BDA
:1017800048BF494207FA81F7791107EB91614FEAA7
:10179000A11C0FFA8CF17F1A276386858583C2848A
:1017A0008382A0F834C0F0BD1801002010B5DFF826
:1017B0001412B1F90020C280B1F902308268C383EB
:1017C000B0F90630B1F904108180D218141202EB7E
:1017D000D4535B1219B2521A82608381016AB0F944
:1017E0001E208A18131202EBD3535B1219B2521A3D
:1017F0000262838410BD14220021684601F029B9D9
:1018000010B56B484FF47A7141606B490A7842F029
:1018100040020A70694A137843F0100313700C7881
:1018200004F07F040C70117801F0DF0111701E22AA
:10183000026010BD10B504465D48322141600022AF
:10184000027500F012F80121204602F0C9F9642067
:1018500001F03CFC5848017801F0BF010170574885
:10186000027802F0EF02027010BD0121204602F062
:10187000CBB938B504464F4890F8BD18FF2913D0AE
:101880004B4D287D012803D1207A68B9FFF7EDFF81
:10189000287D022804BF607A002805D12046BDE8D3
:1018A0003440012102F09CB931BD0000FC0D002044
:1018B00070B50446002660683F4D01282DDA404986
:1018C000B1F91C2040F205108242BCBFB1F93410BE
:1018D000814212DB608906280BDB354A0020107537
:1018E0000021204602F07CF90021FFF7BFFF01260E
:1018F00001E0401C6081002005E0A089C928A8BF44
:10190000668101DA401CA081287800F0FD0086F095
:10191000010640EA4600287007E0401E42F21171BD
:101920008842A8BF4FF47A706060206810B1401EF2
:10193000206070BD287800F0BF0028701F48017833
:1019400001F0EF0101702A7802F07F022A7001781D
:1019500001F0DF01017070BD154A117A002904BF42
:10196000517A00291AD190F90510012913DA144A85
:10197000B2F90C3040F2F5118B42A8BF012104DA14
:10198000B2F924208A4201DB0221017109490020B9
:10199000A1F8FC0870474A1E427170470F2141713F
:1019A000704700000E0E00209C0A0020D80900207D
:1019B000700A002018010020140000481504004897
:1019C000380A0020E40D0020480D0020F80C00200B
:1019D000704700001100000020000000000000001F
:1019E00021000000000000002200000000000000B4
:1019F00023000000000000000000000000000000C4
:101A000038B5044602F014F90020A08704F144051B
:101A100028460A2102F012F90020A872204632BDA1
:101A200030B500F137035C781D78A54201D1002064
:101A300030BD32BF641B2C46C4F1320414601A78E6
:101A40001044431D0B60012030BD30B4002513E06D
:101A500050F8042BD30744BFA9F101039A18091FBA
:101A6000042942F8045BFAD213468C0744BF158060
:101A70009B1CC90748BF1D7050F8041B0029E7D103
:101A800030BC704738B5040009D004F174056968AA
:101A900009B900F028F800F00DF8012801D1012063
:101AA00032BD606A08B100F023F800F014F821F0AC
:101AB0002A0109E024216960206802685208520066
:101AC0000260204600F092B9816000F014F8BDE891
:101AD000324000F08ABA2068416821F490414160A8
:101AE00020688168704700202870204600F0E2BC22
:101AF000204600F017BA2068016841F0010101603A
:101B00002046704730B500F174035C68202C29D161
:101B100009B1140001D1012030BD1C78012C21D065
:101B200001251D7000F15004C164228062800021F3
:101B3000A161D960212159608268B2F5805F04BF3C
:101B40000169002907BFDFF8B823A261DFF8B413E9
:101B5000A16100221A700068016841F080010160F3
:101B6000002030BD022030BD38B500F174039C6800
:101B7000202C0DD109B1140001D1012032BD1C78F7
:101B8000012C05D000F006F8BDE8384000F09EBA00
:101B9000022032BD01251D700023036604686368BE
:101BA0001C0204D503681D6845F080651D60704700
:101BB000816821F0400181607047F8B5044640F625
:101BC0000F022368DE691F68D3F808C0324004F1B1
:101BD000580507F0200006F020010BD1002918BF9E
:101BE00000280DD0E968002900F0F8802046BDE803
:101BF000F44008475FEACC7203D4DFF80C231742A5
:101C000070D0F20707D5FA0505D501221A62AB6A32
:101C100043F00103AB62B20748BF5FEACC7306D55D
:101C2000236802221A62AA6A42F00402AA627207B8
:101C300048BF5FEACC7306D5236804221A62AA6AF9
:101C400042F00202AA6232070AD510B95FEACC72EA
:101C500006D5226808231362AA6A42F00802AA6223
:101C6000320509D57B0107D526684FF40062326240
:101C7000AA6A42F02002AA62AA6A002A31D0002988
:101C800018BF002803D0E96809B120468847A86A30
:101C900021688A68510602D410F0280F1CD0204613
:101CA00000F055FA206881684A0610D5FFF780FFDA
:101CB000A86960B10FF2E1414163A86902F043F8FD
:101CC00000280ED0A869416BBDE8F44008472046C3
:101CD000BDE8F24002F0D8B8204602F0D5F8002066
:101CE000A862F1BDA868012850D1F0064ED5F906CA
:101CF0004CD51020186221688868410626D5A9694C
:101D00000868406880B2002868D02A88904265DA66
:101D100068808869202815D02168086820F48070C0
:101D20000860206881684908490081602068FFF7E1
:101D30003FFF202068620021A96000F050F8A869E8
:101D400001F0E1FF29886888091A19E02A88698862
:101D50006888511A00281CBF88B200283ED020682D
:101D6000026822F490720260206882685208520071
:101D70008260202068620022AA60EA6000F02FF8EA
:101D80002046BDE8F44089B202F07FB8F00248BFB7
:101D90005FEA4C2107D54FF4801018622046BDE859
:101DA000F24002F073B8300607D5390605D5296927
:101DB000A1B12046BDE8F440084770060ED579066B
:101DC0000CD51A6822F040021A60202028620022F6
:101DD0002A612046BDE8F240FEF7DAB9F1BD20687D
:101DE000026822F0100202607047000070B50446DD
:101DF000464822681368A168034020690B43616963
:101E00000343E0690B430343136000255168E06816
:101E100021F44051014351609368A169206A23F481
:101E200030630B433A4903438A4293600FD13948E8
:101E3000026802F00302032A11D8DFE802F00E0460
:101E4000060202210CE004210AE0082108E03248E1
:101E500082421CBF3148824201D1002100E01021A2
:101E6000E3692F48B3F5004F4FF6F0764FF4004288
:101E700022D131B1022908D0042918D0082919D05B
:101E800037E001F017F8002834D061684A0802EB07
:101E90004002B2FBF1F080B2A0F11001B14228D2B1
:101EA0000640C0F3420006432068C66022E000F00E
:101EB000E3FFE8E71046E8E731B1022907D004293B
:101EC00012D0082913D014E000F0F4FF90B161683B
:101ED00000EB5100B0FBF1F080B2A0F11001B14273
:101EE00007D22268D06005E000F0C6FFEEE710469A
:101EF000EDE7012500206066A066284670BD000061
:101F0000D1210008A921000820010004F369FFEF96
:101F100000380140301002400044004000480040BA
:101F200000127A0090F82410CA0706D50268536898
:101F3000816A23F400330B43536090F824108A071E
:101F400006D502685368C16A23F480330B4353609B
:101F500090F824104A0706D502685368016B23F4F1
:101F600080230B43536090F824100A0706D50268BB
:101F70005368416B23F400430B43536090F82410E3
:101F8000CA0606D502689368816B23F480530B431D
:101F9000936090F824108A0606D502689368C16B96
:101FA00023F400530B43936090F824104A0610D595
:101FB00002685368016C23F480130B435360036C75
:101FC000B3F5801F05D15368416C23F4C0030B4364
:101FD000536090F824100A0606D501684A68806CA0
:101FE00022F4002202434A607047F8B5044604F127
:101FF00074050020E8606FF07E4701F07BF806462C
:10200000206801680A0708D50097334600224FF47C
:102010000011204600F017F860B9206801684A07EF
:102020000AD50097334600224FF48001204600F085
:102030000AF808B10320F2BD20206860A8600020E3
:1020400020662870F2BD2DE9F041069C05460E463B
:1020500090461F462868C1693140B1420CBF01203B
:102060000020404520D114F1010FF3D001F042F8D7
:10207000C01B844200D334B900F018F8002101706D
:102080000320BDE8F081286801684A07E2D5C169EC
:102090000805DFD54FF400612A681162002200F0C4
:1020A00005F8C1600270EBE70020EAE728680168E4
:1020B00021F4D07101602868816849084900816075
:1020C00005F17400202141608160704700F15803E0
:1020D00041651A805A800021D960FF228168B1F5DC
:1020E000805F04D1016991B940F2FF120FE019B984
:1020F000016961B17F2107E0B1F1805F06D101691B
:1021000009B97F2203E03F21998001E000229A80F3
:102110000021996222225A6201688A6842F0010213
:102120008A608168B1F5805F04BF0169002907BF3B
:102130000FF2F102DA600FF2C501D96000221A77BE
:102140000068016841F490710160002070470168E7
:102150000A6822F490720A6001688A685208520084
:102160008A60016E012904D101680A6822F0100218
:102170000A602021C16700220266426670470000A3
:1021800001680A6822F080020A600068016841F074
:102190004001016070470000406A00F152010022D6
:1021A0000A810A8001F070BE816F21290FD1B0F839
:1021B000521001B9E4E7C16C03680A781A85C16C52
:1021C0004A1CC264B0F852104A1EA0F85220704750
:1021D000816F212911D1B0F8521001B9D0E7C16C3B
:1021E00003680A88C2F308021A85C16C8A1CC2649B
:1021F000B0F852104A1EA0F85220704710B500F0F7
:1022000025F80AD18A8CA188436D0A401A70416D65
:102210004A1C00F021F821B924E0886940F0080048
:10222000886110BD10B500F011F80AD18A8CA18820
:10223000436D0A401A80416D8A1C00F00DF821B9E7
:1022400010E0886940F00800886110BD00F1580472
:102250000168626A222A7047426561884A1E62806C
:102260006188704700F020F800F012F820216162C8
:102270000022E260A168012905D100F00FF8218851
:1022800001F003FE01E0FDF7DBFF0020A06010BDC0
:1022900001688A68520852008A60704701680A68BB
:1022A00022F010020A60704701680A6822F49072F6
:1022B0000A60704710F8371F4078814201D1012031
:1022C000704700207047000080B50748016841F062
:1022D00010010160032001F0E8FD022001F03CFE46
:1022E00001F05AFE002002BD0020024070B586B009
:1022F00014220021684600F0ACFB3D483D4C0168CB
:102300003D4E41F40021016043F27065026802F421
:10231000002205920599026842F480020260036877
:1023200003F4800305930599026842F400320260C9
:10233000036803F4003305930599026842F4802290
:1023400002600022006800F4802005904FF40051E4
:102350000598204600F04EFB01224FF480412046B4
:1023600000F048FB012201214FF0904000F042FBB9
:10237000002241F6C2114FF0904000F03BFB0022DA
:102380002946304600F036FB4FF4C04100F03BF8E0
:10239000204600F06FFA4FF4004000F02FF820467E
:1023A000694600F067FA41F6C31100F02CF84FF0CF
:1023B000904000F05FFA48F2100000F01FF84FF074
:1023C0009040694600F056FA40F6040000F016F816
:1023D0003046694600F04EFA012001900022029238
:1023E000039200956946304600F044FA06B070BD8D
:1023F000141002400008004800040048002100902A
:1024000001910291704700910122002102910391F4
:10241000019269467047000080B50E48016841F09E
:10242000010101600022006800F00100009000211D
:1024300000980B2001F046FD0B2001F060FD00220A
:1024400000210C2001F03EFDBDE802400C2001F00F
:1024500056BD00BF1410024080B54048404901609D
:102460004FF4164200F00EF800B11FE001BD80B538
:102470003C483D4901604FF4614200F003F800B16F
:1024800014E001BD0C214161426030214162002312
:102490004FF480524FF400518360C3600361836145
:1024A000C36103628263C163FFF7ECBABDE8014018
:1024B000FFF78EBA10B586B0044614220021684694
:1024C00000F0C7FA2068264A2849904213D148688C
:1024D00040F480404860486800F4804000F024F8F0
:1024E0004FF4C06100F02CF800220121252001F0FA
:1024F000E9FC252014E01C4A904213D1886840F47E
:1025000000308860886800F4003000F00DF80C217D
:1025100000F016F800220121262001F0D3FC26202D
:1025200001F0EDFC06B010BD059005980A6842F474
:1025300000320A600222096801F4003105917047F7
:102540000598009101920021029103220721049134
:10255000039269464FF0904000F08CB9280B0020A0
:1025600000380140AC0B0020004400401410024031
:1025700018B589B00C22002106A800F06AFA00F014
:1025800022F88E4C4FF0A04000F049F8022000F0F5
:1025900062F808B1FFF71CFA0020069006A9204651
:1025A00001F02CFA08B1FFF713FA0B2100F046F8FE
:1025B00008B1FFF70DFA0C2100F039F808B1FFF768
:1025C00007FA0AB010BD18220021684600F041BA8F
:1025D00010B586B0FFF7F7FF794C7A4800F01FF886
:1025E000032000F038F808B1FFF7F2F9022100F0FB
:1025F00025F808B1FFF7ECF90E2100F018F808B142
:10260000FFF7E6F90F210091032201926946204667
:1026100001F054F808B1FFF7DBF906B010BD2060F7
:102620000021012020616076A06261607047009106
:10263000022201926946204601F040B80091012231
:1026400001920021039104220491059102926946AE
:10265000204601F033B8E061A16084F82010E16207
:10266000E16004F130000121082200230170626161
:1026700023764360204600F067BD2DE9F84386B01D
:1026800004461422FFF7A0FF4F490A6823684F4F02
:10269000DFF83C81DFF83C914F48521CB3F1A04F6A
:1026A0004FF480654FF4807625D100F079F843F43B
:1026B00080230360032300F06CF801930A60002379
:1026C00002936946484600F0D5F800207860002162
:1026D0008020F860B9602020B861F961C7F80080F7
:1026E0003E617D61384601F0ADFA08B1FFF770F93F
:1026F000A7637C6242E0DFF8CCC0634546D100F0BE
:102700004FF843F400330360036803F40033059388
:10271000059B036843F480230360202300F039F80D
:1027200003200190002302930A6069464FF0904015
:1027300000F0A0F84FF440400321009001910022E6
:1027400002926946484600F095F80021B964F964A0
:1027500008F114007864802139652020F865002193
:1027600039667E65BD6507F1440001F06BFA08B17A
:10277000FFF72EF907F14400A063BC660022002198
:10278000122001F09FFB122001F0B9FB07B0BDE859
:10279000F083006800F4802005900598009370474E
:1027A000012A08D1036843F080530360036803F0F3
:1027B00080530593059B036870470000F80C0020C8
:1027C000480D002000010050080E0020A00A002043
:1027D00008000240000400481410024018B587B0F9
:1027E0001022002103A800F034F90C2200216846D1
:1027F00000F02FF91C4C1D48206000214FF6FF709F
:10280000E0606160A16021616161A161204601F029
:10281000DBFB08B1FFF7DCF84FF48050039003A90D
:10282000204601F0FBFB08B1FFF7D2F80020009032
:10283000019002906946204601F0CCFC08B1FFF7F8
:10284000C7F808B010BD81B000680849884209D1B6
:102850000748026842F400620260006800F4006009
:102860000090009801B07047980D0020002C0140A6
:10287000181002402DE9F84F0027614A614B4FF0D4
:102880000F0805460E4634E05F4CA54214BF0524F0
:1028900003248C405D4944EA0E0441F82C40C143B6
:1028A000146801EA040C7468E40348BF40EA0C0CA5
:1028B000C2F800C0546801EA040C7468A40348BF5D
:1028C00040EA0C0CC2F804C0946801EA040C746875
:1028D000E40248BF40EA0C0CC2F808C0D46801EA20
:1028E000040C7168890248BF40EA0C0CC2F80CC0A5
:1028F0007F1C316831FA07F07AD00124BC4014EA19
:102900000100F5D04FEA470C032101FA0CF16FEA00
:10291000010E7168012918BF022903D0112918BFBF
:10292000122912D1A968D6F80C900EEA010109FA11
:102930000CF949EA0101A960696821EA0404716897
:10294000C1F30011B9400C436C60E968B4680EEA49
:10295000010104FA0CF42143E960B9007468022C07
:1029600018BF122C12D1FC0805EB840401F01C09DD
:10297000D4F820A008FA09FB2AEA0B0AD6F810B00E
:102980000BFA09F949EA0A09C4F820902C680EEA02
:10299000040E347904F0030404FA0CF444EA0E043F
:1029A0002C607468E400A3D51C6844F001041C602A
:1029B0004FEA970C1C6804F00104009401F00C012C
:1029C000009C124C54F82C4008FA01FE24EA0E0E2A
:1029D000B5F1904F08BF002409D00D4CA54208BFA7
:1029E000012404D00B4CA5427FF44EAF022450E7E3
:1029F000BDE8F18F0AB181617047816270470000C4
:102A00000004014018100240000C0048080001407A
:102A10000004004800080048CAB201214FF090406D
:102A2000FFF7E8BFCAB24FF480410148FFF7E2BFA9
:102A3000000800484AB1000011F8013B521E00F89E
:102A4000013B1CBF11F8013BF8E77047002201F081
:102A5000F9BB10B5044610460A460146204601F06F
:102A60000BFC204610BD00002DE9F843040019D0EE
:102A70002078DFF85854C10716D5686800F00C00BC
:102A800004280AD0686800F00C00082802BF6868B3
:102A900000F48030B0F5803F41D100F0E8F918B182
:102AA0006068002800F05F812078DFF830648107DB
:102AB0001BD5686810F00C0F07D0686800F00C0098
:102AC00008286CD16868C10369D42868C0F3400045
:102AD00000281CBF2069012840F0458129686069F1
:102AE00021F0F80141EAC00129602178080740F18E
:102AF0008C80A069DFF8E813002878D001220A60F2
:102B000000F0F8FA0746686AC0F3400000287CD15C
:102B100000F0F0FAC01B0228F5D9032026E1606816
:102B2000B0F5803F04D1286840F48030286014E07C
:102B300008B928680AE0B0F5A02F286806D140F44B
:102B400080202860296841F4803105E020F480303D
:102B50002860296821F480212960E86AA1680009B9
:102B600041EA0010E862606860B100F0C3FA06460E
:102B700000F07DF9002897D100F0BCFA801B652891
:102B8000F6D3CAE700F0B6FA064600F070F900285E
:102B90008AD000F0AFFA801B6528F6D3BDE7206924
:102BA000B0B10121316000F0A5FA07462868C0F3F2
:102BB000400028B900F09EFAC01B0228F6D9ACE705
:102BC0002868616920F0F80040EAC10028608CE7BD
:102BD000306000F08FFA07462868C0F340000028F4
:102BE00083D000F087FAC01B0228F5D995E708606A
:102BF00000F080FA0746686AC0F3400028B100F090
:102C000079FAC01B0228F6D987E72078410763D5F7
:102C1000E8690027C10009D4E86940F08050E86104
:102C20000127E86900F0805000900098DFF8B48236
:102C3000D8F80000C10513D4D8F8000040F4807023
:102C4000C8F8000000F056FA8146D8F80000C10527
:102C500006D400F04FFAA0EB09006528F5D35CE735
:102C6000E068012808D008B9286A09E00528286A20
:102C700006D140F004002862286A40F0010005E017
:102C8000400840002862286A20F00400286241F2CF
:102C90008938E06868B100F02DFA8146286AC0F3EF
:102CA0004000A0B900F026FAA0EB09004045F5D39A
:102CB00033E700F01FFA8146286AC0F3400030B1C4
:102CC00000F018FAA0EB09004045F5D325E71FB145
:102CD000E86920F08050E861E069002845D0696823
:102CE00001F00C01082931D0022822D100F040F86F
:102CF00007462868C0F3406028B100F0FBF9C01B0C
:102D00000228F6D909E76868616A226A20F474101B
:102D1000084310436860012000F02BF8044628683F
:102D2000C0F3406008BB00F0E5F9001B0228F6D9AB
:102D3000F3E600F01DF804462868C0F34060A0B137
:102D400000F0D8F9001B0228F6D9E6E601280AD0DF
:102D50006868226A00F48031914202BF00F470106A
:102D6000616A884201D0012000E00020BDE8F283C2
:102D70000020306600F0BEB92DE9F041040088461D
:102D800045D0594E306800F00700404502D200F0AF
:102D900064F83CD120784D4D810705D56A68A0685C
:102DA00022F0F00202436A602178C80727D56168E3
:102DB000012902D100F05BF804E00229286803D160
:102DC000C0F3406018B922E0C0F34000F8B1686871
:102DD000800841EA8001696000F08CF90746686864
:102DE000616800F00C00B0EB810F08D000F082F9B0
:102DF000C01B41F289318842F1D303202BE03068B7
:102E000000F00700804504D200F027F801D001202F
:102E100021E02078410705D56A68E06822F4E06285
:102E200002436A602178080706D56968206921F4A1
:102E3000605141EAC001696000F01EF86A682B49E0
:102E4000234BC2F30312895CC84018602248006813
:102E500001F082F80020BDE8F0813168C90848EA35
:102E6000C1013160306800F00700404570472868B4
:102E7000C0F340407047000010B51D490A6802F0D9
:102E80000C00082814D100BF1CA3C2F38340D20356
:102E9000185C896A09D500BF1CA40E4B01F00F0114
:102EA000625CB3FBF2F2504310BD1249484310BDBF
:102EB000084810BD06480E4A006813680E49C3F35F
:102EC0000222FFE7895CC840704700000010024002
:102ED000980A002000127A00940A00200000424262
:102EE000800442420070004000200240D8430008A5
:102EF0000410024000093D000445000802030405D7
:102F0000060708090A0B0C0D0E0F1010010203042E
:102F100005060708090A0B0C0D0E0F102DE9FC41E0
:102F20000546002428683D4EC10350D53068C100D5
:102F300009D4306840F0805030600124316801F0DD
:102F4000805100910098364F3868C10511D4386817
:102F500040F48070386000F0CDF880463868C105D4
:102F600007D400F0C7F8A0EB08006528F6D30320CB
:102F700052E0706810F440701EBF696801F440713F
:102F8000884219D02749706801220A60002320F482
:102F900040700B607060C0070ED500F0ABF80746BC
:102FA0007068C0F3400038B900F0A4F8C01B41F2CB
:102FB00089318842F4D3DAE77268686822F4407293
:102FC000024372601CB1306820F080503060297874
:102FD000C80705D57169A868890840EA810171614F
:102FE0002978880605D57169E86821F01001014348
:102FF00071612978080605D53169286921F4F871CD
:10300000014331612968C80405D57169686921F4F3
:103010008071014371610020BDE8F6811C100240FF
:103020000070004040044242F8B504460D46164682
:1030300000F06FF82818401C282801DB0020F2BDA2
:10304000E9B2204601F04BF9002704E0F15D20468B
:1030500001F045F97F1CAF42F8DB0120F2BD000012
:103060001CB50023009304466A4601A9FEF7D8FC6C
:1030700098B10A48017841F0100101700098019957
:1030800082B22068FEF73EFD94F86F2000998A18FE
:1030900084F86F2008B90098E06313BD150000485C
:1030A00070B500F1370332255C78661C96FBF5F5A8
:1030B000322202FB15651E78B54201D1002070BD99
:1030C000204441715D70012070BD000038B5044698
:1030D00000F010F814F1010F054602D00448017801
:1030E000641800F007F8401BA042FAD331BD00BFBE
:1030F0008C0A002001484068704700BF8C0A0020FD
:1031000000F12C030122597100F131011868FEF71A
:10311000F9BC283041780078081A48BF2830704739
:1031200010B500F12802137851788B4201D10020AC
:1031300010BDC05C5B1C282493FBF4F4282101FB28
:103140001433137010BD00007CB5002504460095B3
:103150000CB9012076BD04F130063069C1064DD4AA
:10316000306998BB7561F0613073B5612046FFF737
:1031700084FA20688168C80028D400F082FA0546E5
:103180003069C10622D4280020D13069DFF8C82474
:10319000DFF8C83420F4885040F002003061206825
:1031A000816821F0405181602068816841F0805140
:1031B00081600A201168B1FBF3F34343009302E0FE
:1031C0000098401E009000980028F9D1206881687E
:1031D000CA0002D58068810010D5306920F0020055
:1031E00040F0100000F08AF83069316921F00201E6
:1031F00041F0100131610125284676BD3069C106D4
:10320000F3D42800F1D1206881684A07EDD43169F0
:1032100021F4807141F002013161B0F1A04F80686A
:103220000CBFDFF83C144FF0A04100F0B3FB03D11A
:1032300020680268D3070DD400F0ABFB02D1086808
:10324000C10707D4DFF81C140A68606822F4403212
:1032500002430A607168607EE268012914BF4FF47E
:103260008053002343EA4033A168134394F820209D
:103270000B43012A0ED130B9606A401E400440F46D
:103280008030034306E0306920F0020040F0200067
:1032900000F034F8A16A012902D0E06A01430B432F
:1032A0002168886810F00C0F0AD1CA68DFF8D803CB
:1032B0000240CA603078217E400040EA81300343FA
:1032C0002168DFF8C803CA6802401343CB60216954
:1032D00020680129016B05D1E2690909521E42EA01
:1032E000011101E0090909010163002070613169E0
:1032F00021F0020141F0010131617DE73061706927
:1033000040F00100706170472DE9F843044688469B
:1033100020688168480791466ED404F13C063178F4
:10332000012908BF022069D00120DFF8387330700E
:10333000396811F01F0F5BD1204600F0F2FB050049
:1033400053D17168DFF86403014041F4807171600A
:103350002068396811F01F0F18BFB0F1A04F06D1D7
:10336000716821F480117160C06881010BE071689F
:10337000DFF8EC2241F48011904271600AD1DFF84D
:10338000280301688A0105D5706820F4005040F4D4
:10339000805070604B467068C10446BFB06820F032
:1033A00006000020B06000213170A26BDFF800033E
:1033B0009062A16BDFF8FC02C862A16BDFF8F80233
:1033C00008631C2022681060424600F061F9206802
:1033D000C16841F00101C160206800F14001A06BAB
:1033E00000F057FC00F05AF907E00020307004E0CC
:1033F00000210125317000E002252846BDE8F28356
:1034000070B50446DFF8A0622068964D01684A074F
:1034100002D54268510705D40268110742D54168B8
:103420000A073FD5216CCA0603D4216C41F4007110
:103430002164296811F01F0F1EBF296801F01F01C8
:10344000052907D0296801F01F01092918BFB0F12B
:10345000A04F01D1C16800E031680246D36813F47F
:10346000406F19D1890417D40068010714D59168F9
:1034700048070FD4506820F00C005060206C20F4F6
:1034800080702064206CC10406D4206C40F00100E0
:10349000206401E000F0E8F82046FCF70DFF216809
:1034A0000C20086020680268910602D541688A06EF
:1034B00005D401684A065ED5426851065BD5226C88
:1034C00042F400522264296811F01F0F1EBF2968C0
:1034D00001F01F01052907D0296801F01F01092902
:1034E00018BFB0F1A04F01D1C16800E03168C36CD2
:1034F00013F0C00F39D18A0105D5C26812F4406FAC
:1035000033D1890431D4006841062ED5286810F0E3
:103510001F0F1EBF286800F01F00062808D028686B
:1035200000F01F0007281CBF2068B0F1A04F02D197
:103530002168C86800E03068800216D42168886875
:10354000010710D42068416821F060014160216CBE
:1035500021F480512164206CC10506D4206C40F018
:103560000100206401E000F07FF8204600F036FB07
:103570002168602008602268106801060CD5516837
:10358000080609D5216C41F480312164204600F001
:10359000BAFE21688020086022681068C1050DD538
:1035A0005168C8050AD5216C41F4003121642046D8
:1035B00000F0AAFE21684FF480700860226810684D
:1035C00081050DD5516888050AD5216C41F480210B
:1035D0002164204600F099FE21684FF400700860D5
:1035E00022681068C1061FD55168C8061CD5616BDA
:1035F00001290BD0286810F01F0F03D1D168C8072C
:1036000004D40EE0296811F4404F0AD0206C40F435
:1036100080602064606C40F002006064204600F02E
:1036200075FE21681020086020680268510512D5D7
:1036300041684A050FD5216C41F4804121644FF463
:103640008062616C41F00801616402602046BDE85F
:10365000704000F05CBE70BD980A002040420F0030
:103660000001005008030050206C40F0100020645E
:10367000606C40F001006064704704462068816817
:103680007047204600F06DBAFDBFFFFF07C0F0FF96
:103690002068416841F010014160704720688168EE
:1036A00041F00401816070470C000050FEF1FFFF03
:1036B000C13A0008053B00080D3B00082DE9F84120
:1036C00002460846002102F13C0400912578012DB4
:1036D00008BF022000F020810123237013689D6839
:1036E0006E0700F11481476805681F26052F4FF00B
:1036F000060C0BD20CFB07F7D3F830C0BE402CEA07
:10370000060605FA07F737431F631DE00A2F08D2A4
:103710007F1F17FB0CF7D3F834C000F0FFF85D6390
:1037200012E00F2F08D20A3F17FB0CF7D3F838C06E
:1037300000F0F4F89D6307E00F3F17FB0CF7D3F898
:103740003CC000F0EBF8DD6307251668B36813F0A2
:103750000C0F78D1036887680A2B0DD30A3B03EB63
:10376000430CD6F818E005FA0CF32EEA030307FA27
:103770000CF71F43B7610BE003EB430CD6F814E0E2
:1037800005FA0CF32EEA030307FA0CF71F437761DF
:1037900013684769DE68D0F810E0F608760006F096
:1037A0000606AEF1010E07FA06F6BEF1030FDFF8CA
:1037B00018742ED8DFE80EF0020A1622D3F86080C3
:1037C000D0F800C000F0BDF81E663CE0D3F864C03D
:1037D000D0F800E007EA0C0747EA8E6700F0B5F87A
:1037E0005E6630E0D3F868C0D0F800E007EA0C0766
:1037F00047EA8E6700F0A9F89E6624E0D3F86CC013
:10380000D0F800E007EA0C0747EA8E6700F09DF861
:1038100018E01E6E076800F0E7F813685E6E076830
:1038200000F0D8F813689E6E076800F0C9F81368B6
:10383000DE6E076806F0F846B6EB876F03D1DE6EE2
:1038400026F00046DE6613689E6806F00306012E29
:1038500002D11F68FE075CD40668012707FA06F646
:10386000C768012F02D000F065F806E000F05CF8B0
:1038700007688368166800F06CF80068DFF83C3170
:10388000102802D11D682E0203E0112803D11D6803
:10389000EE013ED404E012283BD11D686E0238D4FC
:1038A0001568AF68B5F1A04F0CBFDFF810624FF09C
:1038B000A04607F00307012F02D12F68FA0726D48C
:1038C000B26802F00302012A02D13268D6071ED480
:1038D00010280CD1B5F1A04F1BD100F05FF8009873
:1038E00000281EBF0098401E0090F8D111E011285A
:1038F00006D1B5F1A04F0CD1186840F0807004E0FB
:10390000122806D1186840F48000186001E000F029
:103910003AF8002020700846BDE8F281BE402CEA4B
:103920000606BD4035437047D3F8B0703E43C3F838
:10393000B0607047D3F8B05025EA0606C3F8B0600F
:10394000704707EA080747EA8C673E4346F000469F
:1039500070470A2F0BD3093F07EB4707D6F818C06B
:10396000BD402CEA0505BB401D43B56170477F1C77
:1039700007EB4707D6F814C0BD402CEA0505BB404D
:103980001D4375617047606840F020006060012150
:103990007047886800F00300012870471868DFF856
:1039A0002C22DFF82C5240F4000018600A20136823
:1039B000B3FBF5F545430095704700000803005040
:1039C00006F0F846B6EB876F03D19E6E26F00046F0
:1039D0009E66704706F0F846B6EB876F03D15E6EC1
:1039E00026F000465E66704706F0F846B6EB876F35
:1039F00003D11E6E26F000461E667047F0B50368C0
:103A000000F130040022B3F1A04F267B0CBF2B4DF8
:103A10004FF0A045012E01D10220F0BD01262673F2
:103A20009B685E0740D4AB685E073DD40B68694E67
:103A3000694F0BB33B6894F800E023F4604C4B688B
:103A400043EA0C0343EA4E333B600068836803F0AB
:103A50000303012B02D10368D8072AD4A868FFF713
:103A600099FF02D12868C30723D43D680868896894
:103A70002E4006430E4315E03B6823F460433B6051
:103A800001688B6803F00303012B02D10968CB079F
:103A90000FD4A868FFF77EFF02D12868C10708D4B9
:103AA000386806403E6004E0216941F02001216150
:103AB0000122002020731046F0BD000000010050DC
:103AC000416A0A6C12F0500F19D1086C40F4007072
:103AD00008640A68D06810F4406F04BF487E00286C
:103AE0000AD1086C20F480700864086CC20403D406
:103AF000086C40F0010008640846FCF7DDBB896BE8
:103B00000A6B1047406A00F003BC0000406A016C79
:103B100041F040010164416C41F00401416400F056
:103B2000F5BB38B504462168FFF733FF02D10A68B8
:103B3000D30714D488686FF39E1078B9886840F072
:103B400001008860FFF7D6FA054620680168CA07B9
:103B500005D4FFF7CFFA401B0328F6D326E0002058
:103B600032BD38B5FFF789FD01F0030101291BD1F2
:103B70000268D30718D5816801F00D01012912D11F
:103B8000816841F002018160032021680860FFF72D
:103B9000B1FA054620688168C80705D5FFF7AAFA7B
:103BA000401B0328F6D301E0002032BD00F001F8ED
:103BB00032BD206C40F010002064606C40F00100C9
:103BC000606401207047000000F0FF83980A002025
:103BD00040420F00E0F0FFFF080300507047000074
:103BE0004172084A21B1117841F02001117003E0BF
:103BF000137843F0100313701E210160C822426045
:103C0000704700BF150400480172084A21B11178BD
:103C100041F08001117003E0137843F0400313700A
:103C20001E210160C8224260704700BF1400004896
:103C300000F1280100220A704A707047002200F04B
:103C40001FBB000010B5040001D1012010BD0220EF
:103C500084F82100226813686068A1686FF30D136F
:103C60000343E0680B432169034360690B43A16987
:103C70000343E0690B4303431360204600F0F4F86C
:103C80000021A163012084F8210084F82010002085
:103C900010BDF8B50446002594F82000012801D194
:103CA0000220F2BD94F821600120012E84F820004A
:103CB00024D1022004F12C0684F82100F56020684C
:103CC00007687F087F000760204600F0BCF8216885
:103CD000306820B10A6842F00E020A6008E0086805
:103CE00040F00A0008602068016821F004010160CA
:103CF0002068016841F00101016002E084F8205071
:103D000002252846F2BD10B590F82110022900F1D5
:103D1000380206D004231360002180F8201001200F
:103D200010BD00F030F80C68640864000C60916805
:103D300052688B4053600121002280F8211080F8E6
:103D40002020002010BD38B590F821100024022951
:103D500000F1340203D004205060012411E000F08F
:103D600012F80D686D086D000D60D16895688B4084
:103D70006B60012180F8211080F82040116801B1AA
:103D80008847204632BD01680B6823F00E030B60A4
:103D9000012301687047F8B500F128020423516936
:103DA0000C6801680D68966903FA06F73C420FD06B
:103DB0006F070DD50C68A50603D40C6824F0040425
:103DC0000C6000F03BF85168B9B3BDE8F440084717
:103DD000022303FA06F73C4215D0AF0713D50C684F
:103DE000A50606D40C6824F00A040C60012180F8B2
:103DF000211000F023F8002180F820101168E1B1B3
:103E0000BDE8F4400847082303FA06F6344214D00C
:103E10002B0712D50C6824F00E040C60012300F06F
:103E20000DF80121116180F82110002180F8201087
:103E3000916811B1BDE8F4400847F1BD916954693A
:103E40008B406360704770B5046CC66B0125A5405C
:103E50007560046863604068102802D1A260E16068
:103E600070BDA160E26070BD026805498A18142324
:103E7000B2FBF3F39B0003490364C1637047000086
:103E8000F8FFFDBF00000240704770477047000018
:103E90000901020002D4294881547047284B02F0DE
:103EA0000F021A4402F8041C7047264B19684FF69B
:103EB000FF020002114000F4E06008432249084379
:103EC0001860704770B51F4B1C68C4F302230124AF
:103ED000C3F10705052D2EBF0F2504FA05F56D1E4C
:103EE0001E1D072E34BF0023DB1E2940994004FA13
:103EF00003F3BDE870405B1E1A401143C8E70100A0
:103F000007D4012200F01F01104B8A40400943F8FA
:103F10002020704710B5401EB0F1807F01D30120F2
:103F200010BD0B4C60600F214FF0FF30FFF7B0FF6A
:103F30000021A16007202060002010BD00E400E007
:103F400018ED00E00CED00E00000FA0500E100E0F3
:103F500010E000E0FCF7C1B938B50D4D0D4B2A78E3
:103F600004464FF47A711868B1FBF2F2B0FBF2F03C
:103F7000FFF7D0FF50B9102C08D2002221464FF095
:103F8000FF30FFF79FFFAC60002032BD012032BD43
:103F90008C0A0020980A00200A4881B0016841F08C
:103FA00001010160026802F001020092009942687A
:103FB00042F080524260406800F0805000900098CB
:103FC00001B070471810024038B5040001D101203B
:103FD00032BD00F01FF818B900F018F8FEF733FCF6
:103FE000FFE702206870211D206800F074F80120AE
:103FF0002873A870E87028716871A871E871287238
:104000006872A872E8726870002032BD00212970C1
:104010002046704704F13C056878704738B500F0D9
:104020004EF801D1022032BD0120207002226270C0
:10403000DFF81C012A689368034093600868020057
:1040400018BF10282DD0202818BF302829D040288C
:1040500023D0502816D0602818D0702803D0B0F58F
:10406000005F07D021E000F025F82868816841F062
:10407000770105E000F01EF82868816841F480416E
:10408000816012E000F012F850210BE0CA68496824
:10409000286800F078F8602104E000F007F840217B
:1040A00000E00146286800F080F80EE0CA68496820
:1040B000286859E0CB684A68896828687DE0054629
:1040C00005F13C0420780128704701206070002130
:1040D0002170002032BDF0B5DFF878C0DFF87870CD
:1040E0000368DFF87840DFF87850DFF878606045E3
:1040F0001CBFB0F1804FB84208D14A6823F070036A
:104100001343604518BFB0F1804F07D0B84218BFC5
:10411000B04203D0A84218BFA04203D1CA6823F41A
:10412000407313434A6923F08003134303606045DF
:104130008B68C36218BFB0420A68826203D0A8428B
:1041400018BFA04201D10969016301224261F0BD9B
:104150008800FEFF002C01400004004000480140A0
:10416000004401400040014010B5036A046A64083D
:104170006400046223F00A03846924F0F00444EA32
:104180000214846123E010B5036A23F01003036274
:104190008369046A23F4704343EA023324F0A004E1
:1041A000836144EA0114046210BD826822F0700247
:1041B000114341F007018160704710B5846824F411
:1041C0007F442143114341EA0321816010BD19431B
:1041D000016210BDF0B500F13C042278012A01D142
:1041E0000220F0BD01222270022363700568DFF80F
:1041F00048C06E68AF68654503D14B6826F4700609
:104200001E430A6826F0700616436E600268624517
:1042100018BFB2F1804F05D0084882421CBF084B3E
:104220009A4204D1886827F08007074397600121EC
:10423000617000202070F0BD002C0140000400409F
:104240000040014000B500BF130096469446103967
:1042500028BFA0E80C50FAD85FEA417C28BF0CC008
:1042600048BF40F8042BC90728BF20F8022B48BFDD
:1042700000F8012B00BD000062F30F2262F31F4221
:10428000401810F0030308D0C91A1FD3DB0748BF3A
:1042900000F8012D28BF20F8022D130030B4144679
:1042A0001546103928BF20E93C00FAD8490728BF35
:1042B00020E90C0048BF40F8042D890028BF20F8F1
:1042C000022D48BF00F8012D30BC7047C91818BF37
:1042D00000F8012DCB0728BF00F8012D704770B5FD
:1042E00000F1280328255C78661C96FBF5F528224A
:1042F00002FB15651E78B54201D1002070BD015545
:104300005D70012070BD70477047704770477047FF
:10431000704700007047FEE7FEE7FEE7FEE77047E4
:104320007047704780B5FFF715FEBDE8014000F00B
:1043300021B80A48FFF72FBD0948FFF72CBD80B50B
:104340000848FFF75DF8BDE802400748FFF758B896
:104350000648FDF732BC0648FDF72FBCA00A002036
:10436000E40A0020F80C0020480D0020280B002053
:10437000AC0B00200248416802788A1842607047FE
:104380008C0A002030B5016884684218416802EB4D
:104390005103C90703D54C4401E0491C05D19A4299
:1043A0000AD012F9011B12F8015B002904F8015B25
:1043B000F3D4491EF7D5F2E70C3030BD0448054A66
:1043C000016841F4700101604FF0006010607047B7
:1043D00088ED00E008ED00E00000000000000000B3
:1043E000010203040607080910B50749794418318A
:1043F000064C7C44163404E00A68081D11448847C2
:104400000146A142F8D110BD2C0000004C00000074
:104410004EF68851CEF20001086840F47000086042
:10442000BFF34F8FBFF36F8F4FF00070E1EE100AB4
:104430007047000017D6FFFF70030000A00A00209D
:104440000000000041FFFFFF60010000F4000000D9
:10445000000000200500000010B50446044979441E
:104460000E31044878440C3000F006F8204610BDA8
:10447000380100003001000038B504460D46AC425A
:1044800005D0206820188047241DAC42F9D131BDE9
:1044900000F00DF8002801D0FFF7A6FFAFF3008071
:1044A0000020AFF30080FBF731FF00F002F801209D
:1044B000704700F001B800000746384600F002F8E7
:1044C000FBE7000080B5AFF30080024A110018201E
:1044D000ABBEFBE7260002000548014603B4684670
:1044E00080F30988AFF30080FFF792FFFFF7D0FF5A
:1044F000A5EDF5FE0148804701480047BD4300088F
:10450000D94400080000000001020304FFF7FEBFC9
:10451000FFF7FEBFFFF7FEBFFFF7FEBFFFF7FEBFCF
:10452000FFF7FEBFFFF7FEBFFFF7FEBFFFF7FEBFBF
:10453000FFF7FEBFFFF7FEBFFFF7FEBFFFF7FEBFAF
:10454000FFF7FEBFFFF7FEBFFFF7FEBFFFF7FEBF9F
:10455000FFF7FEBFFFF7FEBFFFF7FEBFFFF7FEBF8F
:10456000FFF7FEBFFFF7FEBFFFF7FEBFFFF7FEBF7F
:10457000FFF7FEBFFFF7FEBFFFF7FEBFFFF7FEBF6F
:10458000FFF7FEBFFFF7FEBFFFF7FEBFFFF7FEBF5F
:10459000FFF7FEBFFFF7FEBFFFF7FEBFFFF7FEBF4F
:1045A000FFF7FEBFE5BBFFFF81008100F8000C159F
:1045B0000016001700180019001A001B8100810066
:1045C00081008100810081008100810081008100E3
:1045D0008100810081008100810081008100AD00A7
:1045E00001CC019F000005F800042003009001FDAC
:1045F0000004803E00D007F500042003009001FD78
:104600000004803E00D007E5000005FD00070F0014
:1046100000010A072101F9000010FC0004127A00D1
:02462000000197
:04000005080044D9D2
:00000001FF
