:020000040800F2
:10000000C8110020C54E0008AD4C0008AF4C0008D8
:10001000B14C0008B34C0008B54C000800000000CB
:10002000000000000000000000000000B74C0008C5
:10003000B94C000800000000BB4C0008BD4C000893
:10004000DD4E0008E14E0008E54E0008E94E0008CC
:10005000ED4E0008F14E0008F54E0008F94E00087C
:10006000FD4E0008014F0008054F0008C94C00086C
:10007000D34C0008094F00080D4F0008114F00082D
:10008000154F0008194F0008DD4C00081D4F0008EF
:10009000214F0008254F0008294F00082D4F000868
:1000A000314F0008354F0008394F00083D4F000818
:1000B000414F0008454F000800000000494F00086C
:1000C0004D4F00080000000000000000514F0008E4
:1000D00000000000ED4C0008F74C0008554F0008E8
:1000E000594F00085D4F00080000000000000000AC
:1000F0000000000000000000000000000000000000
:1001000000000000000000000000000000000000EF
:100110000000000000000000614F0008654F00086B
:1001200000000000000000000000000000000000CF
:1001300000000000000000000000000000000000BF
:10014000694F00086D4F000800000000000000002B
:10015000000000000000000000000000000000009F
:10016000000000000000000000000000000000008F
:10017000000000000000000000000000000000007F
:1001800000000000714F000880B5DFF8540701F04F
:10019000F8F8DFF8500701F012F9DFF84C0701F02A
:1001A00035F9DFF8480701F03FF901BD704710B598
:1001B0000400DFF82C0701688C4201D101F05AF9E4
:1001C000DFF8240701688C4201D101F097F910BDD6
:1001D00010B50400DFF8080701688C4201D101F076
:1001E000A9F9DFF8040701688C4201D101F0CCF9CC
:1001F00010BD10B50400DFF8F806844204D1DFF822
:10020000E40600F07BFF07E0DFF8E806844203D154
:10021000DFF8D00600F017FF10BD80B5DFF8D80674
:1002200001F0BDF9DFF8C40600F0F0FF01BD2DE9D3
:10023000F04101F0C9F900F090F872B601F0D6F97A
:1002400001F080FA01F09CFA01F0BEFA01F058FBCF
:1002500001F0B5FB01F0DCFCDFF88C460121200049
:1002600001F02CFD0121200001F034FDDFF88C06A7
:10027000017811F0FE010170017851F00801017060
:10028000DFF87C06017851F010010170DFF8741678
:100290000A7812F0DF020A70017851F02001017033
:1002A000017811F0BF010170DFF84056280000F01E
:1002B00053FFDFF83086404600F0B3FEDFF82066DB
:1002C000DFF84416300001F013FDDFF8401620007F
:1002D00001F019FDDFF82076380001F01EFD002046
:1002E000802805DA0021DFF828261154401CF7E7A2
:1002F0000020802805DA0021DFF818261154401C60
:10030000F7E70020DFF81016087062B6280000F04A
:100310003EFF200000F093FD404600F083FEB878D9
:1003200000280BD00020B870380000F0D7FF200064
:1003300000F044FEDFF8B40701F0F0FCF878002884
:10034000EDD00020F870280000F03FFF200000F002
:1003500090FD300001F0EAFCE1E700B595B02822FD
:1003600000210BA801F008FD14220021684601F0CD
:1003700003FD1822002105A801F0FEFC02200B90CD
:1003800001200F9010201090022012900020139056
:100390005FF4601014900BA801F0F8FC002801D065
:1003A00000F0EEFF0F20009002200190002002904C
:1003B0004FF480600390002004900221684601F011
:1003C000CBFF002801D000F0DBFF41F28100059057
:1003D000002007904FF4C070099000200A9005A8F3
:1003E00002F0F2F8002801D000F0CAFF15B000BDFD
:1003F000F0B4026C002A04D0032A0AD0072A0DD0D8
:100400006EE00A00D2B2A52A02D1026CD21C0264AC
:1004100069E080F84E100722026464E00A00D2B25C
:10042000EE2A5AD190F84D3090F84E40E20701D5AF
:1004300014F0FD04620701D514F0F70490F86C2065
:100440002500EDB2AA4248D0DFF8A0541E222A604F
:1004500032226A60DFF87867327864F3861232708D
:10046000327812F07F022700FFB27F0852EAC712EB
:100470003270DFF860772200D2B2920897F800C09D
:1004800062F3041C87F800C02200D2B2D20897F8A9
:1004900000C062F3451C87F800C03278C2F38012B6
:1004A000D2B2002A01D001222A723278D2B2D20905
:1004B000D2B2002A01D000222A723A78C2F3001286
:1004C000D2B2002A01D001226A723A78C2F34012F5
:1004D000D2B2002A01D000226A720022026402E035
:1004E0000022026485E7026C002A01D10A224264DC
:1004F000F0BC704738B50400A021200002F02AF9B2
:10050000DFF8E053B5F90C0000110100C9B220007A
:1005100002F020F9B5F91C0040100100C9B220001A
:1005200002F018F9B5F9240000110100C9B2200049
:1005300002F010F9B5F9340040100100C9B22000F2
:1005400002F008F9E021200002F004F9FF21200068
:1005500002F000F9FF21200002F0FCF8200002F078
:1005600013F931BD10B4DFF89027DFF89037148805
:100570001855DFF88C371488195513885B1C1380C5
:100580001388642B01DB0023138010BC70471CB55B
:1005900008220021684601F0EFFBDFF86807002120
:1005A00081700021017100214171002181710021C0
:1005B000C171002101700021417000210A00D2B2F6
:1005C000042A0ADADDE900230C00E4B200EBC404DB
:1005D0000C34C4E90023491CF0E7002280F84D28C0
:1005E000002280F84C2813BD70B5002500200500BE
:1005F000FFF7CDFFDFF8F0620021300001F06AFB69
:1006000040F2DC5002F0EAF80121300001F062FB18
:1006100000F0DCF80400642002F0E0F8652D05DA53
:100620006D1C002CF4D0A0783E28F1D1002CDDD038
:10063000A0783E28DAD170BD2DE9F84F05000E00F4
:1006400017005FF00008DFF8BCA602208AF82C0033
:1006500008208AF82E00781C8AF82D008AF82F507E
:10066000B9465FFA89F900961AF1300B4A460099AB
:10067000584602F0C7F81AF12C0A504600F008F963
:10068000504600F041FB040010F1010FF8D0002C9F
:1006900001D0200024E04FF47A61032000F0E6F856
:1006A00000F00EF9002804D1032000F0AFF8002874
:1006B000F6D0032000F0AAF8002802D07FF0030053
:1006C0000EE000F008F9010088780B2801D1C87805
:1006D00006E08878092802D07FF0010000E00020C1
:1006E000BDE8F28F2DE9FE4F05000E0017001C003B
:1006F000002002905FF001083800C0B2F32802DB4E
:100700007FF0050060E0DFF8FC95022089F82C00FE
:10071000502089F82E00781C89F82D0089F82F5078
:10072000BA465FFA8AFA01964046C0B2484410F1D0
:100730002F0B52460199584602F064F819F12C0922
:10074000484600F0A5F8484600F0DEFA009010F1A7
:10075000010FF8D00098002801D0009834E04FF441
:100760007A61032000F082F800F0AAF8002804D192
:10077000032000F04BF80028F6D0032000F046F8E4
:10078000002802D07FF003001EE000F0A4F88146AC
:1007900099F80200532802D199F8030014E099F85F
:1007A0000200512802D07FF001000DE0002C0AD099
:1007B0005FF0050A19F103000190A3465246019922
:1007C000584602F01FF80020BDE8FE8F0020DFF839
:1007D000342592F84D1892F84C38C9B2994214D089
:1007E00092F84D38591C82F84D18DBB24FF48271E3
:1007F0004B4302EB030111F50D71080092F84D18FF
:10080000062902D1002182F84D18704710B5040066
:1008100002F04CF8DFF8EC242100C9B202EBC10170
:100820000969884210D32100C9B202EBC1010969EC
:10083000401AE4B202EBC401C968884201D3012026
:1008400000E00020C0B210E0401E2100C9B202EB5F
:10085000C1010969401AE4B202EBC401C9688842C7
:1008600001D3012000E00020C0B210BD70B504002B
:100870000D00DFF890642000C0B206EBC000C56038
:1008800002F014F82100C9B206EBC101086170BD85
:10089000817842785118A0F8021100210A004378AB
:1008A000D2B29A420BD2B0F802210B00DBB2034461
:1008B000DB7852FA83F2A0F80221491CEEE7704778
:1008C000DFF840144879002803D000204871012047
:1008D00000E000207047DFF8FC09704700000000CE
:1008E000800A00202C0D0020640D0020880D0020BF
:1008F000080C0020B80B0020000000201500004864
:10090000140400481508004878080020FC0800205E
:1009100080090020000A0020C00D002070B50400EE
:100920000D002000C0B202280AD0C0F0DB800428ED
:1009300074D023D3062800F09D80C0F08D80D1E0D4
:10094000DFF8C4281570DFF8E019107881F831015C
:1009500091F84C384FF48270434301EB0300117857
:1009600080F835122800C0B2DFF86C1908800A211F
:100970000020FFF77BFF03200400B3E02800C0B293
:100980003E2813D02800C0B226280FD02800C0B2BD
:1009900052280BD02800C0B25A2807D02800C0B275
:1009A000562803D02800C0B25E2812D10120DFF8FB
:1009B0007C190870DFF8701991F84C284FF4827098
:1009C000424301EB020010F50D70DFF86419086076
:1009D00008E00020DFF854190870DFF8F808DFF8A5
:1009E00050190860DFF8486930688570DFF8E8085A
:1009F000018851FA85F101800020DFF8381908706C
:100A00000A210020FFF732FF30684078002802D129
:100A10000520040001E00420040063E0DFF814690D
:100A2000DFF80C09006831780844C5703078401C44
:100A30003070DFF8A408018851FA85F101800A219D
:100A40000020FFF713FF3078DFF8BC1709788842E1
:100A500001D10520040045E02800C0B2DFF8D0181D
:100A60000968A1F802010A210020FFF7FFFE062015
:100A7000040037E0DFF8B8080168B1F802112A0075
:100A8000D2B251EA02210268A2F80211DFF89818E6
:100A90000122CA710068B0F80201DFF83C28128810
:100AA000904216D1DFF884080078002802D1012096
:100AB00048710BE091F84C08401C81F84C0891F803
:100AC0004C08062802D1002081F84C080620087244
:100AD00001E015200872DFF8600801F0EDFE00204B
:100AE0000400FFE72000C0B270BD00000800002035
:100AF00070B504000020FFF789FE002803D0002015
:100B0000DFF8381808702500DFF8306831782800E1
:100B1000C0B2FFF727FD3078002802D0012845D069
:100B20004EE02800C0B2022816D0032814D00628B0
:100B300004D0152802D03F2822D030E0DFF8E81793
:100B40000878002805D001208870CD70002008703A
:100B500001E00020487028E0DFF8CC1781F8305120
:100B600091F84C284FF48270424301EB020080F868
:100B700034520A210020FFF779FE0220307014E081
:100B8000DFF8A4174878002806D00A210020FFF7D4
:100B90006DFE0120307001E00020087005E0DFF8F4
:100BA000880700214170002101700FE0DFF878070D
:100BB000457201210171002131700021417005E071
:100BC0002900C9B23078FFF7A9FE307070BD00006F
:100BD000140000481504004870B54A4CE07900281C
:100BE00010D0DFF85C57287806280BD02A7852F00E
:100BF0008002D2B2217ADFF8400701F062FE0620BF
:100C0000287077E0DFF838572878002809D00228C4
:100C100020D010D3042847D026D306285CD04ED34A
:100C200068E02A7894F82C10DFF80C0701F049FEF0
:100C3000012028705EE0DFF800670121300001F03C
:100C40003DF82A7894F82D10300001F03AFE022089
:100C500028704FE02A7894F82E10DFF8DC0601F0B7
:100C600030FE0320287045E0DFF8D806017894F8BC
:100C70002D2091420AD12A78B4F82E11C9B2DFF89A
:100C8000B80601F01EFE052028700CE001784A1C11
:100C900002702A78C9B204EB010090F82F10DFF837
:100CA000980601F00EFE25E02A78B4F82E11C9B29C
:100CB000DFF8840601F005FE052028701AE02A7886
:100CC000B4F82E1189B2090AC9B2DFF86C0601F036
:100CD000F8FD062028700DE0E079002802D10120FF
:100CE000A07101E00020E071002028700020DFF8F2
:100CF0005416087070BD0000BC0D0020F00A0020E2
:100D0000540B002028000020F8B504005FF0FF35E8
:100D1000DFF834663078002805D0022853D014D389
:100D200003285CD089E0DFF80006002181710021F2
:100D300001710021DFF8000600F0C0FFC821022089
:100D4000FFF794FD0120307077E0DFF80076387807
:100D5000002805D00120DFF8D01548700020387039
:100D60000220FFF753FD00281CD1DFF8BC150879DD
:100D7000002827D0487A10F0060F0AD00121DFF8AA
:100D8000B80500F09BFF002030707FF00C000500DC
:100D900005E002203070DFF8A00501F08DFD012094
:100DA00038700FE00121DFF8900500F087FF002088
:100DB00030707FF00A0005000020DFF86C154870E5
:100DC0000120387039E0DFF860058079012805D10D
:100DD00028210120FFF74AFD032030702DE0DFF8C5
:100DE0006C753878002805D00120DFF83C150870B4
:100DF000002038700120FFF709FD002812D1DFF82C
:100E000028158878002818D000208870C87806280F
:100E100001D1002501E07FF009050020307001209C
:100E200038700AE07FF00B000500002030700020D1
:100E3000DFF8F4140870012038702800F2BD10B5F6
:100E40000400FFF7D1FB642001F0C8FC0122DFF8A9
:100E500000150020FFF7F0FB0A2001F0BFFC0E2276
:100E6000DFF8F0140120FFF7E7FB0A2001F0B6FCE1
:100E700010BDF8B50400FFF7A9FC606160690028A7
:100E800000F09B8060690078032802D10020606137
:100E900093E06069C579E80701D515F0FD0568079D
:100EA00001D515F0F705DFF8B01491F86C002A00B1
:100EB000D2B2904245D0DFF8A4241E2010604FF437
:100EC000C8705060DFF89834187865F38610187091
:100ED000187810F07F002E00F6B2760850EAC6109F
:100EE0001870DFF880642800C0B28008377860F39B
:100EF000041737702800C0B2C008377860F3451770
:100F000037701878C0F38010C0B2002801D00120DB
:100F100010721878C0B2C009C0B2002801D00020F9
:100F200010723078C0F30010C0B2002801D0012048
:100F300050723078C0F34010C0B2002801D00020B9
:100F4000507281F86C50DFF8201488882076B1F94F
:100F50000400001260760026DFF80024107A0028D2
:100F600001D056F00106507A002801D056F0040650
:100F7000A676B1F90C000012E07688892077B1F9E5
:100F8000240000126077888CA077B1F91C00001251
:100F9000E077888B84F82000B1F91C00001284F8F7
:100FA0002100888B84F822000020208200230B225D
:100FB00014F118014420FFF795FBF1BD38B504008A
:100FC000E07B022809DB0020E073DFF88C03FFF7E9
:100FD00091FA012084F8220009E0E07B002803D088
:100FE000E07B401CE07302E0E07B401CE073208A61
:100FF000642802DA208A401C00E064202082208AD3
:1010000015280DDBDFF854530021280001F06CFC9B
:101010000021280001F086FC0020DFF85013087141
:1010200031BD704710B504000322DFF84413DFF828
:10103000440301F0B8FD0222DFF83C13DFF83C0363
:1010400001F0B1FD10BD10B4DFF82C13B1F9002090
:10105000C281B1F90210C1840169B0F90E2089186A
:10106000016101694FF4006291FBF2F18182026932
:10107000B0F91410521A0261C189828A8A1A1100C9
:1010800009B2002901D512B25242DFF8DC32996967
:1010900001FA82F199619969402491FBF4F181830D
:1010A0009C69B0F91C10641A9C61816AB0F92640F1
:1010B00009198162816A4FF4006491FBF4F1818522
:1010C000846AB0F92C10641A8462C18C848D0C1B64
:1010D000210009B2002901D524B26442196B01FA3A
:1010E00084F11963196B402291FBF2F181861A6B2E
:1010F000B0F93410521A1A6310BC704710B4DFF8FC
:101100007012B1F90020C280B1F90220C283B1F996
:10111000041081808168B0F9062089188160816897
:101120004FF4007291FBF2F28368110009B25B1A6E
:1011300083608281016AB0F91E30C9180162016AB8
:101140004FF4007391FBF3F3046A190009B2641AB7
:101150000462838410BC704710B480494FF47A72E3
:101160004A607F4A137853F0800313707D4B1C78DC
:1011700054F020041C70147814F0BF0414701A7812
:1011800012F0EF021A701E220A6010BC704710B5F0
:101190000400322071494860002074490871002120
:1011A000200002F0A9FA0021200002F0BDFA64201C
:1011B00001F014FB6A48017811F07F010170694861
:1011C000017811F0DF01017010BD38B504006248EC
:1011D00090F86D00FF2814D0644D2879012806D1BD
:1011E000207A002803D10121200002F085FA287915
:1011F000022806D1607A002803D10121200002F0E4
:1012000093FA31BD00000000C10D002038B5040084
:1012100000256068012837DA40F205105249B1F91B
:101220001C20824203DAB1F93410814216DB608956
:1012300006280DDB00204D49087101200500002122
:10124000200002F071FA0021200002F055FA02E0BD
:101250006089401C60810020A08108E0A089C92825
:1012600002DB0020608102E0A089401CA0812800F0
:10127000C0B2002801D1012000E0002038490A78DE
:1012800060F341020A700AE06068401E60606068B6
:1012900042F21171884202DB4FF47A70606020687C
:1012A000002803D02068401E206011E02C480178FF
:1012B00011F07F0101702B490A7812F0DF020A70E9
:1012C000027812F0BF020270087810F0EF00087088
:1012D00031BD000058010020BE0D00201F4A117AC8
:1012E00000291ED1517A00291BD190F9051001293E
:1012F00013DA40F2F5111C4AB2F90C308B4202DBD2
:101300000121017105E0B2F924208A4201DB0221AA
:1013100001710021084A118205E04179491E41719D
:1013200001E00F214171704728000020C30D00200B
:10133000B40D0020C20D0020640D0020C40D00205B
:10134000C50D0020C60D0020C70D00202400002080
:10135000AA280008844E0008800A0020880D00207A
:1013600014000048150400482C0D00200000002047
:10137000A40D0020080C0020980D0020B80B0020C0
:10138000704700210171002180F83710002180F89A
:1013900038100021C1630021016400214164002153
:1013A000A0F84810002180F84C10012180F86D1041
:1013B000012180F86E10002180F86F10704730B462
:1013C00005210170002181800021C1805FF4483136
:1013D00081604FF4C87282810023C3815FF47A1365
:1013E00003614FF4FA6484820025856100258583BA
:1013F0000025C583016282840021C18483628485C3
:10140000002101630021818630BC704710B50400C3
:101410000020208214F118000A2102F09DF900201A
:1014200084F82200200010BD0021016000214160ED
:101430000021418100218181704730B4002513E0F3
:1014400050F8042BD30744BFA9F101039A18091FD0
:10145000042942F8045BFAD213468C0744BF158076
:101460009B1CC90748BF1D7050F8041B0029E7D119
:1014700030BC70473EB5040094F86F00002802D0DD
:10148000002084F86F002068B0F85010200002F0AF
:1014900066F9002000906A4601A9200002F079F95F
:1014A00005002800C0B2002817D01348017851F079
:1014B000100101700098020092B20199206802F0B8
:1014C000CAF994F86F2000998A1884F86F200100F7
:1014D000C9B2002901D10099E16394F86F00002896
:1014E00009D1200002F0D1FE002804D00248017882
:1014F00011F0EF01017037BD1500004810B5040070
:10150000FFF76AFB10BD30B40EE002684368024486
:101510000830DC0744BFA9F10104E31852F8045B6A
:1015200043F8045B091FF9D150F8041B0029ECD1E2
:1015300030BC704738B50400124D2878C0F3001055
:10154000C0B2002804D194F84A102000FEF750FFE2
:1015500094F86F00002809D1200002F096FE0028C0
:1015600009D0287810F0EF00287004E094F86F009C
:10157000401E84F86F00012214F14A01206802F035
:10158000A8F931BD1500004810B504002079FFF717
:10159000AFFA0122211D206802F09BF910BD0178ED
:1015A000491C01700178652903DB0121817000214C
:1015B00001704178491C417041780B2903DB0121FE
:1015C000C17000214170704780B50748016851F033
:1015D00010010160032002F0D4FE022002F00EFF91
:1015E00002F032FF002002BD0020024038B586B074
:1015F00014220021684600F0BFFB4F48016851F4F7
:1016000000210160016811F400210591059901682C
:1016100051F480010160016811F480010591059980
:10162000016851F400310160016811F40031059145
:101630000599016851F480210160006810F4802050
:10164000059005983D4C00224FF40051200002F017
:10165000F7FF01224FF48041200002F0F1FF012248
:1016600001215FF0904002F0EBFF002241F6C21131
:101670005FF0904002F0E4FF314D002243F27061D0
:10168000280002F0DDFF4FF4C040009001200190DF
:1016900000200290002003906946200002F0F0FE36
:1016A0004FF4004000900020019000200290694615
:1016B000200002F0E5FE41F6C310009001200190E9
:1016C000002002900020039069465FF0904002F0F5
:1016D000D7FE48F2100000900020019000200290F8
:1016E00069465FF0904002F0CBFE40F604000090A7
:1016F00000200190002002906946280002F0C0FE00
:1017000043F27040009001200190002002900020E0
:1017100003906946280002F0B3FE4FF40070009079
:1017200001200190002002900020039069462800CB
:1017300002F0A6FE07B030BD1410024000080048B9
:101740000004004880B50D48016851F001010160B6
:10175000006810F0010000900098002200210B208A
:1017600002F015FE0B2002F027FE002200210C20C3
:1017700002F00DFE0C2002F01FFE01BD141002400D
:1017800080B55848584901604FF416414160002126
:1017900081600021C160002101610C2141610021B3
:1017A00081610021C16100210162302141624FF459
:1017B000805181634FF40051C16302F00FF800289B
:1017C00001D0FFF7DDFD01BD80B548484849016003
:1017D0004FF461414160002181600021C16000211E
:1017E00001610C214161002181610021C161002161
:1017F0000162302141624FF4805181634FF4005106
:10180000C16301F0EBFF002801D0FFF7B9FD01BD76
:1018100010B586B0040014220021684600F0ACFA2E
:101820002068314988422CD13248016851F4804106
:101830000160006810F48040059005982E4801680A
:1018400051F400310160006810F4003005900598F3
:101850004FF4C0600090022001900020029003200D
:1018600003900720049069465FF0904002F008FE64
:1018700000220121252002F08AFD252002F09CFD96
:101880002EE020681A4988422AD11C48016851F488
:1018900000310160006810F400300590059816488A
:1018A000016851F400310160006810F400300590C7
:1018B00005980C2000900220019000200290032047
:1018C00003900720049069465FF0904002F0D8FD35
:1018D00000220121262002F05AFD262002F06CFD94
:1018E00006B010BD7808002000380140FC08002038
:1018F0000044004018100240141002401C10024026
:1019000018B589B00C22002106A800F035FA18227B
:101910000021684600F030FAB34C5FF0A040206030
:10192000002060600020A06001202061012060761E
:10193000002084F820000020E0620120A062002046
:10194000E0600220E061012084F83000082060613E
:101950000020207600206063200001F001F80028BC
:1019600001D0FFF70DFD0020069006A9200001F030
:1019700063FD002801D0FFF703FD0B20009001203C
:101980000190002003900420029000200490002089
:1019900005906946200001F035FB002801D0FFF7D3
:1019A000EFFC0C200090022001906946200001F01D
:1019B00029FB002801D0FFF7E3FC0AB010BD10B5E9
:1019C00086B018220021684600F0D6F9874C884876
:1019D0002060002060600020A060012020610120C4
:1019E0006076002084F820000020E0620120A062E0
:1019F0000020E0600320E061012084F8300008202E
:101A000060610020207600206063200000F0A8FFC5
:101A1000002801D0FFF7B4FC0220009001200190C3
:101A200000200390042002900020049000200590E4
:101A30006946200001F0E6FA002801D0FFF7A0FC7B
:101A40000E200090022001906946200001F0DAFA91
:101A5000002801D0FFF794FC0F2000900320019094
:101A60006946200001F0CEFA002801D0FFF788FC7B
:101A700006B010BD38B586B00400142200216846B7
:101A800000F07AF92068B0F1A04F49D159480168B7
:101A9000491C01600068012809D15748016851F0CC
:101AA00080510160006810F0805005900598524800
:101AB000016851F480210160006810F480200590D5
:101AC00005980320009003200190002002906946B1
:101AD0004A4802F0D5FC4A4D4A4828600020686018
:101AE0000020A8608020E8604FF4807028614FF4E7
:101AF000806068612020A8610020E861280002F071
:101B0000BDFD002801D0FFF73BFCA5636C620022FD
:101B10000021122002F03BFC122002F04DFC61E09B
:101B20002068334988425DD132480168491C016010
:101B30000068012809D13048016851F080510160E6
:101B4000006810F08050059005982B48016851F40A
:101B500000310160016811F40031059105990168B7
:101B600051F480210160006810F4802005900598F0
:101B700020200090032001900020029069465FF031
:101B8000904002F07DFC4FF4404000900320019013
:101B9000002002906946194802F072FC1A4D1B4859
:101BA0002860002068600020A8608020E8604FF472
:101BB000807028614FF4806068612020A861002057
:101BC000E861280002F05AFD002801D0FFF7D8FB99
:101BD000A5636C6200220021122002F0D8FB1220C3
:101BE00002F0EAFB07B030BDB80B0020080C002063
:101BF00000010050B00D0020141002400004004805
:101C0000A40C002008000240E80C00201C00024048
:101C100018B587B01022002103A800F0ADF80C22FF
:101C20000021684600F0A8F8214C224820600020DE
:101C300060600020A0604FF6FF70E060002020612F
:101C4000002060610020A061200002F06DFE0028ED
:101C500001D0FFF795FB4FF48050039003A92000BB
:101C600002F09FFE002801D0FFF78AFB00200090C1
:101C700000200190002002906946200002F096FFAB
:101C8000002801D0FFF77CFB08B010BD81B00168CF
:101C9000084A914209D108490A6852F400620A6070
:101CA000096811F400610091009901B070470000CB
:101CB000580C0020002C01401810024038B50400D8
:101CC0000D0028000200D2B201215FF0904002F026
:101CD000B7FC31BD38B504000D0028000200D2B2B7
:101CE0004FF48041014802F0ABFC31BD00080048D0
:101CF00038B504000D002560012214F14A01206866
:101D000001F0E7FD31BD38B504000D00256001226A
:101D1000211D206801F0DDFD31BD70470169B1F57D
:101D2000FA6F02D20169491C01617047114A1178AA
:101D3000C1F30011C9B200290BD00179152904DBC8
:101D4000117811F0EF01117005E00179491C017162
:101D500001E000210171016C00290AD0416C0129C8
:101D600007DB416C491E4164416C002901D100210F
:101D7000016470471500004810B5044610460A4635
:101D80000146204602F056FF204610BD2DE9FC47D3
:101D90000400002C01D10120DCE22078C00740F1D2
:101DA000AC80DFF8E007016811F00C0104290AD0CB
:101DB000016811F00C01082922D1006810F480306C
:101DC000B0F5803F1CD1202050F01100C0B2400976
:101DD000012803D1DFF8A807006804E011201120D2
:101DE000DFF8B80700681F2111F01101C840C007D3
:101DF00040F183806068002840F07F800120A9E2E4
:101E00006068B0F5803F06D1DFF87407016851F4CF
:101E10008031016026E0606800280AD1DFF86007A1
:101E2000016831F480310160016831F48021016082
:101E300018E06068B0F5A02F0AD1DFF84407016808
:101E400051F480210160016851F48031016009E0A2
:101E5000DFF82C07016831F480310160016831F44A
:101E600080210160DFF82C170A6812091201A068AE
:101E700002430A60606800281FD000F017FD0500CB
:101E8000202050F01100C0B24009012803D1DFF832
:101E9000F006006804E011201120DFF80007006858
:101EA0001F2111F01101C840C00726D400F0FEFC2C
:101EB000401B6528E4D303204CE200F0F7FC05004A
:101EC000202050F01100C0B24009012803D1DFF8F2
:101ED000B006006804E011201120DFF8C006006899
:101EE0001F2111F01101C840C00706D500F0DEFC2B
:101EF000401B6528E4D303202CE22078800740F1C2
:101F00009280DFF88006016811F00C0F07D001689D
:101F100011F00C01082929D10068C00326D4202023
:101F200050F00100C0B24009012803D1DFF850068B
:101F3000006804E001200120DFF8600600681F212E
:101F400011F00101C840C00704D52069012801D063
:101F50000120FFE1DFF828060168032231F0F801D3
:101F6000636913FA02F2114301605CE02069002802
:101F700032D001200021DFF8282612EB8102106008
:101F800000F094FC0500202050F00100C0B2400990
:101F9000012803D1DFF8E805006804E001200120F2
:101FA000DFF8F80500681F2111F00101C840C007E3
:101FB00006D400F07BFC401B0328E4D30320C9E1D6
:101FC000DFF8BC050168032231F0F801636913FAF8
:101FD00002F21143016026E000200021DFF8C02555
:101FE00012EB8102106000F061FC0500202050F02F
:101FF0000100C0B24009012803D1DFF88405006860
:1020000004E001200120DFF8940500681F2111F091
:102010000101C840C00706D500F048FC401B03285A
:10202000E4D3032096E1207800073CD5A06900287E
:102030001CD001200021DFF8602512EB8102106026
:1020400000F034FC0500012001200120DFF84C05E0
:1020500000681F2111F00101C840C00723D400F01F
:1020600025FC401B0328EED3032073E10020002150
:10207000DFF8242512EB8102106000F017FC050048
:10208000012001200120DFF8140500681F2111F054
:102090000101C840C00706D500F008FC401B03281A
:1020A000EED3032056E12078400740F1B0800027AE
:1020B000DFF8F084D8F80000C0000DD4D8F8000094
:1020C00050F08050C8F80000D8F8000010F08050A0
:1020D0000090009801200700DFF8CC94D9F80000A8
:1020E000C00513D4D9F8000050F48070C9F800007E
:1020F00000F0DCFB0500D9F80000C00506D400F0B4
:10210000D5FB401B6528F6D3032023E1E0680128B6
:1021100006D1DFF89804016851F00101016025E063
:10212000E06800280AD1DFF8840401684908490002
:102130000160016831F00401016017E0E0680528E2
:102140000AD1DFF86804016851F0040101600168F8
:1021500051F00101016009E0DFF85004016849080D
:1021600049000160016831F004010160E068002865
:1021700021D000F09BFB05000120402050F0010021
:10218000C0B24009022803D1DFF82004006803E050
:102190000120DFF8080400681F2111F00101C84088
:1021A000C0072AD400F082FB401B41F289318842EB
:1021B000E2D30320CEE000F079FB050001204020AF
:1021C00050F00100C0B24009022803D1DFF8DC035F
:1021D000006803E00120DFF8C40300681F2111F04C
:1021E0000101C840C00708D500F060FB401B41F268
:1021F00089318842E2D30320ACE03800C0B2012824
:1022000005D1D8F8000030F08050C8F80000E0692F
:10221000002800F09E80DFF86C83D8F8000010F0F2
:102220000C00082800F08180E069022856D15FF098
:102230001809DFF86CA300201AEB8901086000F090
:1022400035FB0700202050F01900C0B240090128DA
:1022500003D1DFF82C03006804E019201920DFF80F
:102260003C0300681F2111F01901C840C00706D5C2
:1022700000F01CFBC01B0328E4D303206AE0D8F85D
:10228000001031F47411606A0143206A0143C8F8F8
:10229000001001201AEB890ACAF8000000F006FBC2
:1022A0000500202050F01900C0B24009012803D1D8
:1022B000DFF8CC02006804E019201920DFF8DC0206
:1022C00000681F2111F01901C840C00741D400F077
:1022D000EDFA401B0328E4D303203BE00020182143
:1022E000DFF8BC2212EB8102106000F0DFFA05007B
:1022F000202050F01900C0B24009012803D1DFF8B6
:102300008002006804E019201920DFF890020068BC
:102310001F2111F01901C840C0071AD500F0C6FAF4
:10232000401B0328E4D3032014E0E069012801D115
:1023300001200FE0D8F80000060016F48030216A72
:10234000884204D116F47010616A884201D00120DD
:1023500000E00020BDE8F6872DE9F04104000D0003
:102360000026002C01D10120BEE0DFF8447238685D
:1023700010F00700A8420BD23868C008C0002843FC
:102380003860386810F00700A84201D00120ABE0A7
:102390002078800707D5DFF8EC110A6832F0F002E8
:1023A000A06802430A602078C00766D560680128EB
:1023B00016D1202050F01100C0B24009012802D1EE
:1023C0006F48006804E011201120DFF8D001006898
:1023D0001F2111F01101C840C00730D4012083E053
:1023E0006068022815D1202050F01900C0B24009C1
:1023F000012802D16248006803E0192019206748CB
:1024000000681F2111F01901C840C00717D401202E
:102410006AE0202050F00100C0B24009012802D13A
:102420005748006803E0012001205C4800681F2134
:1024300011F00101C840C00701D4012054E0DFF8C9
:102440004481D8F800108908890060680143C8F801
:10245000001000F02BFA0600D8F8000010F00C0075
:102460006168B0EB810F08D000F020FA801B41F2C8
:1024700089318842F0D3032036E0386810F0070035
:1024800085420BD23868C008C000284338603868DD
:1024900010F00700A84201D0012025E02078400775
:1024A00006D538490A6832F4E062E06802430A60FF
:1024B0002078000707D53348016831F4605122695C
:1024C00051EAC201016000F011F82E490968394A49
:1024D00011F0F0010909515CC8402C4908602C48F2
:1024E000006801F08BFF0020BDE8F08170B400208F
:1024F0000021002200230024224D2D6815F00C0637
:10250000042E02D0082E02D01CE01F481BE02A48EF
:1025100015F47016B60C805D03001E480068274E47
:1025200010F00F00305C0100E80305D51648B0FB41
:10253000F1F05843020003E0214800FB03F00200E1
:10254000100000E0104870BC7047104800687047E9
:1025500080B5FFF7FAFF0B4909681A4A11F4E061E8
:10256000090A515CC84002BD80B5FFF7EEFF05497E
:102570000968144A11F46051C90A515CC84002BD8F
:10258000001002400410024000127A0020000020D7
:102590001C0000202C100240800442422410024003
:1025A000000042421C100240007000402010024017
:1025B00000200240B44E0008944E0008A44E0008CB
:1025C00000093D00D44E00082DE9F843050000261F
:1025D000002400272868C00340F18280DFF858817A
:1025E000D8F80000C0000DD4D8F8000050F080509A
:1025F000C8F80000D8F8000010F080500090009853
:1026000001200700DFF83491D9F80000C00513D489
:10261000D9F8000050F48070C9F8000000F046F9C5
:102620000600D9F80000C00506D400F03FF9801B71
:102630006528F6D303207CE0DFF80491D9F8000088
:1026400010F440700400002C38D0686810F440701A
:10265000844233D0D9F8000030F440700400394887
:102660000121102210EB820211600021102210EBD8
:1026700082000160C9F80040E0071FD500F016F99C
:1026800006000120402050F00100C0B2400902289D
:1026900002D1D9F8000002E001202B4800681F2178
:1026A00011F00101C840C00708D400F0FFF8801BFA
:1026B00041F289318842E4D303203AE0D9F800108E
:1026C00031F4407168680143C9F800103800C0B2A5
:1026D000012805D1D8F8000030F08050C8F800007B
:1026E0002878C00706D519490A6892089200A86898
:1026F00002430A602878800606D514490A6832F039
:102700001002E86802430A602878000606D51049DE
:102710000A6832F4F872286902430A602868C00423
:1027200006D50A490A6832F48072686902430A6071
:102730000020BDE8F28300001C1002400070004041
:102740002010024000044242241002403010024097
:102750002C10024030B4020092F8383092F8380061
:10276000401C322590FBF5F405FB140492F8370069
:10277000844201D1002005E002EB0300417182F8A0
:102780003840012030BC70473EB504000020009066
:102790006A4601A9200000F0FCFF05002800C0B235
:1027A000002817D00C48017851F0100101700098F2
:1027B000020092B20199206801F04DF894F86F2060
:1027C00000998A1884F86F200100C9B2002901D14C
:1027D0000099E16337BD00BF1500004870B50400E3
:1027E00000F064F80500260016F1010F02D004483D
:1027F0000078361800F05AF8401BB042FAD370BD8A
:102800002500002062B38B0708D0521E11F8013B4F
:1028100000F8013B00F024808B07F6D1830740F0DD
:10282000208000BF103A07D330B4B1E83810103A16
:10283000A0E83810F9D230BC530724BFB1E8081023
:10284000A0E8081044BF51F8043B40F8043BD2070D
:1028500024BF31F8022B20F8022B44BF0B78037001
:102860007047121F17D35B0009D151F8043B20F8C1
:10287000023B1B0C121F20F8023BF6D20BE051F872
:10288000043B00F8013B1B0A20F8023B1B0C121F03
:1028900000F8013BF3D238BF121D521E24BF11F8BD
:1028A000013B00F8013BF8D870471100014800686F
:1028B000704700BFB80D002010B50400FEF78CF97A
:1028C00010BDF8B504000D00160065710122611DF0
:1028D000206800F0C0FF07003100C9B22800C0B274
:1028E000FDF764FCF1BD00000A00437AD2B29A42BF
:1028F00014D041720A00D2B2002A05D0084A1378D7
:1029000053F01003137004E0054A137853F02003CA
:1029100013701E2202604FF4C8724260704700BFFD
:10292000150400480A00037AD2B29A4214D0017208
:102930000A00D2B2002A05D0084A137853F04003A7
:10294000137004E0054A137853F0800313701E22BD
:1029500002604FF4C8724260704700BF1400004824
:10296000F0B595B004000026002700200090002C50
:1029700001D1012015E12069002802D094F820003F
:102980000028206CC00654D4206C00283DD10020C3
:1029900060640020E0640020A064002084F83C0013
:1029A0002000FFF767F820688068C0002DD4200061
:1029B00000F052FE0600206CC00626D43000C0B2E3
:1029C000002822D1206C30F4885050F0020020649E
:1029D0002068806830F040502168886020688068F6
:1029E00050F0805021688860DFF804030068DFF849
:1029F0000413B0FBF1F10A20414300910098002834
:102A000003D00098401E0090F8E720688068C0005E
:102A100003D52068806880000BD5206C30F0020060
:102A200050F010002064606C50F0010060640120E0
:102A30000600206CC00600F1AA803000C0B2002859
:102A400040F0A58020688068400700F1A080206CDD
:102A500030F4807050F002002064DFF89C02050022
:102A60002068B0F1A04F04D1DFF8900201900198E6
:102A700003E05FF0A040019001982068806810F0AA
:102A80000300012804D12068006810F0010000E074
:102A90000020002816D1019800280DD001988068E8
:102AA00010F00300012804D10198006810F0010023
:102AB00000E00020002805D1A96831F440316068A9
:102AC0000143A960606B012802D04FF4805100E0FF
:102AD0000021607E51EA4031E0680143A068014373
:102AE0000F4394F82000012813D1607E002806D1FE
:102AF000606A401E400450F48030074309E0206CB7
:102B000030F0020050F020002064606C50F00100B2
:102B10006064A06A012803D0A16AE06A01430F4300
:102B20002068806810F00C0F0DD12068C168DFF8B4
:102B3000D00101402068C160207E94F83010490027
:102B400051EA80310F432068C168DFF898040140E2
:102B500039432068C1602069012809D12068006BD1
:102B600000090001E169491E08432168086305E086
:102B70002068006B00090001216808630020606480
:102B8000206C30F0020050F00100206407E0206C5F
:102B900030F0020050F010002064012006003000E8
:102BA000C0B215B0F0BD2DE9F84304000D001600C9
:102BB000002720688068400700F1938094F83C006B
:102BC000012801D1022090E0012084F83C00DFF8C8
:102BD0001C84D8F8000010F01F0F7CD1200000F0FA
:102BE000FCFC81464846C0B2002870D1216CDFF859
:102BF000F803014051F480712164D8F8000010F00E
:102C00001F0F03D02068B0F1A04F0ED1206C30F41C
:102C1000801020642068C068800121D5206C30F4C9
:102C2000005050F4805020641AE0206C50F4801062
:102C300020642068B0F1A04F03D020682F4988425B
:102C400005D1DFF8AC03006810F0007000E0002050
:102C5000002805D0206C30F4005050F480502064DF
:102C6000206CC00404D5606C30F00600606401E0A4
:102C700000206064002084F83C00DFF87803A16B3A
:102C80008862DFF87403A16BC862DFF87003A16B80
:102C900008631C20216808602068406850F010001C
:102CA000216848602068C06850F001002168C86051
:102CB00033002A00206810F14001A06B01F009FDEB
:102CC0002068806850F00400216888600BE00020D4
:102CD00084F83C0007E05FF00109002084F83C0024
:102CE00001E05FF002094846C0B2BDE8F28300008F
:102CF0002000002040420F0000030050000100505F
:102D0000FDBFFFFF2DE9F0410500002600275FF021
:102D1000000828680068400703D528684068400715
:102D200007D428680068000755D528684068000760
:102D300051D5286CC00603D4286C50F40070286468
:102D4000DFF8A802016811F01F0F0DD0016811F023
:102D50001F01052908D0006810F01F00092803D0C2
:102D60002868B0F1A04F03D12868C068070003E0CD
:102D7000DFF87C02006807002868C06810F4406F24
:102D800023D1B80421D42868006800071DD528681D
:102D90008068400711D42868406830F00C0029682A
:102DA0004860286C30F480702864286CC0040CD40F
:102DB000286C50F00100286407E0286C50F01000E7
:102DC0002864686C50F0010068642800FDF711FA6F
:102DD0000C202968086028680068800603D52868E8
:102DE0004068800607D428680068400676D52868C1
:102DF0004068400672D5286C50F400502864DFF813
:102E0000EC01016811F01F0F0DD0016811F01F01D6
:102E1000052908D0016811F01F01092903D029688C
:102E2000B1F1A04F03D12968C9680F0003E0DFF8B2
:102E3000C01109680F002968C96C11F0C00F47D193
:102E4000B90106D52968C96811F4406F40D1B904A9
:102E50003ED42968096849063AD5016811F01F0F68
:102E60000DD0016811F01F01062908D0006810F08C
:102E70001F00072803D02868B0F1A04F03D12868AD
:102E8000C068804603E0DFF86801006880465FEABA
:102E900088201DD428688068000711D428684068FD
:102EA00030F0600029684860286C30F48050286455
:102EB000286CC0050CD4286C50F00100286407E091
:102EC000286C50F010002864686C50F001006864B1
:102ED000280000F00FFC602029680860286800685E
:102EE00000060DD528684068000609D5286C50F406
:102EF00080302864280001F0D0FE80202968086016
:102F000028680068C0050ED528684068C0050AD545
:102F1000286C50F400302864280001F0BFFE4FF404
:102F20008070296808602868006880050ED52868C8
:102F3000406880050AD5286C50F480202864280059
:102F400001F0ADFE4FF40070296808602868006841
:102F5000C0062DD528684068C00629D5686B0128B1
:102F600002D10120060013E0DFF894000400A068FD
:102F700010F01F0F06D12868C068C00708D50120CF
:102F8000060005E0A06810F4404F01D001200600C3
:102F9000012E0AD1286C50F480602864686C50F0CF
:102FA00002006864280001F07BFE10202968086098
:102FB00028680068400512D52868406840050ED58D
:102FC000286C50F480402864686C50F008006864F5
:102FD0004FF4806029680860280001F062FEBDE8B7
:102FE000F081000007C0F0FFFEF1FFFF0803005072
:102FF0000C00005061350008AF350008BD350008F1
:1030000000030050F0B495B00400002500200090AB
:10301000C8680128FFD194F83C00012801D10220A2
:1030200005E2012084F83C0020688068400700F138
:10303000F3814868052815D206202668366B1F27BD
:10304000D1F804C000FB0CFC17FA0CF7BE430F6864
:10305000D1F804C000FB0CF017FA00F030432668EA
:10306000306352E048680A2819D206262068476B68
:103070005FF01F0C4868401F10FB06F01CFA00FCB4
:1030800037EA0C07D1F800C04868401F10FB06F073
:103090001CFA00FC5CEA07072068476335E04868D3
:1030A0000F2819D206262068876B5FF01F0C48682E
:1030B0000A3810FB06F01CFA00FC37EA0C07D1F8BE
:1030C00000C048680A3810FB06F01CFA00FC5CEAF5
:1030D00007072068876318E006262068C76B5FF043
:1030E0001F0C48680F3810FB06F01CFA00FC37EA8A
:1030F0000C07D1F800C048680F3810FB06F01CFA26
:1031000000FC5CEA07072068C7632068806810F04D
:103110000C0F40F0B38008680A2816D3206886692F
:10312000072708680A385FF0030C10FB0CF0874093
:10313000BE438F6808680A385FF0030C10FB0CF080
:1031400087403E432068866115E02068466907276E
:10315000D1F800C0032000FB0CFC17FA0CF7BE43AB
:103160008F68D1F800C0032000FB0CFC17FA0CF7A5
:103170003E43206846614E692068C068C0F3C100C4
:10318000C0B24000864033000869012806D03DD314
:1031900003281FD010D304282AD037E02068066EF9
:1031A000DFF8B8030640086856EA80661E4356F00A
:1031B00000462068066661E02068466EDFF89C03E2
:1031C0000640086856EA80661E4356F000462068AE
:1031D000466653E02068866EDFF880030640086884
:1031E00056EA80661E4356F000462068866645E033
:1031F0002068C66EDFF864030640086856EA8066F9
:103200001E4356F000462068C66637E02068006E10
:1032100010F0F8400E68B0EB866F05D12068006EA4
:1032200020F00040266830662068406E10F0F840BC
:103230000E68B0EB866F05D12068406E20F000402C
:10324000266870662068806E10F0F8400E68B0EB5B
:10325000866F05D12068806E20F000402668B06639
:103260002068C06E10F0F8400E68B0EB866F05D194
:103270002068C06E20F000402668F06620688068F4
:1032800010F00300012804D12068006810F001004C
:1032900000E00020002840F0C580C86801280AD05E
:1032A0002068D0F8B060012708688740BE432068D6
:1032B000C0F8B06039E02068D0F8B0600127086835
:1032C00087403E432068C0F8B06008680A2816D3DB
:1032D000206886690727086809385FF0030C10FB2F
:1032E0000CF08740BE438F68086809385FF0030C14
:1032F00010FB0CF087403E432068866115E0206893
:10330000466907270868401C5FF0030C10FB0CF0AF
:103310008740BE438F680868401C5FF0030C10FBB9
:103320000CF087403E4320684661DFF8B40302009A
:103330000868102802D1906800020BD5086811288F
:1033400002D19068C00105D5086812286AD190683A
:10335000400267D42068B0F1A04F03D135480190F6
:10336000019803E05FF0A040019001982068806818
:1033700010F00300012804D12068006810F001005B
:1033800000E00020002840D1019800280DD00198CD
:10339000806810F00300012804D10198006810F043
:1033A000010000E0002000282FD10868102818D163
:1033B0002068B0F1A04F14D1906850F400009060E4
:1033C000DFF820030068DFF82063B0FBF6F60A2080
:1033D000464300960098002824D00098401E009094
:1033E000F8E70868112808D12068B0F1A04F04D18F
:1033F000906850F08070906014E00868122811D135
:10340000906850F4800090600CE0206C50F0200038
:1034100020640120050005E0206C50F020002064AD
:1034200001200500002084F83C002800C0B215B03F
:10343000F0BC70470001005030B494B00300002489
:10344000086800281868B0F1A04F04D1DFF89C028A
:103450000090009803E05FF0A04000900098009872
:10346000002801D1012075E093F83C00012801D12A
:1034700002206FE0012083F83C0018688068400754
:103480005DD400988068400759D4DFF854020200E8
:10349000086800282ED0956835F4604548680543D3
:1034A00093F8300055EA403595601868806810F050
:1034B0000300012804D11868006810F0010000E042
:1034C0000020002841D10098806810F003000128F6
:1034D00004D10098006810F0010000E000200028EE
:1034E00033D19568824805400868054388680543DC
:1034F00095602AE0906830F46040906018688068B9
:1035000010F00300012804D11868006810F00100D1
:1035100000E00020002818D10098806810F0030017
:10352000012804D10098006810F0010000E000209C
:1035300000280AD195686E480540956005E0186C32
:1035400050F02000186401200400002083F83C00A3
:103550002000C0B214B030BC7047000000F0FF8300
:1035600038B50400656A286C10F0500F1AD1286C29
:1035700050F4007028642868C06810F4406F0DD1C2
:10358000687E00280AD1286C30F480702864286C8A
:10359000C00403D4286C50F0010028642800FCF714
:1035A00028FE03E02000A96B096B884731BD38B5C0
:1035B0000400656A280001F075FB31BD38B50400D0
:1035C000656A286C50F040002864686C50F0040074
:1035D0006864280001F064FB31BD38B504000025A3
:1035E0002068806810F00300012804D1206800687A
:1035F00010F0010000E0002000282BD12068806836
:103600006FF39E10002809D0206C50F01000206449
:10361000606C50F00100606401201CE0206880684C
:1036200050F0010021688860FFF740F9050020682C
:103630000068C0070ED4FFF739F9401B0328F6D302
:10364000206C50F010002064606C50F00100606449
:10365000012000E0002032BD38B5040000252068BC
:10366000806810F00300012804D12068006810F081
:10367000010000E0002000282FD02068806810F0B2
:103680000D0001280CD12068806850F002002168EC
:103690008860032021680860FFF708F9050009E049
:1036A000206C50F010002064606C50F001006064E9
:1036B000012013E020688068C0070ED5FFF7F6F8F8
:1036C000401B0328F6D3206C50F010002064606C7F
:1036D00050F001006064012000E0002032BD0000D5
:1036E000000300502000002040420F000001005065
:1036F000E0F0FFFF7047000001720A00D2B2002A1A
:1037000005D0084A137853F04003137004E0054ACB
:10371000137853F0800313701E220260C8224260A7
:10372000704700BF1400004841720A00D2B2002A5C
:1037300005D0084A137853F01003137004E0054ACB
:10374000137853F0200313701E220260C8224260D7
:10375000704700BF15040048002201F06FBA30B472
:1037600002000020884211DA92F8373092F838408F
:10377000A3420CD092F83740641C322594FBF5F339
:1037800005FB134382F83730401CEBE7080030BCE0
:10379000704710B4030093F8370093F83840A04204
:1037A00001D1002017E093F8370093F83840A04289
:1037B00006D293F8384093F83700241A146004E0D6
:1037C00093F83700D0F13200106093F837001844B6
:1037D000401D0860012010BC7047000010B50400B7
:1037E000002C01D1012035E0A0690028FFD1A06F95
:1037F000002805D1002084F874002000FEF708F8A6
:103800002420A06720680068400840002168086004
:10381000200000F0EDF9012801D101201AE0606AD2
:10382000002802D0200000F0C9FA2068406830F477
:103830009040216848602068806830F02A00216844
:1038400088602068006850F001002168086020004E
:1038500000F021FB10BD10B40300986F202835D173
:10386000002903D0100080B2002801D101202EE0F1
:1038700093F87400012801D1022028E0012083F888
:103880007400D964A3F85020A3F852200020986651
:103890000020C3F88000212098679868B0F5805F09
:1038A00006D11869002803D1DFF83C03986602E0CE
:1038B000DFF838039866002083F874001868006801
:1038C00050F080001C682060002000E0022010BC46
:1038D000704770B505000C001600E86F202823D152
:1038E000002C03D0300080B2002801D101201CE060
:1038F00095F87400012801D1022016E0012085F816
:1039000074000020286628684068000205D52868F1
:10391000006850F0806029680860320092B221008F
:10392000280000F048FB00E0022070BD2DE9F047C0
:1039300006003068C7693068D0F800803068D0F879
:10394000089040F60F043C40002C0BD1B80609D576
:103950005FEA886006D5706E002802D03000716E74
:1039600088473EE1002C00F0A2805FEAC97005D4D0
:10397000DFF82C0418EA000F00F0998017F001001E
:10398000C0B200280BD05FEAC85008D501203168CA
:103990000862D6F8800050F00100C6F88000B80731
:1039A0000DD519F00100C0B2002808D002203168FE
:1039B0000862D6F8800050F00400C6F8800078074E
:1039C0000DD519F00100C0B2002808D004203168DC
:1039D0000862D6F8800050F00200C6F88000380770
:1039E00010D55FEA886004D419F00100C0B2002845
:1039F00008D0082031680862D6F8800050F008002E
:103A0000C6F8800038050CD55FEA481009D54FF498
:103A1000006031680862D6F8800050F02000C6F8D7
:103A20008000D6F88000002840D0B80608D55FEAAC
:103A3000886005D5706E002802D03000716E88470E
:103A4000D6F88000050030688068400602D415F082
:103A5000280F25D0300000F00CFB3068806840064D
:103A60001AD53068806830F0400031688860306F67
:103A700000280DD00FF23560316F4863306F00F0D1
:103A800099FE002812D0306F316F496B88470DE0E6
:103A9000300001F008F909E0300001F004F905E018
:103AA000300001F000F90020C6F8800099E0306E87
:103AB000012874D1F80672D55FEAC8606FD510206E
:103AC000316808623068806840063CD5306F006815
:103AD000D0F804A0504680B2002833D05046B6F843
:103AE000581080B288422DD2A6F85AA0306F806953
:103AF00020281ED03068006830F48070316808607B
:103B000030688068400840003168886030688068AC
:103B100030F04000316888602020F0670020306677
:103B20003068006830F0100031680860306F00F0D5
:103B30001CFEB6F85810B6F85A00091A89B23000BF
:103B400001F0B2F84DE0B6F85800B6F85AA0B0EB64
:103B50000A0AB6F85A00002820D0504680B2002841
:103B60001CD03068006830F49070316808603068AC
:103B7000806840084000316888602020F06700209D
:103B80003066002070663068006830F010003168E0
:103B90000860514689B2300001F086F821E0F80251
:103BA0000AD55FEA492007D55FF4801031680862C2
:103BB000300001F07AF814E0380609D55FEA0860B1
:103BC00006D5B06E002802D03000B16E884708E0FC
:103BD000780606D55FEA486003D5300000F0B8FAF1
:103BE000FFE7BDE8F087000009410008C740000872
:103BF0002DE9F84304000027A168206901436069AA
:103C00000143E069014320680268664802400A43B4
:103C1000206802602068426832F44052E068024343
:103C200020684260D4F81880206A50EA08082068AA
:103C3000806830F4306058EA0000226890602068A4
:103C4000594A90421AD15948006810F003000028E0
:103C500005D002280CD008D3032803D00BE05FF076
:103C600000091BE05FF0020918E05FF0040915E0AD
:103C70005FF0080912E05FF010090FE020684C497E
:103C8000884202D15FF0000908E020684949884273
:103C900002D15FF0000901E05FF01009E069B0F5C2
:103CA000004F3FD14846C0B2002808D001280AD0B2
:103CB00002280CD004280CD008280ED010E0FEF703
:103CC00047FC01000FE0FEF74FFC01000BE03A4912
:103CD00009E0FEF70BFC010005E04FF4004102E0B3
:103CE000002101200700002951D06068400810EB36
:103CF00041006268B0FBF2F080B20600102E0ED3D5
:103D0000B6F5803F0BD24FF6F0723240C6F3420058
:103D100002431500280080B22268D06037E00120FD
:103D2000070034E04846C0B2002808D001280AD075
:103D300002280CD004280CD008280ED010E0FEF782
:103D400007FC01000FE0FEF70FFC01000BE01A4931
:103D500009E0FEF7CBFB010005E04FF4004102E073
:103D6000002101200700002911D0606811EB5000EC
:103D70006268B0FBF2F080B20600102E05D3B6F5F3
:103D8000803F02D22068C66001E0012007000020C9
:103D900060660020A0663800C0B2BDE8F283000073
:103DA00020010004F369FFEF0038014030100240A9
:103DB000004400400048004000127A0090F82410AF
:103DC000C90707D501684A6832F40032816A0A439C
:103DD00001684A6090F82410890707D501684A688D
:103DE00032F48032C16A0A4301684A6090F82410B4
:103DF000490707D501684A6832F48022016B0A43FB
:103E000001684A6090F82410090707D501684A68DC
:103E100032F40042416B0A4301684A6090F8241072
:103E2000C90607D501688A6832F48052816B0A435B
:103E300001688A6090F82410890607D501688A68AD
:103E400032F40052C16B0A4301688A6090F8241072
:103E5000490613D501684A6832F48012016C0A439E
:103E600001684A60016CB1F5801F07D101684A689A
:103E700032F4C002416C0A4301684A6090F8241091
:103E8000090607D501684A6832F40022816C0A43AA
:103E900001684A60704738B504000020C4F880000B
:103EA000FEF704FD05002068006800070DD57FF0CF
:103EB0007E4000902B0000225FF40011200000F0F3
:103EC00021F8002801D003201BE02068006840078B
:103ED0000DD57FF07E4000902B0000225FF4800122
:103EE000200000F00FF8002801D0032009E0202076
:103EF000A0672020E06700202066002084F874007E
:103F0000002032BD2DE9F04105000E0090461F0053
:103F1000069C2868C0693040B04201D1012000E011
:103F200000204146C9B2884242D114F1010FF0D0BD
:103F3000FEF7BCFCC01B844201D3002C14D12868BE
:103F4000006830F4D07029680860286880684008EC
:103F50004000296888602020A8672020E8670020AA
:103F600085F87400032024E0286800684007D0D555
:103F70002868C0690005CCD54FF400602968086244
:103F80002868006830F4D070296808602868806864
:103F900040084000296888602020A8672020E86742
:103FA0002020C5F88000002085F87400032000E080
:103FB0000020BDE8F08110B403005965A3F8582033
:103FC000A3F85A20002058669868B0F5805F0BD19E
:103FD0001869002804D140F2FF10A3F85C0023E028
:103FE000FF20A3F85C001FE0986800280AD1186938
:103FF000002803D1FF20A3F85C0015E07F20A3F880
:104000005C0011E09868B0F1805F0AD1186900285F
:1040100003D17F20A3F85C0006E03F20A3F85C00FA
:1040200002E00020A3F85C000020C3F880002220FA
:10403000D8671868806850F001001C68A060986814
:10404000B0F5805F06D11869002803D10FF2AD10DA
:10405000586602E00FF219105866002083F87400C9
:104060001868006850F490701C682060002010BC34
:1040700070470168096831F4907102681160016845
:1040800089684908490002689160016E012905D1DB
:104090000168096831F01001026811602021C167D0
:1040A00000210166002141667047000038B5040018
:1040B000656A0020A5F85A000020A5F852002800E3
:1040C00000F0F1FD31BD816F21291CD1B0F85210F3
:1040D00000290CD10168096831F080010268116083
:1040E0000168096851F04001026811600BE0C16C81
:1040F000097802681185C16C491CC164B0F852107E
:10410000491EA0F852107047816F21291FD1B0F8C5
:10411000521000290CD10168096831F08001036850
:1041200019600168096851F04001036819600EE0E8
:10413000C16C0A001188C905C90D03681985C16CD5
:10414000891CC164B0F85210491EA0F85210704783
:1041500010B504002068006830F040002168086055
:104160002020A0670020A0662000FCF720F810BDEA
:1041700070B50500B5F85C60E86F222837D1286873
:10418000808C040016EA0400696D0870686D401C9C
:104190006865B5F85A00401EA5F85A00B5F85A00EF
:1041A00000282AD12868006830F4907029680860D7
:1041B0002868806840084000296888602020E867F7
:1041C00000206866286E01280BD12868006830F04E
:1041D000100029680860B5F85810280000F064FD48
:1041E00002E02800FBF7F4FF0020286605E02868BD
:1041F000806950F008002968886170BDF8B5050035
:10420000B5F85C70E86F222838D12868808C0400EB
:10421000686D060017EA04003080686D801C6865D0
:10422000B5F85A00401EA5F85A00B5F85A00002803
:104230002AD12868006830F49070296808602868DE
:10424000806840084000296888602020E8670020D6
:104250006866286E01280BD12868006830F01000CD
:1042600029680860B5F85810280000F01DFD02E02C
:104270002800FBF7ADFF0020286605E0286880696C
:1042800050F0080029688861F1BD90F8371090F867
:104290003800814201D1012000E00020C0B2704707
:1042A00010B410F007034B4C22684FF6FF010A4090
:1042B000494951EA03210A43226010BC704745482E
:1042C0000068C0F302207047010049B2002909D4F8
:1042D000012210F01F018A40404903005BB25B09D4
:1042E00041F82320704710B4020052B2002A05D4CE
:1042F0000A013B4B040064B21A5508E00A01394B2D
:10430000040064B214F00F04234403F8042C10BC1E
:10431000704770B4030013F00704D4F107000528B8
:1043200001D3042001E0D4F10700251D072D01D29F
:10433000002500E0E51E012616FA00F0401E0140AF
:10434000A94016FA05F56D1E2A401143080070BCFD
:10435000704710B50400601EB0F1807F01D30120CA
:104360000EE0601E204908600F215FF0FF30FFF76C
:10437000BAFF00201D49086007201D490860002081
:1043800010BD10B504002000FFF78AFF10BD2DE915
:10439000F04104000D0016000027FFF790FF804653
:1043A000320029004046FFF7B4FF0100200040B270
:1043B000FFF799FFBDE8F08110B50400200040B27E
:1043C000FFF782FF10BD10B504002000FFF7C1FF0A
:1043D00010BD00000CED00E00000FA0500E100E077
:1043E00000E400E018ED00E014E000E018E000E078
:1043F00010E000E080B5FBF710FF01BD10B5040030
:104400004FF47A700D490978B0FBF1F00C49096856
:10441000B1FBF0F0FFF7D7FF002801D001200CE03E
:10442000102C09D2002221005FF0FF30FFF7AFFF10
:1044300004480460002000E0012010BD2500002099
:10444000200000201C00002081B00B48016851F0C2
:1044500001010160006810F0010000900098074819
:10446000016851F080510160006810F080500090A8
:10447000009801B0704700BF181002401C100240A5
:10448000F8B4030000250868E840002800F0D68052
:1044900001260F6816FA05F007403A00002A00F0DE
:1044A000CB804868012808D04868022805D04868B1
:1044B000112802D0486812281DD19F685FF0030CB4
:1044C0002800C0B240001CFA00FC37EA0C07D1F803
:1044D0000CC02800C0B240001CFA00FC5CEA0707D0
:1044E0009F605868AE40B0434E68C6F30016AE40B9
:1044F000304304005C60DE6803272800C0B240003F
:1045000017FA00F08643D1F808C02800C0B2400076
:104510001CFA00FC5CEA0606DE604868022802D04D
:10452000486812281ED12800C00803EB8000046AE6
:104530005FF00F0C15F00700C0B280001CFA00FC01
:1045400034EA0C04D1F810C015F00700C0B28000A6
:104550001CFA00FC5CEA040426002800C00803EBF7
:10456000800006621C682800C0B240008740BC433F
:104570000F7917F003072800C0B2400087403C4382
:104580001C604868C00057D53348066856F00106DD
:104590000660006810F00100009000982F4F28007E
:1045A000800857F820605FF00F0C15F00300C0B2D0
:1045B00080001CFA00FC36EA0C06B3F1904F01D1E2
:1045C00000240FE02648834201D101240AE0254857
:1045D000834201D1022405E02348834201D1032410
:1045E00000E0052415F00300C0B28000844026439B
:1045F0002800800847F820601C4C206890434F68D2
:10460000FF0300D510432060194E346894434F686F
:10461000BF0300D514433460164E306890434F6892
:10462000FF0200D510433060134E346894434F6846
:10463000BF0200D5144334606D1C24E7F1BC704701
:104640001300DBB2002B03D00B009BB2836102E0AE
:104650000B009BB2836270471810024008000140B3
:104660000004004800080048000C00480004014015
:1046700004040140080401400C04014070B504002A
:104680000025002C01D1012022E0022084F8210025
:10469000206806686FF30D166168A0680143E06842
:1046A00001432069014360690143A0690143E06956
:1046B00001430E4320680660200000F024F900202A
:1046C000A063012084F82100002084F8200000204D
:1046D00070BD2DE9F04104000D0016001F005FF0D1
:1046E000000894F82000012801D102203BE00120BD
:1046F00084F8200094F8210001282DD1022084F8AC
:1047000021000020A0632068006840084000216864
:1047100008603B0032002900200000F0DEF8E06A6B
:10472000002806D02068006850F00E00216808605C
:104730000BE02068006850F00A00216808602068DB
:10474000006830F00400216808602068006850F0BC
:1047500001002168086004E0002084F820000220A5
:1047600080464046C0B2BDE8F081010091F82100CA
:10477000022806D004208863002081F82000012050
:1047800017E00868006830F00E000A6810600868DA
:104790000068400840000A6810600122086C8240EE
:1047A000C86B4260012081F82100002081F82000C0
:1047B0000020704738B50400002594F82100022835
:1047C00004D00420A063012005001CE020680068DC
:1047D00030F00E0021680860206800684008400042
:1047E000216808600121206C8140E06B416001205C
:1047F00084F82100002084F82000606B002802D09B
:104800002000616B88472800C0B232BD70B504003B
:10481000E06B0568206806680421206C11FA00F03E
:10482000054216D0700714D520680068800605D4AC
:104830002068006830F0040022681060206C81401D
:10484000E06B4160E06A002846D02000E16A8847BA
:1048500042E00221206C11FA00F005421CD0B007A2
:104860001AD520680068800608D42068006830F0F7
:104870000A0022681060012084F82100206C814029
:10488000E06B4160002084F82000A06A002823D05B
:104890002000A16A88471FE00821206C81400D425A
:1048A0001AD0300718D52068006830F00E00216853
:1048B00008600121206C8140E06B41600120A06311
:1048C000012084F82100002084F82000206B0028BB
:1048D00002D02000216B884770BD30B40125046CE4
:1048E000A540C46B6560046863604468102C04D103
:1048F0000468A2600468E16003E00468A1600468E1
:10490000E26030BC7047026805498A181421B2FB86
:10491000F1F1890001640349C163704700000000A0
:10492000F8FFFDBF0000024010B50400002C01D1CB
:10493000012035E094F83D00002805D1002084F8DE
:104940003C002000FDF7A2F9022084F83D00211D63
:10495000206800F09DF8012084F84800012084F8C8
:104960003E00012084F83F00012084F8400001202F
:1049700084F84100012084F84200012084F84300BB
:10498000012084F84400012084F84500012084F8C7
:104990004600012084F84700012084F83D000020F3
:1049A00010BD70B504000D0094F83C00012801D141
:1049B00002206CE0012084F83C00022084F83D00D5
:1049C00020688668DFF85801064036F47F46206884
:1049D0008660286800284ED010284CD020284AD065
:1049E000302848D040283CD0502826D060282ED0EF
:1049F000702807D0B0F5805F03D0B0F5005F0FD00E
:104A00003EE03DE0EB686A68A968206800F0C1F804
:104A10002068806850F077000600206886602FE0EC
:104A2000EB686A68A968206800F0B3F820688068BD
:104A300050F480402168886022E0EA686968206854
:104A400000F07AF85021206800F09BF818E0EA683E
:104A50006968206800F082F86021206800F091F811
:104A60000EE0EA686968206800F066F84021206876
:104A700000F087F804E02968206800F082F8FFE77A
:104A8000012084F83D00002084F83C00002070BD27
:104A900010B40368DFF88C40A04206D0B0F1804F1C
:104AA00003D0DFF88420904203D133F070034A68CA
:104AB0001343A04212D0B0F1804F0FD0DFF868202E
:104AC00090420BD0DFF86420904207D0DFF86020DE
:104AD000904203D0DFF85C20904203D133F440735E
:104AE000CA68134333F080034A69134303608A683A
:104AF000C2620A688262A0420BD0DFF83020904286
:104B000007D0DFF82C20904203D0DFF82820904215
:104B100001D10A6902630122426110BC70470000A2
:104B200088FFFEFF002C01400004004000400140CF
:104B3000004401400048014010B4046A036A5B0865
:104B40005B000362836933F0F00353EA021334F02D
:104B50000A040C438361046210BC704710B4036AFA
:104B600033F0100303628369046A33F4704353EA39
:104B7000023334F0A00454EA01148361046210BCCF
:104B80007047836833F0700351F00702134383606A
:104B9000704730B4846834F47F4452EA010555EA22
:104BA00003252C43846030BC7047000030B4020001
:104BB00092F83C00012801D1022033E0012082F864
:104BC0003C00022082F83D00106843681068846849
:104BD000154D1068A84203D133F4700348680343AD
:104BE00033F0700308680343106843601068A842FC
:104BF0000BD01068B0F1804F07D010680B4DA84261
:104C000003D010680A4DA84205D134F080048868AA
:104C1000044310688460012082F83D00002082F87F
:104C20003C00002030BC7047002C014000040040D4
:104C30000040014062F30F2262F31F42401810F05F
:104C4000030308D0C91A1FD3DB0748BF00F8012DA2
:104C500028BF20F8022D130030B414461546103931
:104C600028BF20E93C00FAD8490728BF20E90C00FA
:104C700048BF40F8042D890028BF20F8022D48BF06
:104C800000F8012D30BC7047C91818BF00F8012D7D
:104C9000CB0728BF00F8012D704770477047704759
:104CA0007047704770477047704770477047FEE71E
:104CB000FEE7FEE7FEE770477047704780B5FFF7F5
:104CC00099FB00F029F801BD80B50D48FFF79EFD66
:104CD00001BD80B50B48FFF799FD01BD80B50A48BD
:104CE000FEF710F80948FEF70DF801BD80B5084839
:104CF000FEF71CFE01BD80B50648FEF717FE01BD9C
:104D0000A40C0020E80C0020B80B0020080C0020A8
:104D100078080020FC08002003480168034A127844
:104D200089180160704700BFB80D002025000020E1
:104D300010B5074979441831064C7C44163404E018
:104D40000A68081D114488470146A142F8D110BDE8
:104D5000540000007800000000050000000F000073
:104D60000000150016001700180019001A001B009B
:104D7000000000001000000000127A000101000095
:104D80004EF68851CEF20001086840F470000860C9
:104D9000BFF34F8FBFF36F8F4FF00070E1EE100A3B
:104DA0007047000097C6FFFFA00D000028000020FC
:104DB0000000000053C7FFFF280000009CFFFFFF1A
:104DC00000000020000000000500000010B50446AF
:104DD000044979440E31044878440C3000F006F858
:104DE000204610BD940100008C01000038B5044637
:104DF0000D46AC4205D0206820188047241DAC42E7
:104E0000F9D131BD00F00DF8002801D0FFF790FF77
:104E1000AFF300800020AFF30080FBF708FA00F04A
:104E200002F80120704700F001B80000074638463C
:104E300000F002F8FBE7000080B5AFF30080024A03
:104E400011001820ABBEFBE72600020004480168F1
:104E500051F4700101605FF0006002490860704722
:104E600088ED00E008ED00E00548014603B468461F
:104E700080F30988AFF30080FFF782FFFFF7C2FFDE
:104E8000A5EDF5FE01C908018E700E150000023572
:104E90009B58000002030405060708090A0B0C0DC5
:104EA0000E0F10100102030405060708090A0B0C77
:104EB0000D0E0F10000000000000000001020304AE
:104EC0000607080901488047014800474D4E000881
:104ED000694E00080000000001020304FFF7FEBF56
:104EE000FFF7FEBFFFF7FEBFFFF7FEBFFFF7FEBFF6
:104EF000FFF7FEBFFFF7FEBFFFF7FEBFFFF7FEBFE6
:104F0000FFF7FEBFFFF7FEBFFFF7FEBFFFF7FEBFD5
:104F1000FFF7FEBFFFF7FEBFFFF7FEBFFFF7FEBFC5
:104F2000FFF7FEBFFFF7FEBFFFF7FEBFFFF7FEBFB5
:104F3000FFF7FEBFFFF7FEBFFFF7FEBFFFF7FEBFA5
:104F4000FFF7FEBFFFF7FEBFFFF7FEBFFFF7FEBF95
:104F5000FFF7FEBFFFF7FEBFFFF7FEBFFFF7FEBF85
:104F6000FFF7FEBFFFF7FEBFFFF7FEBFFFF7FEBF75
:084F7000FFF7FEBF15B2FFFFC1
:0400000508004E6938
:00000001FF
